{
  "contractName": "Auth",
  "abi": [
    {
      "constant": true,
      "inputs": [],
      "name": "merchant",
      "outputs": [
        {
          "name": "",
          "type": "address"
        }
      ],
      "payable": false,
      "stateMutability": "view",
      "type": "function"
    }
  ],
  "bytecode": "0x6060604052341561000f57600080fd5b60e88061001d6000396000f300606060405260043610603f576000357c0100000000000000000000000000000000000000000000000000000000900463ffffffff168063a5ff7651146044575b600080fd5b3415604e57600080fd5b60546096565b604051808273ffffffffffffffffffffffffffffffffffffffff1673ffffffffffffffffffffffffffffffffffffffff16815260200191505060405180910390f35b600160009054906101000a900473ffffffffffffffffffffffffffffffffffffffff16815600a165627a7a72305820009c1116bc7d0a1197a8f0b844ff009d84cc2bf0d5283c8bc06538a82315f0ae0029",
  "source": "pragma solidity ^0.4.2;\r\n\r\nimport \"./PermissionManager.sol\";\r\n\r\ncontract Auth {\r\n    PermissionManager pm;\r\n    address public merchant;\r\n\r\n    modifier onlyAdminOrMerchant {\r\n        if (!pm.getNetworkAdmin(pm.getRol(msg.sender)) && msg.sender != merchant) throw;\r\n        _;\r\n    }\r\n\r\n    modifier onlyAdmin {\r\n        if (!pm.getNetworkAdmin(pm.getRol(msg.sender))) throw;\r\n        _;\r\n    }\r\n\r\n    function init(address theMerchant, address permissionManagerAddress) internal {\r\n        merchant = theMerchant;\r\n        pm = PermissionManager(permissionManagerAddress);\r\n    }\r\n}\r\n",
  "sourcePath": "C:\\Users\\Elias\\Documents\\GitHub\\pae-team-repo\\contracts\\bs-token\\Auth.sol",
  "compiler": {
    "name": "solc",
    "version": "0.4.18+commit.9cf6e910.Emscripten.clang"
  },
  "schemaVersion": "1.0.1",
  "updatedAt": "2017-12-11T16:18:49.057Z"
}