{
  "contractName": "AuthStoppable",
  "abi": [
    {
      "constant": false,
      "inputs": [],
      "name": "startEmergency",
      "outputs": [],
      "payable": false,
      "stateMutability": "nonpayable",
      "type": "function"
    },
    {
      "constant": false,
      "inputs": [],
      "name": "stopEmergency",
      "outputs": [],
      "payable": false,
      "stateMutability": "nonpayable",
      "type": "function"
    },
    {
      "constant": true,
      "inputs": [],
      "name": "merchant",
      "outputs": [
        {
          "name": "",
          "type": "address"
        }
      ],
      "payable": false,
      "stateMutability": "view",
      "type": "function"
    },
    {
      "constant": true,
      "inputs": [],
      "name": "emergency",
      "outputs": [
        {
          "name": "",
          "type": "bool"
        }
      ],
      "payable": false,
      "stateMutability": "view",
      "type": "function"
    }
  ],
  "bytecode": "0x6060604052341561000f57600080fd5b61059d8061001e6000396000f300606060405260043610610062576000357c0100000000000000000000000000000000000000000000000000000000900463ffffffff1680630fb7e6021461006757806397db7edb1461007c578063a5ff765114610091578063caa6fea4146100e6575b600080fd5b341561007257600080fd5b61007a610113565b005b341561008757600080fd5b61008f610325565b005b341561009c57600080fd5b6100a4610538565b604051808273ffffffffffffffffffffffffffffffffffffffff1673ffffffffffffffffffffffffffffffffffffffff16815260200191505060405180910390f35b34156100f157600080fd5b6100f961055e565b604051808215151515815260200191505060405180910390f35b6000809054906101000a900473ffffffffffffffffffffffffffffffffffffffff1673ffffffffffffffffffffffffffffffffffffffff1663d16657216000809054906101000a900473ffffffffffffffffffffffffffffffffffffffff1673ffffffffffffffffffffffffffffffffffffffff1663e53d0546336000604051602001526040518263ffffffff167c0100000000000000000000000000000000000000000000000000000000028152600401808273ffffffffffffffffffffffffffffffffffffffff1673ffffffffffffffffffffffffffffffffffffffff168152602001915050602060405180830381600087803b151561021457600080fd5b6102c65a03f1151561022557600080fd5b505050604051805190506000604051602001526040518263ffffffff167c010000000000000000000000000000000000000000000000000000000002815260040180828152602001915050602060405180830381600087803b151561028957600080fd5b6102c65a03f1151561029a57600080fd5b505050604051805190501580156102ff5750600160009054906101000a900473ffffffffffffffffffffffffffffffffffffffff1673ffffffffffffffffffffffffffffffffffffffff163373ffffffffffffffffffffffffffffffffffffffff1614155b1561030957600080fd5b60018060146101000a81548160ff021916908315150217905550565b6000809054906101000a900473ffffffffffffffffffffffffffffffffffffffff1673ffffffffffffffffffffffffffffffffffffffff1663d16657216000809054906101000a900473ffffffffffffffffffffffffffffffffffffffff1673ffffffffffffffffffffffffffffffffffffffff1663e53d0546336000604051602001526040518263ffffffff167c0100000000000000000000000000000000000000000000000000000000028152600401808273ffffffffffffffffffffffffffffffffffffffff1673ffffffffffffffffffffffffffffffffffffffff168152602001915050602060405180830381600087803b151561042657600080fd5b6102c65a03f1151561043757600080fd5b505050604051805190506000604051602001526040518263ffffffff167c010000000000000000000000000000000000000000000000000000000002815260040180828152602001915050602060405180830381600087803b151561049b57600080fd5b6102c65a03f115156104ac57600080fd5b505050604051805190501580156105115750600160009054906101000a900473ffffffffffffffffffffffffffffffffffffffff1673ffffffffffffffffffffffffffffffffffffffff163373ffffffffffffffffffffffffffffffffffffffff1614155b1561051b57600080fd5b6000600160146101000a81548160ff021916908315150217905550565b600160009054906101000a900473ffffffffffffffffffffffffffffffffffffffff1681565b600160149054906101000a900460ff16815600a165627a7a72305820180be584c15253f340a683797807bc84a2e733ccbad869ccf156d2c30754451d0029",
  "source": "pragma solidity ^0.4.2;\r\n\r\nimport \"./Auth.sol\";\r\n\r\ncontract AuthStoppable is Auth {\r\n    bool public emergency;\r\n\r\n    modifier stopInEmergency {\r\n        if (emergency) throw;\r\n        _;\r\n    }\r\n\r\n    function startEmergency() external onlyAdminOrMerchant {\r\n        emergency = true;\r\n    }\r\n\r\n    function stopEmergency() external onlyAdminOrMerchant {\r\n        emergency = false;\r\n    }\r\n\r\n    function init(address theMerchant, address permissionManagerAddress) internal {\r\n        super.init(theMerchant, permissionManagerAddress);\r\n    }\r\n}\r\n",
  "sourcePath": "C:\\Users\\Elias\\Documents\\GitHub\\pae-team-repo\\contracts\\bs-token\\AuthStoppable.sol",
  "compiler": {
    "name": "solc",
    "version": "0.4.18+commit.9cf6e910.Emscripten.clang"
  },
  "schemaVersion": "1.0.1",
  "updatedAt": "2017-12-11T16:18:49.054Z"
}