{
  "contractName": "BasicUser",
  "abi": [
    {
      "constant": false,
      "inputs": [
        {
          "name": "ticketAddress",
          "type": "address"
        },
        {
          "name": "value",
          "type": "uint16"
        }
      ],
      "name": "resellTicket",
      "outputs": [],
      "payable": false,
      "stateMutability": "nonpayable",
      "type": "function"
    },
    {
      "constant": false,
      "inputs": [
        {
          "name": "ticketAddress",
          "type": "address"
        }
      ],
      "name": "askRefund",
      "outputs": [],
      "payable": false,
      "stateMutability": "nonpayable",
      "type": "function"
    },
    {
      "constant": true,
      "inputs": [],
      "name": "getTickets",
      "outputs": [
        {
          "name": "",
          "type": "address[]"
        }
      ],
      "payable": false,
      "stateMutability": "view",
      "type": "function"
    },
    {
      "constant": true,
      "inputs": [],
      "name": "getId",
      "outputs": [
        {
          "name": "",
          "type": "bytes32"
        }
      ],
      "payable": false,
      "stateMutability": "view",
      "type": "function"
    },
    {
      "constant": true,
      "inputs": [],
      "name": "owner",
      "outputs": [
        {
          "name": "",
          "type": "address"
        }
      ],
      "payable": false,
      "stateMutability": "view",
      "type": "function"
    },
    {
      "constant": false,
      "inputs": [
        {
          "name": "eventAddress",
          "type": "address"
        },
        {
          "name": "ticketType",
          "type": "uint8"
        },
        {
          "name": "amount",
          "type": "uint8"
        }
      ],
      "name": "buyTicket",
      "outputs": [],
      "payable": false,
      "stateMutability": "nonpayable",
      "type": "function"
    },
    {
      "constant": false,
      "inputs": [
        {
          "name": "eventAddress",
          "type": "address"
        }
      ],
      "name": "redButton",
      "outputs": [],
      "payable": false,
      "stateMutability": "nonpayable",
      "type": "function"
    },
    {
      "constant": false,
      "inputs": [
        {
          "name": "newOwner",
          "type": "address"
        }
      ],
      "name": "transferOwnership",
      "outputs": [],
      "payable": false,
      "stateMutability": "nonpayable",
      "type": "function"
    },
    {
      "inputs": [
        {
          "name": "_owner",
          "type": "address"
        },
        {
          "name": "_id",
          "type": "bytes32"
        }
      ],
      "payable": false,
      "stateMutability": "nonpayable",
      "type": "constructor"
    },
    {
      "anonymous": false,
      "inputs": [
        {
          "indexed": true,
          "name": "previousOwner",
          "type": "address"
        },
        {
          "indexed": true,
          "name": "newOwner",
          "type": "address"
        }
      ],
      "name": "OwnershipTransferred",
      "type": "event"
    }
  ],
  "bytecode": "0x6060604052341561000f57600080fd5b60405160408061087283398101604052808051906020019091908051906020019091905050818181806000806101000a81548173ffffffffffffffffffffffffffffffffffffffff021916908373ffffffffffffffffffffffffffffffffffffffff16021790555050816000806101000a81548173ffffffffffffffffffffffffffffffffffffffff021916908373ffffffffffffffffffffffffffffffffffffffff16021790555080600181600019169055505050505061079c806100d66000396000f30060606040526004361061008e576000357c0100000000000000000000000000000000000000000000000000000000900463ffffffff16806334527097146100935780634dffdab7146100d95780634ed02622146101125780635d1ca6311461017c5780638da5cb5b146101ad5780639bdd779c14610202578063dc6dfaaf14610253578063f2fde38b1461028c575b600080fd5b341561009e57600080fd5b6100d7600480803573ffffffffffffffffffffffffffffffffffffffff1690602001909190803561ffff169060200190919050506102c5565b005b34156100e457600080fd5b610110600480803573ffffffffffffffffffffffffffffffffffffffff169060200190919050506103c5565b005b341561011d57600080fd5b6101256103c8565b6040518080602001828103825283818151815260200191508051906020019060200280838360005b8381101561016857808201518184015260208101905061014d565b505050509050019250505060405180910390f35b341561018757600080fd5b61018f61045c565b60405180826000191660001916815260200191505060405180910390f35b34156101b857600080fd5b6101c0610466565b604051808273ffffffffffffffffffffffffffffffffffffffff1673ffffffffffffffffffffffffffffffffffffffff16815260200191505060405180910390f35b341561020d57600080fd5b610251600480803573ffffffffffffffffffffffffffffffffffffffff1690602001909190803560ff1690602001909190803560ff1690602001909190505061048b565b005b341561025e57600080fd5b61028a600480803573ffffffffffffffffffffffffffffffffffffffff16906020019091905050610587565b005b341561029757600080fd5b6102c3600480803573ffffffffffffffffffffffffffffffffffffffff16906020019091905050610607565b005b60008060009054906101000a900473ffffffffffffffffffffffffffffffffffffffff1673ffffffffffffffffffffffffffffffffffffffff163373ffffffffffffffffffffffffffffffffffffffff1614151561032257600080fd5b8290508073ffffffffffffffffffffffffffffffffffffffff166389fcdbc5836000604051602001526040518263ffffffff167c0100000000000000000000000000000000000000000000000000000000028152600401808261ffff1661ffff168152602001915050602060405180830381600087803b15156103a457600080fd5b6102c65a03f115156103b557600080fd5b5050506040518051905050505050565b50565b6103d061075c565b600280548060200260200160405190810160405280929190818152602001828054801561045257602002820191906000526020600020905b8160009054906101000a900473ffffffffffffffffffffffffffffffffffffffff1673ffffffffffffffffffffffffffffffffffffffff1681526020019060010190808311610408575b5050505050905090565b6000600154905090565b6000809054906101000a900473ffffffffffffffffffffffffffffffffffffffff1681565b60008060009054906101000a900473ffffffffffffffffffffffffffffffffffffffff1673ffffffffffffffffffffffffffffffffffffffff163373ffffffffffffffffffffffffffffffffffffffff161415156104e857600080fd5b8390508073ffffffffffffffffffffffffffffffffffffffff16635fd8401284846040518363ffffffff167c0100000000000000000000000000000000000000000000000000000000028152600401808360ff1660ff1681526020018260ff1660ff16815260200192505050600060405180830381600087803b151561056d57600080fd5b6102c65a03f1151561057e57600080fd5b50505050505050565b60008190508073ffffffffffffffffffffffffffffffffffffffff16639d3e58786040518163ffffffff167c0100000000000000000000000000000000000000000000000000000000028152600401600060405180830381600087803b15156105ef57600080fd5b6102c65a03f1151561060057600080fd5b5050505050565b6000809054906101000a900473ffffffffffffffffffffffffffffffffffffffff1673ffffffffffffffffffffffffffffffffffffffff163373ffffffffffffffffffffffffffffffffffffffff1614151561066257600080fd5b600073ffffffffffffffffffffffffffffffffffffffff168173ffffffffffffffffffffffffffffffffffffffff161415151561069e57600080fd5b8073ffffffffffffffffffffffffffffffffffffffff166000809054906101000a900473ffffffffffffffffffffffffffffffffffffffff1673ffffffffffffffffffffffffffffffffffffffff167f8be0079c531659141344cd1fd0a4f28419497f9722a3daafe3b4186f6b6457e060405160405180910390a3806000806101000a81548173ffffffffffffffffffffffffffffffffffffffff021916908373ffffffffffffffffffffffffffffffffffffffff16021790555050565b6020604051908101604052806000815250905600a165627a7a72305820570236d51368ccd23fd9ec209fcf4c4ecfa75bb1fbe432ca996e9911325fcf880029",
  "source": "import \"./User.sol\";\r\nimport \"./../event/Event.sol\";\r\nimport \"./../token/TicketToken.sol\";\r\n\r\ncontract BasicUser is User {\r\n    \r\n    address[] tickets;\r\n    \r\n    function BasicUser(address _owner, bytes32 _id) User (_owner, _id) {\r\n        \r\n    }\r\n    \r\n    function getTickets() constant returns (address[]) {\r\n        return tickets;\r\n    }\r\n    \r\n    function buyTicket(address eventAddress, uint8 ticketType, uint8 amount) onlyOwner public {\r\n        Event e = Event(eventAddress);\r\n        e.buyTickets(ticketType, amount);\r\n    }\r\n    \r\n    function resellTicket(address ticketAddress, uint16 value) onlyOwner public {\r\n        TicketToken t = TicketToken(ticketAddress);\r\n        t.approve(value);\r\n        \r\n    }\r\n    \r\n    function redButton(address eventAddress) {\r\n        Event e = Event(eventAddress);\r\n        e.redButton();\r\n    }\r\n\r\n    function askRefund(address ticketAddress) {\r\n        \r\n    }\r\n}",
  "sourcePath": "C:\\Users\\Elias\\Documents\\GitHub\\pae-team-repo\\contracts\\user\\BasicUser.sol",
  "compiler": {
    "name": "solc",
    "version": "0.4.18+commit.9cf6e910.Emscripten.clang"
  },
  "schemaVersion": "1.0.1",
  "updatedAt": "2017-12-11T16:18:49.140Z"
}