{
  "contractName": "BSTokenBanking",
  "abi": [
    {
      "constant": true,
      "inputs": [],
      "name": "tokenData",
      "outputs": [
        {
          "name": "",
          "type": "address"
        }
      ],
      "payable": false,
      "stateMutability": "view",
      "type": "function"
    },
    {
      "constant": false,
      "inputs": [
        {
          "name": "sender",
          "type": "address"
        },
        {
          "name": "amount",
          "type": "uint256"
        }
      ],
      "name": "cashIn",
      "outputs": [],
      "payable": false,
      "stateMutability": "nonpayable",
      "type": "function"
    },
    {
      "constant": false,
      "inputs": [
        {
          "name": "amount",
          "type": "uint256"
        },
        {
          "name": "bankAccount",
          "type": "string"
        }
      ],
      "name": "cashOut",
      "outputs": [],
      "payable": false,
      "stateMutability": "nonpayable",
      "type": "function"
    },
    {
      "inputs": [
        {
          "name": "bsTokenDataAddress",
          "type": "address"
        },
        {
          "name": "permissionManagerAddress",
          "type": "address"
        }
      ],
      "payable": false,
      "stateMutability": "nonpayable",
      "type": "constructor"
    },
    {
      "anonymous": false,
      "inputs": [
        {
          "indexed": true,
          "name": "receiver",
          "type": "address"
        },
        {
          "indexed": false,
          "name": "amount",
          "type": "uint256"
        },
        {
          "indexed": false,
          "name": "bankAccount",
          "type": "string"
        }
      ],
      "name": "CashOut",
      "type": "event"
    }
  ],
  "bytecode": "0x6060604052341561000f57600080fd5b604051604080610c318339810160405280805190602001909190805190602001909190505081600160006101000a81548173ffffffffffffffffffffffffffffffffffffffff021916908373ffffffffffffffffffffffffffffffffffffffff1602179055506100918161009864010000000002610ad8176401000000009004565b50506100db565b806000806101000a81548173ffffffffffffffffffffffffffffffffffffffff021916908373ffffffffffffffffffffffffffffffffffffffff16021790555050565b610b47806100ea6000396000f300606060405260043610610057576000357c0100000000000000000000000000000000000000000000000000000000900463ffffffff168063024fd6501461005c5780633138809d146100b15780634c54b44f146100f3575b600080fd5b341561006757600080fd5b61006f610159565b604051808273ffffffffffffffffffffffffffffffffffffffff1673ffffffffffffffffffffffffffffffffffffffff16815260200191505060405180910390f35b34156100bc57600080fd5b6100f1600480803573ffffffffffffffffffffffffffffffffffffffff1690602001909190803590602001909190505061017f565b005b34156100fe57600080fd5b610157600480803590602001909190803590602001908201803590602001908080601f01602080910402602001604051908101604052809392919081815260200183838082843782019150505050505091905050610626565b005b600160009054906101000a900473ffffffffffffffffffffffffffffffffffffffff1681565b6000809054906101000a900473ffffffffffffffffffffffffffffffffffffffff1673ffffffffffffffffffffffffffffffffffffffff1663d16657216000809054906101000a900473ffffffffffffffffffffffffffffffffffffffff1673ffffffffffffffffffffffffffffffffffffffff1663e53d0546336000604051602001526040518263ffffffff167c0100000000000000000000000000000000000000000000000000000000028152600401808273ffffffffffffffffffffffffffffffffffffffff1673ffffffffffffffffffffffffffffffffffffffff168152602001915050602060405180830381600087803b151561028057600080fd5b6102c65a03f1151561029157600080fd5b505050604051805190506000604051602001526040518263ffffffff167c010000000000000000000000000000000000000000000000000000000002815260040180828152602001915050602060405180830381600087803b15156102f557600080fd5b6102c65a03f1151561030657600080fd5b50505060405180519050151561031b57600080fd5b600160009054906101000a900473ffffffffffffffffffffffffffffffffffffffff1673ffffffffffffffffffffffffffffffffffffffff1663e30443bc8383600160009054906101000a900473ffffffffffffffffffffffffffffffffffffffff1673ffffffffffffffffffffffffffffffffffffffff1663f8b2cb4f876000604051602001526040518263ffffffff167c0100000000000000000000000000000000000000000000000000000000028152600401808273ffffffffffffffffffffffffffffffffffffffff1673ffffffffffffffffffffffffffffffffffffffff168152602001915050602060405180830381600087803b151561042057600080fd5b6102c65a03f1151561043157600080fd5b50505060405180519050016040518363ffffffff167c0100000000000000000000000000000000000000000000000000000000028152600401808373ffffffffffffffffffffffffffffffffffffffff1673ffffffffffffffffffffffffffffffffffffffff16815260200182815260200192505050600060405180830381600087803b15156104c057600080fd5b6102c65a03f115156104d157600080fd5b505050600160009054906101000a900473ffffffffffffffffffffffffffffffffffffffff1673ffffffffffffffffffffffffffffffffffffffff1663f7ea7a3d82600160009054906101000a900473ffffffffffffffffffffffffffffffffffffffff1673ffffffffffffffffffffffffffffffffffffffff1663c4e41b226000604051602001526040518163ffffffff167c0100000000000000000000000000000000000000000000000000000000028152600401602060405180830381600087803b15156105a157600080fd5b6102c65a03f115156105b257600080fd5b50505060405180519050016040518263ffffffff167c010000000000000000000000000000000000000000000000000000000002815260040180828152602001915050600060405180830381600087803b151561060e57600080fd5b6102c65a03f1151561061f57600080fd5b5050505050565b600160009054906101000a900473ffffffffffffffffffffffffffffffffffffffff1673ffffffffffffffffffffffffffffffffffffffff1663f8b2cb4f336000604051602001526040518263ffffffff167c0100000000000000000000000000000000000000000000000000000000028152600401808273ffffffffffffffffffffffffffffffffffffffff1673ffffffffffffffffffffffffffffffffffffffff168152602001915050602060405180830381600087803b15156106eb57600080fd5b6102c65a03f115156106fc57600080fd5b5050506040518051905082111561071257600080fd5b600160009054906101000a900473ffffffffffffffffffffffffffffffffffffffff1673ffffffffffffffffffffffffffffffffffffffff1663e30443bc3384600160009054906101000a900473ffffffffffffffffffffffffffffffffffffffff1673ffffffffffffffffffffffffffffffffffffffff1663f8b2cb4f336000604051602001526040518263ffffffff167c0100000000000000000000000000000000000000000000000000000000028152600401808273ffffffffffffffffffffffffffffffffffffffff1673ffffffffffffffffffffffffffffffffffffffff168152602001915050602060405180830381600087803b151561081757600080fd5b6102c65a03f1151561082857600080fd5b50505060405180519050036040518363ffffffff167c0100000000000000000000000000000000000000000000000000000000028152600401808373ffffffffffffffffffffffffffffffffffffffff1673ffffffffffffffffffffffffffffffffffffffff16815260200182815260200192505050600060405180830381600087803b15156108b757600080fd5b6102c65a03f115156108c857600080fd5b505050600160009054906101000a900473ffffffffffffffffffffffffffffffffffffffff1673ffffffffffffffffffffffffffffffffffffffff1663f7ea7a3d83600160009054906101000a900473ffffffffffffffffffffffffffffffffffffffff1673ffffffffffffffffffffffffffffffffffffffff1663c4e41b226000604051602001526040518163ffffffff167c0100000000000000000000000000000000000000000000000000000000028152600401602060405180830381600087803b151561099857600080fd5b6102c65a03f115156109a957600080fd5b50505060405180519050036040518263ffffffff167c010000000000000000000000000000000000000000000000000000000002815260040180828152602001915050600060405180830381600087803b1515610a0557600080fd5b6102c65a03f11515610a1657600080fd5b5050503373ffffffffffffffffffffffffffffffffffffffff167f40c033f622a854ff4d840abeac43d87366f850eabab61eacfd857351e6ffae4683836040518083815260200180602001828103825283818151815260200191508051906020019080838360005b83811015610a99578082015181840152602081019050610a7e565b50505050905090810190601f168015610ac65780820380516001836020036101000a031916815260200191505b50935050505060405180910390a25050565b806000806101000a81548173ffffffffffffffffffffffffffffffffffffffff021916908373ffffffffffffffffffffffffffffffffffffffff160217905550505600a165627a7a7230582084377e537c331dd8e7dd65d324eafc879038dcf99d76f0b52df01926f6e492c30029",
  "source": "pragma solidity ^0.4.2;\r\n\r\nimport \"./Admin.sol\";\r\nimport \"./BSTokenData.sol\";\r\n\r\ncontract BSTokenBanking is Admin {\r\n    BSTokenData public tokenData;\r\n\r\n    event CashOut(address indexed receiver, uint256 amount, string bankAccount);\r\n\r\n    function BSTokenBanking(address bsTokenDataAddress, address permissionManagerAddress) {\r\n        tokenData = BSTokenData(bsTokenDataAddress);\r\n        super.init(permissionManagerAddress);\r\n    }\r\n\r\n    function cashOut(uint256 amount, string bankAccount) {\r\n        if(amount > tokenData.getBalance(msg.sender)) {\r\n            throw;\r\n        }\r\n\r\n        tokenData.setBalance(msg.sender, tokenData.getBalance(msg.sender) - amount);\r\n        tokenData.setTotalSupply(tokenData.getTotalSupply() - amount);\r\n        CashOut(msg.sender, amount, bankAccount);\r\n    }\r\n\r\n    function cashIn(address sender, uint256 amount) onlyAdmin {\r\n        tokenData.setBalance(sender, tokenData.getBalance(sender) + amount);\r\n        tokenData.setTotalSupply(tokenData.getTotalSupply() + amount);\r\n    }\r\n}",
  "sourcePath": "C:\\Users\\Elias\\Documents\\GitHub\\pae-team-repo\\contracts\\bs-token\\BSTokenBanking.sol",
  "compiler": {
    "name": "solc",
    "version": "0.4.18+commit.9cf6e910.Emscripten.clang"
  },
  "schemaVersion": "1.0.1",
  "updatedAt": "2017-12-11T16:18:49.060Z"
}