{
  "contractName": "EventData",
  "abi": [
    {
      "constant": true,
      "inputs": [],
      "name": "getTotalTickets",
      "outputs": [
        {
          "name": "",
          "type": "uint256"
        }
      ],
      "payable": false,
      "stateMutability": "view",
      "type": "function"
    },
    {
      "constant": true,
      "inputs": [],
      "name": "duration",
      "outputs": [
        {
          "name": "",
          "type": "uint256"
        }
      ],
      "payable": false,
      "stateMutability": "view",
      "type": "function"
    },
    {
      "constant": true,
      "inputs": [],
      "name": "getRedButtonCount",
      "outputs": [
        {
          "name": "",
          "type": "uint16"
        }
      ],
      "payable": false,
      "stateMutability": "view",
      "type": "function"
    },
    {
      "constant": true,
      "inputs": [
        {
          "name": "_organizer",
          "type": "address"
        }
      ],
      "name": "getOrganizerInfo",
      "outputs": [
        {
          "name": "",
          "type": "uint256"
        },
        {
          "name": "",
          "type": "uint16"
        }
      ],
      "payable": false,
      "stateMutability": "view",
      "type": "function"
    },
    {
      "constant": true,
      "inputs": [],
      "name": "getNumberTickets",
      "outputs": [
        {
          "name": "",
          "type": "uint256"
        }
      ],
      "payable": false,
      "stateMutability": "view",
      "type": "function"
    },
    {
      "constant": true,
      "inputs": [],
      "name": "date",
      "outputs": [
        {
          "name": "",
          "type": "uint256"
        }
      ],
      "payable": false,
      "stateMutability": "view",
      "type": "function"
    },
    {
      "constant": false,
      "inputs": [
        {
          "name": "_organizer",
          "type": "address"
        },
        {
          "name": "_percentage",
          "type": "uint16"
        }
      ],
      "name": "addOrganizer",
      "outputs": [],
      "payable": false,
      "stateMutability": "nonpayable",
      "type": "function"
    },
    {
      "constant": true,
      "inputs": [],
      "name": "getDate",
      "outputs": [
        {
          "name": "",
          "type": "uint256"
        }
      ],
      "payable": false,
      "stateMutability": "view",
      "type": "function"
    },
    {
      "constant": true,
      "inputs": [],
      "name": "getId",
      "outputs": [
        {
          "name": "",
          "type": "uint256"
        }
      ],
      "payable": false,
      "stateMutability": "view",
      "type": "function"
    },
    {
      "constant": false,
      "inputs": [
        {
          "name": "_eventStatus",
          "type": "uint8"
        }
      ],
      "name": "setEventStatus",
      "outputs": [],
      "payable": false,
      "stateMutability": "nonpayable",
      "type": "function"
    },
    {
      "constant": false,
      "inputs": [
        {
          "name": "_ticket",
          "type": "address"
        }
      ],
      "name": "addTicket",
      "outputs": [],
      "payable": false,
      "stateMutability": "nonpayable",
      "type": "function"
    },
    {
      "constant": true,
      "inputs": [
        {
          "name": "i",
          "type": "uint256"
        }
      ],
      "name": "getOrganizerAt",
      "outputs": [
        {
          "name": "",
          "type": "address"
        }
      ],
      "payable": false,
      "stateMutability": "view",
      "type": "function"
    },
    {
      "constant": false,
      "inputs": [
        {
          "name": "_value",
          "type": "uint16"
        }
      ],
      "name": "redButtonPressed",
      "outputs": [],
      "payable": false,
      "stateMutability": "nonpayable",
      "type": "function"
    },
    {
      "constant": true,
      "inputs": [],
      "name": "eventStatus",
      "outputs": [
        {
          "name": "",
          "type": "uint8"
        }
      ],
      "payable": false,
      "stateMutability": "view",
      "type": "function"
    },
    {
      "constant": true,
      "inputs": [],
      "name": "getDuration",
      "outputs": [
        {
          "name": "",
          "type": "uint256"
        }
      ],
      "payable": false,
      "stateMutability": "view",
      "type": "function"
    },
    {
      "constant": true,
      "inputs": [],
      "name": "id",
      "outputs": [
        {
          "name": "",
          "type": "uint256"
        }
      ],
      "payable": false,
      "stateMutability": "view",
      "type": "function"
    },
    {
      "constant": false,
      "inputs": [
        {
          "name": "_organizer",
          "type": "address"
        },
        {
          "name": "_status",
          "type": "uint8"
        },
        {
          "name": "_percentage",
          "type": "uint16"
        }
      ],
      "name": "setOrganizerInfo",
      "outputs": [],
      "payable": false,
      "stateMutability": "nonpayable",
      "type": "function"
    },
    {
      "constant": false,
      "inputs": [],
      "name": "selfDestructLogic",
      "outputs": [],
      "payable": false,
      "stateMutability": "nonpayable",
      "type": "function"
    },
    {
      "constant": false,
      "inputs": [],
      "name": "getEventStatus",
      "outputs": [
        {
          "name": "",
          "type": "uint8"
        }
      ],
      "payable": false,
      "stateMutability": "nonpayable",
      "type": "function"
    },
    {
      "constant": true,
      "inputs": [],
      "name": "getNumberOrganizers",
      "outputs": [
        {
          "name": "",
          "type": "uint256"
        }
      ],
      "payable": false,
      "stateMutability": "view",
      "type": "function"
    },
    {
      "constant": false,
      "inputs": [
        {
          "name": "_date",
          "type": "uint256"
        }
      ],
      "name": "setDate",
      "outputs": [],
      "payable": false,
      "stateMutability": "nonpayable",
      "type": "function"
    },
    {
      "constant": false,
      "inputs": [
        {
          "name": "_event",
          "type": "address"
        }
      ],
      "name": "addLogics",
      "outputs": [],
      "payable": false,
      "stateMutability": "nonpayable",
      "type": "function"
    },
    {
      "constant": true,
      "inputs": [
        {
          "name": "i",
          "type": "uint256"
        }
      ],
      "name": "getTicketAt",
      "outputs": [
        {
          "name": "",
          "type": "address"
        }
      ],
      "payable": false,
      "stateMutability": "view",
      "type": "function"
    },
    {
      "constant": true,
      "inputs": [
        {
          "name": "",
          "type": "address"
        }
      ],
      "name": "organizersInfo",
      "outputs": [
        {
          "name": "status",
          "type": "uint8"
        },
        {
          "name": "percentage",
          "type": "uint16"
        }
      ],
      "payable": false,
      "stateMutability": "view",
      "type": "function"
    },
    {
      "constant": false,
      "inputs": [
        {
          "name": "_duration",
          "type": "uint256"
        }
      ],
      "name": "setDuration",
      "outputs": [],
      "payable": false,
      "stateMutability": "nonpayable",
      "type": "function"
    },
    {
      "inputs": [
        {
          "name": "_id",
          "type": "uint256"
        }
      ],
      "payable": false,
      "stateMutability": "nonpayable",
      "type": "constructor"
    }
  ],
  "bytecode": "0x60606040526000600860006101000a81548161ffff021916908361ffff1602179055506000600955341561003257600080fd5b604051602080610fb8833981016040528080519060200190919050508060018190555060016000803373ffffffffffffffffffffffffffffffffffffffff1673ffffffffffffffffffffffffffffffffffffffff16815260200190815260200160002060006101000a81548160ff02191690831515021790555050610efc806100bc6000396000f300606060405260043610610149576000357c0100000000000000000000000000000000000000000000000000000000900463ffffffff16806306e8337f1461014e5780630fb5a6b4146101775780631f2b0483146101a057806326789d56146101d15780632a7c586e1461022d578063323046b1146102565780633bbb38561461027f578063430fe9c1146102c55780635d1ca631146102ee5780636bacc355146103175780637237a4b61461033d5780637684cb241461037657806395cc35dc146103d95780639851fd9a14610400578063ad2e8c9b14610437578063af640d0f14610460578063b6a5173414610489578063b6db911c146104db578063b75b25ec146104f0578063bfa8b9401461051f578063d04e48f114610548578063dd74d3651461056b578063e77b9d82146105a4578063f61b21a914610607578063f6be71d114610671575b600080fd5b341561015957600080fd5b610161610694565b6040518082815260200191505060405180910390f35b341561018257600080fd5b61018a61069e565b6040518082815260200191505060405180910390f35b34156101ab57600080fd5b6101b36106a4565b604051808261ffff1661ffff16815260200191505060405180910390f35b34156101dc57600080fd5b610208600480803573ffffffffffffffffffffffffffffffffffffffff169060200190919050506106bc565b604051808381526020018261ffff1661ffff1681526020019250505060405180910390f35b341561023857600080fd5b610240610774565b6040518082815260200191505060405180910390f35b341561026157600080fd5b610269610781565b6040518082815260200191505060405180910390f35b341561028a57600080fd5b6102c3600480803573ffffffffffffffffffffffffffffffffffffffff1690602001909190803561ffff16906020019091905050610787565b005b34156102d057600080fd5b6102d86108ac565b6040518082815260200191505060405180910390f35b34156102f957600080fd5b6103016108b6565b6040518082815260200191505060405180910390f35b341561032257600080fd5b61033b600480803560ff169060200190919050506108c0565b005b341561034857600080fd5b610374600480803573ffffffffffffffffffffffffffffffffffffffff1690602001909190505061094b565b005b341561038157600080fd5b6103976004808035906020019091905050610a4b565b604051808273ffffffffffffffffffffffffffffffffffffffff1673ffffffffffffffffffffffffffffffffffffffff16815260200191505060405180910390f35b34156103e457600080fd5b6103fe600480803561ffff16906020019091905050610a8f565b005b341561040b57600080fd5b610413610ac2565b6040518082600881111561042357fe5b60ff16815260200191505060405180910390f35b341561044257600080fd5b61044a610ad5565b6040518082815260200191505060405180910390f35b341561046b57600080fd5b610473610adf565b6040518082815260200191505060405180910390f35b341561049457600080fd5b6104d9600480803573ffffffffffffffffffffffffffffffffffffffff1690602001909190803560ff1690602001909190803561ffff16906020019091905050610ae5565b005b34156104e657600080fd5b6104ee610baa565b005b34156104fb57600080fd5b610503610c5a565b604051808260ff1660ff16815260200191505060405180910390f35b341561052a57600080fd5b610532610c7c565b6040518082815260200191505060405180910390f35b341561055357600080fd5b6105696004808035906020019091905050610c89565b005b341561057657600080fd5b6105a2600480803573ffffffffffffffffffffffffffffffffffffffff16906020019091905050610cea565b005b34156105af57600080fd5b6105c56004808035906020019091905050610d9b565b604051808273ffffffffffffffffffffffffffffffffffffffff1673ffffffffffffffffffffffffffffffffffffffff16815260200191505060405180910390f35b341561061257600080fd5b61063e600480803573ffffffffffffffffffffffffffffffffffffffff16906020019091905050610ddf565b6040518083600381111561064e57fe5b60ff1681526020018261ffff1661ffff1681526020019250505060405180910390f35b341561067c57600080fd5b6106926004808035906020019091905050610e1e565b005b6000600954905090565b60035481565b6000600860009054906101000a900461ffff16905090565b600080600660008473ffffffffffffffffffffffffffffffffffffffff1673ffffffffffffffffffffffffffffffffffffffff16815260200190815260200160002060000160009054906101000a900460ff16600381111561071a57fe5b600660008573ffffffffffffffffffffffffffffffffffffffff1673ffffffffffffffffffffffffffffffffffffffff16815260200190815260200160002060000160019054906101000a900461ffff1691509150915091565b6000600780549050905090565b60025481565b6005805480600101828161079b9190610e7f565b9160005260206000209001600084909190916101000a81548173ffffffffffffffffffffffffffffffffffffffff021916908373ffffffffffffffffffffffffffffffffffffffff1602179055505060408051908101604052806000600381111561080257fe5b600381111561080d57fe5b81526020018261ffff16815250600660008473ffffffffffffffffffffffffffffffffffffffff1673ffffffffffffffffffffffffffffffffffffffff16815260200190815260200160002060008201518160000160006101000a81548160ff0219169083600381111561087d57fe5b021790555060208201518160000160016101000a81548161ffff021916908361ffff1602179055509050505050565b6000600254905090565b6000600154905090565b6000803373ffffffffffffffffffffffffffffffffffffffff1673ffffffffffffffffffffffffffffffffffffffff16815260200190815260200160002060009054906101000a900460ff16151561091757600080fd5b8060ff16600881111561092657fe5b600460006101000a81548160ff0219169083600881111561094357fe5b021790555050565b6007805480600101828161095f9190610e7f565b9160005260206000209001600083909190916101000a81548173ffffffffffffffffffffffffffffffffffffffff021916908373ffffffffffffffffffffffffffffffffffffffff160217905550508073ffffffffffffffffffffffffffffffffffffffff1663c4e41b226000604051602001526040518163ffffffff167c0100000000000000000000000000000000000000000000000000000000028152600401602060405180830381600087803b1515610a1a57600080fd5b6102c65a03f11515610a2b57600080fd5b5050506040518051905061ffff1660096000828254019250508190555050565b6000600582815481101515610a5c57fe5b906000526020600020900160009054906101000a900473ffffffffffffffffffffffffffffffffffffffff169050919050565b80600860008282829054906101000a900461ffff160192506101000a81548161ffff021916908361ffff16021790555050565b600460009054906101000a900460ff1681565b6000600354905090565b60015481565b60408051908101604052808360ff166003811115610aff57fe5b6003811115610b0a57fe5b81526020018261ffff16815250600660008573ffffffffffffffffffffffffffffffffffffffff1673ffffffffffffffffffffffffffffffffffffffff16815260200190815260200160002060008201518160000160006101000a81548160ff02191690836003811115610b7a57fe5b021790555060208201518160000160016101000a81548161ffff021916908361ffff160217905550905050505050565b6000803373ffffffffffffffffffffffffffffffffffffffff1673ffffffffffffffffffffffffffffffffffffffff16815260200190815260200160002060009054906101000a900460ff161515610c0157600080fd5b60008060003373ffffffffffffffffffffffffffffffffffffffff1673ffffffffffffffffffffffffffffffffffffffff16815260200190815260200160002060006101000a81548160ff021916908315150217905550565b6000600460009054906101000a900460ff166008811115610c7757fe5b905090565b6000600580549050905090565b6000803373ffffffffffffffffffffffffffffffffffffffff1673ffffffffffffffffffffffffffffffffffffffff16815260200190815260200160002060009054906101000a900460ff161515610ce057600080fd5b8060028190555050565b6000803373ffffffffffffffffffffffffffffffffffffffff1673ffffffffffffffffffffffffffffffffffffffff16815260200190815260200160002060009054906101000a900460ff161515610d4157600080fd5b60016000808373ffffffffffffffffffffffffffffffffffffffff1673ffffffffffffffffffffffffffffffffffffffff16815260200190815260200160002060006101000a81548160ff02191690831515021790555050565b6000600782815481101515610dac57fe5b906000526020600020900160009054906101000a900473ffffffffffffffffffffffffffffffffffffffff169050919050565b60066020528060005260406000206000915090508060000160009054906101000a900460ff16908060000160019054906101000a900461ffff16905082565b6000803373ffffffffffffffffffffffffffffffffffffffff1673ffffffffffffffffffffffffffffffffffffffff16815260200190815260200160002060009054906101000a900460ff161515610e7557600080fd5b8060038190555050565b815481835581811511610ea657818360005260206000209182019101610ea59190610eab565b5b505050565b610ecd91905b80821115610ec9576000816000905550600101610eb1565b5090565b905600a165627a7a72305820d02175d113633e2c7ed96656540b6367ef77034235fd762cff48ccdf8ed6d7410029",
  "source": "pragma solidity ^0.4.15;\r\n\r\nimport \"./../ownership/Ownable.sol\";\r\nimport \"./../token/TicketToken.sol\";\r\n\r\ncontract EventData {\r\n\r\n    /* Only logic contracts can interactuate with the token data */\r\n    mapping(address => bool) logics;\r\n\r\n    enum EventStatus {Pending, Accepted, Opened, OnGoing, Finished, Success, Failed, Frozen, Cancelled}\r\n    enum OrganizerStatus {Pending, Accepted, Success, Failed}\r\n\r\n    /* Event Information */\r\n    uint public id;             /* id: identifier of the event (Theorically physical db related) */\r\n    uint public date;           /* date: celebration date of the event */\r\n    uint public duration;       /* duration: duration of the given event */\r\n    EventStatus public eventStatus;\r\n\r\n    /* Organizers Information */\r\n    address[] organizers;\r\n    mapping (address => OrganizerInfo) public organizersInfo;\r\n\r\n    struct OrganizerInfo {\r\n        OrganizerStatus status;\r\n        uint16 percentage;              /* percentage: percentage of earnings he is given */\r\n    }\r\n\r\n    /* Tickets */\r\n    address[] tickets;              /* tickets: collection of all the tickets for a concert */\r\n\r\n    uint16 redButton = 0;\r\n    uint totalTickets = 0;\r\n\r\n    modifier onlyLogic () {\r\n        require(logics[msg.sender]);\r\n        _;\r\n    }\r\n\r\n    function EventData (uint _id) {\r\n        id = _id;\r\n        logics[msg.sender] = true;\r\n    }\r\n\r\n    function addLogics(address _event) onlyLogic {\r\n        logics[_event] = true;\r\n    }\r\n\r\n    function selfDestructLogic() onlyLogic {\r\n        logics[msg.sender] = false;\r\n    }\r\n\r\n    function getId() constant returns (uint) {\r\n        return id;\r\n    }\r\n\r\n    function getDate() constant returns (uint) {\r\n        return date;\r\n    }\r\n\r\n    function setDate(uint _date) onlyLogic {\r\n        date = _date;\r\n    }\r\n\r\n    function getDuration() constant returns (uint) {\r\n       return duration;\r\n    }\r\n\r\n    function setDuration(uint _duration) onlyLogic {\r\n       duration = _duration;\r\n    }\r\n\r\n    function getEventStatus() returns (uint8) {\r\n        return uint8(eventStatus);\r\n    }\r\n\r\n    function setEventStatus(uint8 _eventStatus) onlyLogic {\r\n        eventStatus = EventStatus(_eventStatus);\r\n    }\r\n\r\n    function getNumberOrganizers() constant returns (uint) {\r\n        return organizers.length;\r\n    }\r\n\r\n    function getOrganizerAt(uint i) constant returns (address) {\r\n        return (organizers[i]);\r\n    }\r\n\r\n    function getOrganizerInfo(address _organizer) constant returns (uint, uint16) {\r\n        return (uint(organizersInfo[_organizer].status), organizersInfo[_organizer].percentage);\r\n    }\r\n\r\n    function addOrganizer(address _organizer, uint16 _percentage) {\r\n        organizers.push(_organizer);\r\n        organizersInfo[_organizer] = OrganizerInfo(OrganizerStatus(0), _percentage);\r\n    }\r\n\r\n    function setOrganizerInfo(address _organizer, uint8 _status, uint16 _percentage) {\r\n        organizersInfo[_organizer] = OrganizerInfo(OrganizerStatus(_status), _percentage);\r\n    }\r\n\r\n    function getNumberTickets() constant returns (uint) {\r\n        return tickets.length;\r\n    }\r\n\r\n    function getTicketAt(uint i) constant returns (address) {\r\n        return tickets[i];\r\n    }\r\n\r\n    function addTicket(address _ticket) {\r\n        tickets.push(_ticket);\r\n        totalTickets += TicketToken(_ticket).getTotalSupply();\r\n    }\r\n\r\n    function getTotalTickets() constant returns (uint) {\r\n        return totalTickets;\r\n    }\r\n\r\n    function redButtonPressed(uint16 _value) {\r\n        redButton += _value;\r\n    }\r\n\r\n    function getRedButtonCount() constant returns (uint16) {\r\n        return redButton;\r\n    }\r\n\r\n\r\n}",
  "sourcePath": "C:\\Users\\Elias\\Documents\\GitHub\\pae-team-repo\\contracts\\event\\EventData.sol",
  "compiler": {
    "name": "solc",
    "version": "0.4.18+commit.9cf6e910.Emscripten.clang"
  },
  "schemaVersion": "1.0.1",
  "updatedAt": "2017-12-11T16:18:49.123Z"
}