{
  "contractName": "EventFactory",
  "abi": [
    {
      "constant": true,
      "inputs": [],
      "name": "owner",
      "outputs": [
        {
          "name": "",
          "type": "address"
        }
      ],
      "payable": false,
      "stateMutability": "view",
      "type": "function"
    },
    {
      "constant": false,
      "inputs": [],
      "name": "createEvent",
      "outputs": [
        {
          "name": "",
          "type": "address"
        }
      ],
      "payable": false,
      "stateMutability": "nonpayable",
      "type": "function"
    },
    {
      "constant": false,
      "inputs": [
        {
          "name": "newOwner",
          "type": "address"
        }
      ],
      "name": "transferOwnership",
      "outputs": [],
      "payable": false,
      "stateMutability": "nonpayable",
      "type": "function"
    },
    {
      "inputs": [],
      "payable": false,
      "stateMutability": "nonpayable",
      "type": "constructor"
    },
    {
      "anonymous": false,
      "inputs": [
        {
          "indexed": false,
          "name": "eventAddress",
          "type": "address"
        },
        {
          "indexed": false,
          "name": "owner",
          "type": "address"
        }
      ],
      "name": "EventCreated",
      "type": "event"
    },
    {
      "anonymous": false,
      "inputs": [
        {
          "indexed": true,
          "name": "previousOwner",
          "type": "address"
        },
        {
          "indexed": true,
          "name": "newOwner",
          "type": "address"
        }
      ],
      "name": "OwnershipTransferred",
      "type": "event"
    }
  ],
  "bytecode": "0x6060604052341561000f57600080fd5b33806000806101000a81548173ffffffffffffffffffffffffffffffffffffffff021916908373ffffffffffffffffffffffffffffffffffffffff1602179055505061a814806100606000396000f300606060405260043610610057576000357c0100000000000000000000000000000000000000000000000000000000900463ffffffff1680638da5cb5b1461005c578063b33eb0a0146100b1578063f2fde38b14610106575b600080fd5b341561006757600080fd5b61006f61013f565b604051808273ffffffffffffffffffffffffffffffffffffffff1673ffffffffffffffffffffffffffffffffffffffff16815260200191505060405180910390f35b34156100bc57600080fd5b6100c4610164565b604051808273ffffffffffffffffffffffffffffffffffffffff1673ffffffffffffffffffffffffffffffffffffffff16815260200191505060405180910390f35b341561011157600080fd5b61013d600480803573ffffffffffffffffffffffffffffffffffffffff1690602001909190505061037b565b005b6000809054906101000a900473ffffffffffffffffffffffffffffffffffffffff1681565b60008060006001805490506101776104d0565b80828152602001915050604051809103906000f080151561019757600080fd5b91506000809054906101000a900473ffffffffffffffffffffffffffffffffffffffff1633836101c56104e0565b808473ffffffffffffffffffffffffffffffffffffffff1673ffffffffffffffffffffffffffffffffffffffff1681526020018373ffffffffffffffffffffffffffffffffffffffff1673ffffffffffffffffffffffffffffffffffffffff1681526020018273ffffffffffffffffffffffffffffffffffffffff1673ffffffffffffffffffffffffffffffffffffffff1681526020019350505050604051809103906000f080151561027757600080fd5b90506001805480600101828161028d91906104f0565b9160005260206000209001600083909190916101000a81548173ffffffffffffffffffffffffffffffffffffffff021916908373ffffffffffffffffffffffffffffffffffffffff160217905550507feccebe7b9eb846e30e8b21dfb66cad3313d87176fcd3b0a708737943afdaf8208133604051808373ffffffffffffffffffffffffffffffffffffffff1673ffffffffffffffffffffffffffffffffffffffff1681526020018273ffffffffffffffffffffffffffffffffffffffff1673ffffffffffffffffffffffffffffffffffffffff1681526020019250505060405180910390a1809250505090565b6000809054906101000a900473ffffffffffffffffffffffffffffffffffffffff1673ffffffffffffffffffffffffffffffffffffffff163373ffffffffffffffffffffffffffffffffffffffff161415156103d657600080fd5b600073ffffffffffffffffffffffffffffffffffffffff168173ffffffffffffffffffffffffffffffffffffffff161415151561041257600080fd5b8073ffffffffffffffffffffffffffffffffffffffff166000809054906101000a900473ffffffffffffffffffffffffffffffffffffffff1673ffffffffffffffffffffffffffffffffffffffff167f8be0079c531659141344cd1fd0a4f28419497f9722a3daafe3b4186f6b6457e060405160405180910390a3806000806101000a81548173ffffffffffffffffffffffffffffffffffffffff021916908373ffffffffffffffffffffffffffffffffffffffff16021790555050565b604051610fb88061054283390190565b6040516192ef806114fa83390190565b81548183558181151161051757818360005260206000209182019101610516919061051c565b5b505050565b61053e91905b8082111561053a576000816000905550600101610522565b5090565b90560060606040526000600860006101000a81548161ffff021916908361ffff1602179055506000600955341561003257600080fd5b604051602080610fb8833981016040528080519060200190919050508060018190555060016000803373ffffffffffffffffffffffffffffffffffffffff1673ffffffffffffffffffffffffffffffffffffffff16815260200190815260200160002060006101000a81548160ff02191690831515021790555050610efc806100bc6000396000f300606060405260043610610149576000357c0100000000000000000000000000000000000000000000000000000000900463ffffffff16806306e8337f1461014e5780630fb5a6b4146101775780631f2b0483146101a057806326789d56146101d15780632a7c586e1461022d578063323046b1146102565780633bbb38561461027f578063430fe9c1146102c55780635d1ca631146102ee5780636bacc355146103175780637237a4b61461033d5780637684cb241461037657806395cc35dc146103d95780639851fd9a14610400578063ad2e8c9b14610437578063af640d0f14610460578063b6a5173414610489578063b6db911c146104db578063b75b25ec146104f0578063bfa8b9401461051f578063d04e48f114610548578063dd74d3651461056b578063e77b9d82146105a4578063f61b21a914610607578063f6be71d114610671575b600080fd5b341561015957600080fd5b610161610694565b6040518082815260200191505060405180910390f35b341561018257600080fd5b61018a61069e565b6040518082815260200191505060405180910390f35b34156101ab57600080fd5b6101b36106a4565b604051808261ffff1661ffff16815260200191505060405180910390f35b34156101dc57600080fd5b610208600480803573ffffffffffffffffffffffffffffffffffffffff169060200190919050506106bc565b604051808381526020018261ffff1661ffff1681526020019250505060405180910390f35b341561023857600080fd5b610240610774565b6040518082815260200191505060405180910390f35b341561026157600080fd5b610269610781565b6040518082815260200191505060405180910390f35b341561028a57600080fd5b6102c3600480803573ffffffffffffffffffffffffffffffffffffffff1690602001909190803561ffff16906020019091905050610787565b005b34156102d057600080fd5b6102d86108ac565b6040518082815260200191505060405180910390f35b34156102f957600080fd5b6103016108b6565b6040518082815260200191505060405180910390f35b341561032257600080fd5b61033b600480803560ff169060200190919050506108c0565b005b341561034857600080fd5b610374600480803573ffffffffffffffffffffffffffffffffffffffff1690602001909190505061094b565b005b341561038157600080fd5b6103976004808035906020019091905050610a4b565b604051808273ffffffffffffffffffffffffffffffffffffffff1673ffffffffffffffffffffffffffffffffffffffff16815260200191505060405180910390f35b34156103e457600080fd5b6103fe600480803561ffff16906020019091905050610a8f565b005b341561040b57600080fd5b610413610ac2565b6040518082600881111561042357fe5b60ff16815260200191505060405180910390f35b341561044257600080fd5b61044a610ad5565b6040518082815260200191505060405180910390f35b341561046b57600080fd5b610473610adf565b6040518082815260200191505060405180910390f35b341561049457600080fd5b6104d9600480803573ffffffffffffffffffffffffffffffffffffffff1690602001909190803560ff1690602001909190803561ffff16906020019091905050610ae5565b005b34156104e657600080fd5b6104ee610baa565b005b34156104fb57600080fd5b610503610c5a565b604051808260ff1660ff16815260200191505060405180910390f35b341561052a57600080fd5b610532610c7c565b6040518082815260200191505060405180910390f35b341561055357600080fd5b6105696004808035906020019091905050610c89565b005b341561057657600080fd5b6105a2600480803573ffffffffffffffffffffffffffffffffffffffff16906020019091905050610cea565b005b34156105af57600080fd5b6105c56004808035906020019091905050610d9b565b604051808273ffffffffffffffffffffffffffffffffffffffff1673ffffffffffffffffffffffffffffffffffffffff16815260200191505060405180910390f35b341561061257600080fd5b61063e600480803573ffffffffffffffffffffffffffffffffffffffff16906020019091905050610ddf565b6040518083600381111561064e57fe5b60ff1681526020018261ffff1661ffff1681526020019250505060405180910390f35b341561067c57600080fd5b6106926004808035906020019091905050610e1e565b005b6000600954905090565b60035481565b6000600860009054906101000a900461ffff16905090565b600080600660008473ffffffffffffffffffffffffffffffffffffffff1673ffffffffffffffffffffffffffffffffffffffff16815260200190815260200160002060000160009054906101000a900460ff16600381111561071a57fe5b600660008573ffffffffffffffffffffffffffffffffffffffff1673ffffffffffffffffffffffffffffffffffffffff16815260200190815260200160002060000160019054906101000a900461ffff1691509150915091565b6000600780549050905090565b60025481565b6005805480600101828161079b9190610e7f565b9160005260206000209001600084909190916101000a81548173ffffffffffffffffffffffffffffffffffffffff021916908373ffffffffffffffffffffffffffffffffffffffff1602179055505060408051908101604052806000600381111561080257fe5b600381111561080d57fe5b81526020018261ffff16815250600660008473ffffffffffffffffffffffffffffffffffffffff1673ffffffffffffffffffffffffffffffffffffffff16815260200190815260200160002060008201518160000160006101000a81548160ff0219169083600381111561087d57fe5b021790555060208201518160000160016101000a81548161ffff021916908361ffff1602179055509050505050565b6000600254905090565b6000600154905090565b6000803373ffffffffffffffffffffffffffffffffffffffff1673ffffffffffffffffffffffffffffffffffffffff16815260200190815260200160002060009054906101000a900460ff16151561091757600080fd5b8060ff16600881111561092657fe5b600460006101000a81548160ff0219169083600881111561094357fe5b021790555050565b6007805480600101828161095f9190610e7f565b9160005260206000209001600083909190916101000a81548173ffffffffffffffffffffffffffffffffffffffff021916908373ffffffffffffffffffffffffffffffffffffffff160217905550508073ffffffffffffffffffffffffffffffffffffffff1663c4e41b226000604051602001526040518163ffffffff167c0100000000000000000000000000000000000000000000000000000000028152600401602060405180830381600087803b1515610a1a57600080fd5b6102c65a03f11515610a2b57600080fd5b5050506040518051905061ffff1660096000828254019250508190555050565b6000600582815481101515610a5c57fe5b906000526020600020900160009054906101000a900473ffffffffffffffffffffffffffffffffffffffff169050919050565b80600860008282829054906101000a900461ffff160192506101000a81548161ffff021916908361ffff16021790555050565b600460009054906101000a900460ff1681565b6000600354905090565b60015481565b60408051908101604052808360ff166003811115610aff57fe5b6003811115610b0a57fe5b81526020018261ffff16815250600660008573ffffffffffffffffffffffffffffffffffffffff1673ffffffffffffffffffffffffffffffffffffffff16815260200190815260200160002060008201518160000160006101000a81548160ff02191690836003811115610b7a57fe5b021790555060208201518160000160016101000a81548161ffff021916908361ffff160217905550905050505050565b6000803373ffffffffffffffffffffffffffffffffffffffff1673ffffffffffffffffffffffffffffffffffffffff16815260200190815260200160002060009054906101000a900460ff161515610c0157600080fd5b60008060003373ffffffffffffffffffffffffffffffffffffffff1673ffffffffffffffffffffffffffffffffffffffff16815260200190815260200160002060006101000a81548160ff021916908315150217905550565b6000600460009054906101000a900460ff166008811115610c7757fe5b905090565b6000600580549050905090565b6000803373ffffffffffffffffffffffffffffffffffffffff1673ffffffffffffffffffffffffffffffffffffffff16815260200190815260200160002060009054906101000a900460ff161515610ce057600080fd5b8060028190555050565b6000803373ffffffffffffffffffffffffffffffffffffffff1673ffffffffffffffffffffffffffffffffffffffff16815260200190815260200160002060009054906101000a900460ff161515610d4157600080fd5b60016000808373ffffffffffffffffffffffffffffffffffffffff1673ffffffffffffffffffffffffffffffffffffffff16815260200190815260200160002060006101000a81548160ff02191690831515021790555050565b6000600782815481101515610dac57fe5b906000526020600020900160009054906101000a900473ffffffffffffffffffffffffffffffffffffffff169050919050565b60066020528060005260406000206000915090508060000160009054906101000a900460ff16908060000160019054906101000a900461ffff16905082565b6000803373ffffffffffffffffffffffffffffffffffffffff1673ffffffffffffffffffffffffffffffffffffffff16815260200190815260200160002060009054906101000a900460ff161515610e7557600080fd5b8060038190555050565b815481835581811511610ea657818360005260206000209182019101610ea59190610eab565b5b505050565b610ecd91905b80821115610ec9576000816000905550600101610eb1565b5090565b905600a165627a7a72305820d02175d113633e2c7ed96656540b6367ef77034235fd762cff48ccdf8ed6d74100296060604052341561000f57600080fd5b604051606080620092ef833981016040528080519060200190919080519060200190919080519060200190919050508282816000806101000a81548173ffffffffffffffffffffffffffffffffffffffff021916908373ffffffffffffffffffffffffffffffffffffffff16021790555060018060008373ffffffffffffffffffffffffffffffffffffffff1673ffffffffffffffffffffffffffffffffffffffff16815260200190815260200160002060006101000a81548160ff021916908315150217905550505080600260006101000a81548173ffffffffffffffffffffffffffffffffffffffff021916908373ffffffffffffffffffffffffffffffffffffffff1602179055505050506191c2806200012d6000396000f300606060405260043610610128576000357c0100000000000000000000000000000000000000000000000000000000900463ffffffff16806308dae3fe1461012d5780632852b71c1461016d57806336cbafd0146101825780633bbb38561461019757806340edc9bd146101dd578063474e7563146101f25780635fd84012146102175780636861a296146102495780637cf9bac11461029b5780638da5cb5b146103025780639aa1a591146103575780639d3e58781461036c578063a1dc897e14610381578063acc35667146103aa578063b75b25ec146103d6578063be9a655514610405578063ea8a1af01461041a578063ed25d8b71461042f578063efbe1c1c14610480578063f269b7bf14610495578063fbe915ae146104ce578063fcfff16f146104f3575b600080fd5b341561013857600080fd5b61016b600480803560ff1690602001909190803561ffff1690602001909190803561ffff16906020019091905050610508565b005b341561017857600080fd5b610180610931565b005b341561018d57600080fd5b610195610d78565b005b34156101a257600080fd5b6101db600480803573ffffffffffffffffffffffffffffffffffffffff1690602001909190803561ffff16906020019091905050611075565b005b34156101e857600080fd5b6101f0611306565b005b34156101fd57600080fd5b61021560048080351515906020019091905050611558565b005b341561022257600080fd5b610247600480803560ff1690602001909190803560ff169060200190919050506119d1565b005b341561025457600080fd5b610299600480803573ffffffffffffffffffffffffffffffffffffffff1690602001909190803561ffff1690602001909190803560ff16906020019091905050611c07565b005b34156102a657600080fd5b6102c0600480803561ffff16906020019091905050611dd8565b604051808273ffffffffffffffffffffffffffffffffffffffff1673ffffffffffffffffffffffffffffffffffffffff16815260200191505060405180910390f35b341561030d57600080fd5b610315611e99565b604051808273ffffffffffffffffffffffffffffffffffffffff1673ffffffffffffffffffffffffffffffffffffffff16815260200191505060405180910390f35b341561036257600080fd5b61036a611ebe565b005b341561037757600080fd5b61037f61243b565b005b341561038c57600080fd5b61039461283e565b6040518082815260200191505060405180910390f35b34156103b557600080fd5b6103d460048080359060200190919080359060200190919050506128ee565b005b34156103e157600080fd5b6103e9612bde565b604051808260ff1660ff16815260200191505060405180910390f35b341561041057600080fd5b610418612c8e565b005b341561042557600080fd5b61042d612ea2565b005b341561043a57600080fd5b610466600480803573ffffffffffffffffffffffffffffffffffffffff16906020019091905050613148565b604051808215151515815260200191505060405180910390f35b341561048b57600080fd5b610493613168565b005b34156104a057600080fd5b6104cc600480803573ffffffffffffffffffffffffffffffffffffffff1690602001909190505061332c565b005b34156104d957600080fd5b6104f160048080351515906020019091905050613386565b005b34156104fe57600080fd5b61050661360f565b005b600080600160003373ffffffffffffffffffffffffffffffffffffffff1673ffffffffffffffffffffffffffffffffffffffff16815260200190815260200160002060009054906101000a900460ff16806105af57506000809054906101000a900473ffffffffffffffffffffffffffffffffffffffff1673ffffffffffffffffffffffffffffffffffffffff163373ffffffffffffffffffffffffffffffffffffffff16145b806105e557503073ffffffffffffffffffffffffffffffffffffffff163373ffffffffffffffffffffffffffffffffffffffff16145b15156105f057600080fd5b60008060ff16600260009054906101000a900473ffffffffffffffffffffffffffffffffffffffff1673ffffffffffffffffffffffffffffffffffffffff1663b75b25ec6000604051602001526040518163ffffffff167c0100000000000000000000000000000000000000000000000000000000028152600401602060405180830381600087803b151561068457600080fd5b6102c65a03f1151561069557600080fd5b5050506040518051905060ff161415156106ae57600080fd5b8385876106b9613ff2565b808461ffff1661ffff1681526020018361ffff1661ffff1681526020018260ff1660ff1681526020019350505050604051809103906000f08015156106fd57600080fd5b92506000809054906101000a900473ffffffffffffffffffffffffffffffffffffffff168361072a614002565b808373ffffffffffffffffffffffffffffffffffffffff1673ffffffffffffffffffffffffffffffffffffffff1681526020018273ffffffffffffffffffffffffffffffffffffffff1673ffffffffffffffffffffffffffffffffffffffff16815260200192505050604051809103906000f08015156107a957600080fd5b91508273ffffffffffffffffffffffffffffffffffffffff166379ef704e836040518263ffffffff167c0100000000000000000000000000000000000000000000000000000000028152600401808273ffffffffffffffffffffffffffffffffffffffff1673ffffffffffffffffffffffffffffffffffffffff168152602001915050600060405180830381600087803b151561084557600080fd5b6102c65a03f1151561085657600080fd5b505050600260009054906101000a900473ffffffffffffffffffffffffffffffffffffffff1673ffffffffffffffffffffffffffffffffffffffff16637237a4b6836040518263ffffffff167c0100000000000000000000000000000000000000000000000000000000028152600401808273ffffffffffffffffffffffffffffffffffffffff1673ffffffffffffffffffffffffffffffffffffffff168152602001915050600060405180830381600087803b151561091557600080fd5b6102c65a03f1151561092657600080fd5b505050505050505050565b600080600160003373ffffffffffffffffffffffffffffffffffffffff1673ffffffffffffffffffffffffffffffffffffffff16815260200190815260200160002060009054906101000a900460ff16806109d857506000809054906101000a900473ffffffffffffffffffffffffffffffffffffffff1673ffffffffffffffffffffffffffffffffffffffff163373ffffffffffffffffffffffffffffffffffffffff16145b80610a0e57503073ffffffffffffffffffffffffffffffffffffffff163373ffffffffffffffffffffffffffffffffffffffff16145b1515610a1957600080fd5b60008060ff16600260009054906101000a900473ffffffffffffffffffffffffffffffffffffffff1673ffffffffffffffffffffffffffffffffffffffff1663b75b25ec6000604051602001526040518163ffffffff167c0100000000000000000000000000000000000000000000000000000000028152600401602060405180830381600087803b1515610aad57600080fd5b6102c65a03f11515610abe57600080fd5b5050506040518051905060ff16141515610ad757600080fd5b600260009054906101000a900473ffffffffffffffffffffffffffffffffffffffff1673ffffffffffffffffffffffffffffffffffffffff166326789d56336000604051604001526040518263ffffffff167c0100000000000000000000000000000000000000000000000000000000028152600401808273ffffffffffffffffffffffffffffffffffffffff1673ffffffffffffffffffffffffffffffffffffffff1681526020019150506040805180830381600087803b1515610b9b57600080fd5b6102c65a03f11515610bac57600080fd5b5050506040518051906020018051905092509250600083141515610bcf57600080fd5b600260009054906101000a900473ffffffffffffffffffffffffffffffffffffffff1673ffffffffffffffffffffffffffffffffffffffff1663b6a51734336001856040518463ffffffff167c0100000000000000000000000000000000000000000000000000000000028152600401808473ffffffffffffffffffffffffffffffffffffffff1673ffffffffffffffffffffffffffffffffffffffff1681526020018360ff1681526020018261ffff1661ffff1681526020019350505050600060405180830381600087803b1515610ca757600080fd5b6102c65a03f11515610cb857600080fd5b505050610cc5600161385d565b15610d7357600260009054906101000a900473ffffffffffffffffffffffffffffffffffffffff1673ffffffffffffffffffffffffffffffffffffffff16636bacc35560016040518263ffffffff167c0100000000000000000000000000000000000000000000000000000000028152600401808260ff168152602001915050600060405180830381600087803b1515610d5e57600080fd5b6102c65a03f11515610d6f57600080fd5b5050505b505050565b600080600080600093505b600260009054906101000a900473ffffffffffffffffffffffffffffffffffffffff1673ffffffffffffffffffffffffffffffffffffffff1663bfa8b9406000604051602001526040518163ffffffff167c0100000000000000000000000000000000000000000000000000000000028152600401602060405180830381600087803b1515610e1157600080fd5b6102c65a03f11515610e2257600080fd5b505050604051805190508460ff16101561106f57600260009054906101000a900473ffffffffffffffffffffffffffffffffffffffff1673ffffffffffffffffffffffffffffffffffffffff16637684cb24856000604051602001526040518263ffffffff167c0100000000000000000000000000000000000000000000000000000000028152600401808260ff168152602001915050602060405180830381600087803b1515610ed257600080fd5b6102c65a03f11515610ee357600080fd5b505050604051805190509250600260009054906101000a900473ffffffffffffffffffffffffffffffffffffffff1673ffffffffffffffffffffffffffffffffffffffff166326789d56846000604051604001526040518263ffffffff167c0100000000000000000000000000000000000000000000000000000000028152600401808273ffffffffffffffffffffffffffffffffffffffff1673ffffffffffffffffffffffffffffffffffffffff1681526020019150506040805180830381600087803b1515610fb357600080fd5b6102c65a03f11515610fc457600080fd5b5050506040518051906020018051905080925081935050507f22bb651d800432f5898c229b604b74dce848a1a7b1ea0f53f9a731250352692184848484604051808560ff1681526020018473ffffffffffffffffffffffffffffffffffffffff1673ffffffffffffffffffffffffffffffffffffffff1681526020018381526020018261ffff1661ffff16815260200194505050505060405180910390a18380600101945050610d83565b50505050565b600160003373ffffffffffffffffffffffffffffffffffffffff1673ffffffffffffffffffffffffffffffffffffffff16815260200190815260200160002060009054906101000a900460ff168061111957506000809054906101000a900473ffffffffffffffffffffffffffffffffffffffff1673ffffffffffffffffffffffffffffffffffffffff163373ffffffffffffffffffffffffffffffffffffffff16145b8061114f57503073ffffffffffffffffffffffffffffffffffffffff163373ffffffffffffffffffffffffffffffffffffffff16145b151561115a57600080fd5b60008060ff16600260009054906101000a900473ffffffffffffffffffffffffffffffffffffffff1673ffffffffffffffffffffffffffffffffffffffff1663b75b25ec6000604051602001526040518163ffffffff167c0100000000000000000000000000000000000000000000000000000000028152600401602060405180830381600087803b15156111ee57600080fd5b6102c65a03f115156111ff57600080fd5b5050506040518051905060ff1614151561121857600080fd5b600260009054906101000a900473ffffffffffffffffffffffffffffffffffffffff1673ffffffffffffffffffffffffffffffffffffffff16633bbb385684846040518363ffffffff167c0100000000000000000000000000000000000000000000000000000000028152600401808373ffffffffffffffffffffffffffffffffffffffff1673ffffffffffffffffffffffffffffffffffffffff1681526020018261ffff1661ffff16815260200192505050600060405180830381600087803b15156112e457600080fd5b6102c65a03f115156112f557600080fd5b5050506113018361332c565b505050565b60008060009054906101000a900473ffffffffffffffffffffffffffffffffffffffff1673ffffffffffffffffffffffffffffffffffffffff163373ffffffffffffffffffffffffffffffffffffffff1614151561136357600080fd5b600090505b600260009054906101000a900473ffffffffffffffffffffffffffffffffffffffff1673ffffffffffffffffffffffffffffffffffffffff16632a7c586e6000604051602001526040518163ffffffff167c0100000000000000000000000000000000000000000000000000000000028152600401602060405180830381600087803b15156113f657600080fd5b6102c65a03f1151561140757600080fd5b505050604051805190508160ff16101561155557600260009054906101000a900473ffffffffffffffffffffffffffffffffffffffff1673ffffffffffffffffffffffffffffffffffffffff1663e77b9d82826000604051602001526040518263ffffffff167c0100000000000000000000000000000000000000000000000000000000028152600401808260ff168152602001915050602060405180830381600087803b15156114b757600080fd5b6102c65a03f115156114c857600080fd5b5050506040518051905073ffffffffffffffffffffffffffffffffffffffff16633f4ba83a6040518163ffffffff167c0100000000000000000000000000000000000000000000000000000000028152600401600060405180830381600087803b151561153457600080fd5b6102c65a03f1151561154557600080fd5b5050508080600101915050611368565b50565b600080600160003373ffffffffffffffffffffffffffffffffffffffff1673ffffffffffffffffffffffffffffffffffffffff16815260200190815260200160002060009054906101000a900460ff16806115ff57506000809054906101000a900473ffffffffffffffffffffffffffffffffffffffff1673ffffffffffffffffffffffffffffffffffffffff163373ffffffffffffffffffffffffffffffffffffffff16145b8061163557503073ffffffffffffffffffffffffffffffffffffffff163373ffffffffffffffffffffffffffffffffffffffff16145b151561164057600080fd5b60048060ff16600260009054906101000a900473ffffffffffffffffffffffffffffffffffffffff1673ffffffffffffffffffffffffffffffffffffffff1663b75b25ec6000604051602001526040518163ffffffff167c0100000000000000000000000000000000000000000000000000000000028152600401602060405180830381600087803b15156116d457600080fd5b6102c65a03f115156116e557600080fd5b5050506040518051905060ff161415156116fe57600080fd5b600260009054906101000a900473ffffffffffffffffffffffffffffffffffffffff1673ffffffffffffffffffffffffffffffffffffffff166326789d56336000604051604001526040518263ffffffff167c0100000000000000000000000000000000000000000000000000000000028152600401808273ffffffffffffffffffffffffffffffffffffffff1673ffffffffffffffffffffffffffffffffffffffff1681526020019150506040805180830381600087803b15156117c257600080fd5b6102c65a03f115156117d357600080fd5b505050604051805190602001805190509250925083156118de57600260009054906101000a900473ffffffffffffffffffffffffffffffffffffffff1673ffffffffffffffffffffffffffffffffffffffff1663b6a51734336002856040518463ffffffff167c0100000000000000000000000000000000000000000000000000000000028152600401808473ffffffffffffffffffffffffffffffffffffffff1673ffffffffffffffffffffffffffffffffffffffff1681526020018360ff1681526020018261ffff1661ffff1681526020019350505050600060405180830381600087803b15156118c557600080fd5b6102c65a03f115156118d657600080fd5b5050506119cb565b600260009054906101000a900473ffffffffffffffffffffffffffffffffffffffff1673ffffffffffffffffffffffffffffffffffffffff1663b6a51734336003856040518463ffffffff167c0100000000000000000000000000000000000000000000000000000000028152600401808473ffffffffffffffffffffffffffffffffffffffff1673ffffffffffffffffffffffffffffffffffffffff1681526020018360ff1681526020018261ffff1661ffff1681526020019350505050600060405180830381600087803b15156119b657600080fd5b6102c65a03f115156119c757600080fd5b5050505b50505050565b60018060ff16600260009054906101000a900473ffffffffffffffffffffffffffffffffffffffff1673ffffffffffffffffffffffffffffffffffffffff1663b75b25ec6000604051602001526040518163ffffffff167c0100000000000000000000000000000000000000000000000000000000028152600401602060405180830381600087803b1515611a6557600080fd5b6102c65a03f11515611a7657600080fd5b5050506040518051905060ff16141515611a8f57600080fd5b600260009054906101000a900473ffffffffffffffffffffffffffffffffffffffff1673ffffffffffffffffffffffffffffffffffffffff1663e77b9d82846000604051602001526040518263ffffffff167c0100000000000000000000000000000000000000000000000000000000028152600401808260ff168152602001915050602060405180830381600087803b1515611b2b57600080fd5b6102c65a03f11515611b3c57600080fd5b5050506040518051905073ffffffffffffffffffffffffffffffffffffffff166384f9b56033846040518363ffffffff167c0100000000000000000000000000000000000000000000000000000000028152600401808373ffffffffffffffffffffffffffffffffffffffff1673ffffffffffffffffffffffffffffffffffffffff1681526020018260ff1661ffff16815260200192505050600060405180830381600087803b1515611bee57600080fd5b6102c65a03f11515611bff57600080fd5b505050505050565b60008060009150600090505b600260009054906101000a900473ffffffffffffffffffffffffffffffffffffffff1673ffffffffffffffffffffffffffffffffffffffff16632a7c586e6000604051602001526040518163ffffffff167c0100000000000000000000000000000000000000000000000000000000028152600401602060405180830381600087803b1515611ca157600080fd5b6102c65a03f11515611cb257600080fd5b505050604051805190508160ff161015611dc5573373ffffffffffffffffffffffffffffffffffffffff16600260009054906101000a900473ffffffffffffffffffffffffffffffffffffffff1673ffffffffffffffffffffffffffffffffffffffff1663e77b9d82836000604051602001526040518263ffffffff167c0100000000000000000000000000000000000000000000000000000000028152600401808260ff168152602001915050602060405180830381600087803b1515611d7957600080fd5b6102c65a03f11515611d8a57600080fd5b5050506040518051905073ffffffffffffffffffffffffffffffffffffffff161491508115611db857611dc5565b8080600101915050611c13565b811515611dd157600080fd5b5050505050565b6000600260009054906101000a900473ffffffffffffffffffffffffffffffffffffffff1673ffffffffffffffffffffffffffffffffffffffff1663e77b9d82836000604051602001526040518263ffffffff167c0100000000000000000000000000000000000000000000000000000000028152600401808261ffff168152602001915050602060405180830381600087803b1515611e7757600080fd5b6102c65a03f11515611e8857600080fd5b505050604051805190509050919050565b6000809054906101000a900473ffffffffffffffffffffffffffffffffffffffff1681565b60008060008060009054906101000a900473ffffffffffffffffffffffffffffffffffffffff1673ffffffffffffffffffffffffffffffffffffffff163373ffffffffffffffffffffffffffffffffffffffff16141515611f1e57600080fd5b60048060ff16600260009054906101000a900473ffffffffffffffffffffffffffffffffffffffff1673ffffffffffffffffffffffffffffffffffffffff1663b75b25ec6000604051602001526040518163ffffffff167c0100000000000000000000000000000000000000000000000000000000028152600401602060405180830381600087803b1515611fb257600080fd5b6102c65a03f11515611fc357600080fd5b5050506040518051905060ff16141515611fdc57600080fd5b611fe6600261385d565b9350611ff2600361385d565b92506004600260009054906101000a900473ffffffffffffffffffffffffffffffffffffffff1673ffffffffffffffffffffffffffffffffffffffff166306e8337f6000604051602001526040518163ffffffff167c0100000000000000000000000000000000000000000000000000000000028152600401602060405180830381600087803b151561208457600080fd5b6102c65a03f1151561209557600080fd5b505050604051805190508115156120a857fe5b04600260009054906101000a900473ffffffffffffffffffffffffffffffffffffffff1673ffffffffffffffffffffffffffffffffffffffff16631f2b04836000604051602001526040518163ffffffff167c0100000000000000000000000000000000000000000000000000000000028152600401602060405180830381600087803b151561213757600080fd5b6102c65a03f1151561214857600080fd5b5050506040518051905061ffff16600260009054906101000a900473ffffffffffffffffffffffffffffffffffffffff1673ffffffffffffffffffffffffffffffffffffffff166306e8337f6000604051602001526040518163ffffffff167c0100000000000000000000000000000000000000000000000000000000028152600401602060405180830381600087803b15156121e457600080fd5b6102c65a03f115156121f557600080fd5b50505060405180519050031115915082156122c757600260009054906101000a900473ffffffffffffffffffffffffffffffffffffffff1673ffffffffffffffffffffffffffffffffffffffff16636bacc35560066040518263ffffffff167c0100000000000000000000000000000000000000000000000000000000028152600401808260ff168152602001915050600060405180830381600087803b151561229e57600080fd5b6102c65a03f115156122af57600080fd5b5050506122ba613b1a565b6122c2613cc6565b612435565b8380156122d15750815b1561238b57600260009054906101000a900473ffffffffffffffffffffffffffffffffffffffff1673ffffffffffffffffffffffffffffffffffffffff16636bacc35560056040518263ffffffff167c0100000000000000000000000000000000000000000000000000000000028152600401808260ff168152602001915050600060405180830381600087803b151561236a57600080fd5b6102c65a03f1151561237b57600080fd5b505050612386613ef7565b612434565b600260009054906101000a900473ffffffffffffffffffffffffffffffffffffffff1673ffffffffffffffffffffffffffffffffffffffff16636bacc35560076040518263ffffffff167c0100000000000000000000000000000000000000000000000000000000028152600401808260ff168152602001915050600060405180830381600087803b151561241f57600080fd5b6102c65a03f1151561243057600080fd5b5050505b5b50505050565b6000806040805190810160405280600360ff168152602001600460ff1681525060008090505b60028160ff16101561254b57818160ff1660028110151561247e57fe5b602002015160ff16600260009054906101000a900473ffffffffffffffffffffffffffffffffffffffff1673ffffffffffffffffffffffffffffffffffffffff1663b75b25ec6000604051602001526040518163ffffffff167c0100000000000000000000000000000000000000000000000000000000028152600401602060405180830381600087803b151561251457600080fd5b6102c65a03f1151561252557600080fd5b5050506040518051905060ff1614151561253e57600080fd5b8080600101915050612461565b60009350600092505b600260009054906101000a900473ffffffffffffffffffffffffffffffffffffffff1673ffffffffffffffffffffffffffffffffffffffff16632a7c586e6000604051602001526040518163ffffffff167c0100000000000000000000000000000000000000000000000000000000028152600401602060405180830381600087803b15156125e257600080fd5b6102c65a03f115156125f357600080fd5b505050604051805190508360ff16101561278c57600260009054906101000a900473ffffffffffffffffffffffffffffffffffffffff1673ffffffffffffffffffffffffffffffffffffffff1663e77b9d82846000604051602001526040518263ffffffff167c0100000000000000000000000000000000000000000000000000000000028152600401808260ff168152602001915050602060405180830381600087803b15156126a357600080fd5b6102c65a03f115156126b457600080fd5b5050506040518051905073ffffffffffffffffffffffffffffffffffffffff1663dc6dfaaf336000604051602001526040518263ffffffff167c0100000000000000000000000000000000000000000000000000000000028152600401808273ffffffffffffffffffffffffffffffffffffffff1673ffffffffffffffffffffffffffffffffffffffff168152602001915050602060405180830381600087803b151561276057600080fd5b6102c65a03f1151561277157600080fd5b50505060405180519050840193508280600101935050612554565b600260009054906101000a900473ffffffffffffffffffffffffffffffffffffffff1673ffffffffffffffffffffffffffffffffffffffff166395cc35dc856040518263ffffffff167c0100000000000000000000000000000000000000000000000000000000028152600401808261ffff1661ffff168152602001915050600060405180830381600087803b151561282457600080fd5b6102c65a03f1151561283557600080fd5b50505050505050565b6000600260009054906101000a900473ffffffffffffffffffffffffffffffffffffffff1673ffffffffffffffffffffffffffffffffffffffff16632a7c586e6000604051602001526040518163ffffffff167c0100000000000000000000000000000000000000000000000000000000028152600401602060405180830381600087803b15156128ce57600080fd5b6102c65a03f115156128df57600080fd5b50505060405180519050905090565b600160003373ffffffffffffffffffffffffffffffffffffffff1673ffffffffffffffffffffffffffffffffffffffff16815260200190815260200160002060009054906101000a900460ff168061299257506000809054906101000a900473ffffffffffffffffffffffffffffffffffffffff1673ffffffffffffffffffffffffffffffffffffffff163373ffffffffffffffffffffffffffffffffffffffff16145b806129c857503073ffffffffffffffffffffffffffffffffffffffff163373ffffffffffffffffffffffffffffffffffffffff16145b15156129d357600080fd5b60008060ff16600260009054906101000a900473ffffffffffffffffffffffffffffffffffffffff1673ffffffffffffffffffffffffffffffffffffffff1663b75b25ec6000604051602001526040518163ffffffff167c0100000000000000000000000000000000000000000000000000000000028152600401602060405180830381600087803b1515612a6757600080fd5b6102c65a03f11515612a7857600080fd5b5050506040518051905060ff16141515612a9157600080fd5b600260009054906101000a900473ffffffffffffffffffffffffffffffffffffffff1673ffffffffffffffffffffffffffffffffffffffff1663d04e48f1846040518263ffffffff167c010000000000000000000000000000000000000000000000000000000002815260040180828152602001915050600060405180830381600087803b1515612b2157600080fd5b6102c65a03f11515612b3257600080fd5b505050600260009054906101000a900473ffffffffffffffffffffffffffffffffffffffff1673ffffffffffffffffffffffffffffffffffffffff1663f6be71d1836040518263ffffffff167c010000000000000000000000000000000000000000000000000000000002815260040180828152602001915050600060405180830381600087803b1515612bc557600080fd5b6102c65a03f11515612bd657600080fd5b505050505050565b6000600260009054906101000a900473ffffffffffffffffffffffffffffffffffffffff1673ffffffffffffffffffffffffffffffffffffffff1663b75b25ec6000604051602001526040518163ffffffff167c0100000000000000000000000000000000000000000000000000000000028152600401602060405180830381600087803b1515612c6e57600080fd5b6102c65a03f11515612c7f57600080fd5b50505060405180519050905090565b6000809054906101000a900473ffffffffffffffffffffffffffffffffffffffff1673ffffffffffffffffffffffffffffffffffffffff163373ffffffffffffffffffffffffffffffffffffffff16141515612ce957600080fd5b6040805190810160405280600160ff168152602001600260ff1681525060008090505b60028160ff161015612df657818160ff16600281101515612d2957fe5b602002015160ff16600260009054906101000a900473ffffffffffffffffffffffffffffffffffffffff1673ffffffffffffffffffffffffffffffffffffffff1663b75b25ec6000604051602001526040518163ffffffff167c0100000000000000000000000000000000000000000000000000000000028152600401602060405180830381600087803b1515612dbf57600080fd5b6102c65a03f11515612dd057600080fd5b5050506040518051905060ff16141515612de957600080fd5b8080600101915050612d0c565b600260009054906101000a900473ffffffffffffffffffffffffffffffffffffffff1673ffffffffffffffffffffffffffffffffffffffff16636bacc35560036040518263ffffffff167c0100000000000000000000000000000000000000000000000000000000028152600401808260ff168152602001915050600060405180830381600087803b1515612e8a57600080fd5b6102c65a03f11515612e9b57600080fd5b5050505050565b600160003373ffffffffffffffffffffffffffffffffffffffff1673ffffffffffffffffffffffffffffffffffffffff16815260200190815260200160002060009054906101000a900460ff1680612f4657506000809054906101000a900473ffffffffffffffffffffffffffffffffffffffff1673ffffffffffffffffffffffffffffffffffffffff163373ffffffffffffffffffffffffffffffffffffffff16145b80612f7c57503073ffffffffffffffffffffffffffffffffffffffff163373ffffffffffffffffffffffffffffffffffffffff16145b1515612f8757600080fd5b6040805190810160405280600060ff168152602001600160ff1681525060008090505b60028160ff16101561309457818160ff16600281101515612fc757fe5b602002015160ff16600260009054906101000a900473ffffffffffffffffffffffffffffffffffffffff1673ffffffffffffffffffffffffffffffffffffffff1663b75b25ec6000604051602001526040518163ffffffff167c0100000000000000000000000000000000000000000000000000000000028152600401602060405180830381600087803b151561305d57600080fd5b6102c65a03f1151561306e57600080fd5b5050506040518051905060ff1614151561308757600080fd5b8080600101915050612faa565b600260009054906101000a900473ffffffffffffffffffffffffffffffffffffffff1673ffffffffffffffffffffffffffffffffffffffff16636bacc35560086040518263ffffffff167c0100000000000000000000000000000000000000000000000000000000028152600401808260ff168152602001915050600060405180830381600087803b151561312857600080fd5b6102c65a03f1151561313957600080fd5b505050613144613b1a565b5050565b60016020528060005260406000206000915054906101000a900460ff1681565b6000809054906101000a900473ffffffffffffffffffffffffffffffffffffffff1673ffffffffffffffffffffffffffffffffffffffff163373ffffffffffffffffffffffffffffffffffffffff161415156131c357600080fd5b60038060ff16600260009054906101000a900473ffffffffffffffffffffffffffffffffffffffff1673ffffffffffffffffffffffffffffffffffffffff1663b75b25ec6000604051602001526040518163ffffffff167c0100000000000000000000000000000000000000000000000000000000028152600401602060405180830381600087803b151561325757600080fd5b6102c65a03f1151561326857600080fd5b5050506040518051905060ff1614151561328157600080fd5b600260009054906101000a900473ffffffffffffffffffffffffffffffffffffffff1673ffffffffffffffffffffffffffffffffffffffff16636bacc35560046040518263ffffffff167c0100000000000000000000000000000000000000000000000000000000028152600401808260ff168152602001915050600060405180830381600087803b151561331557600080fd5b6102c65a03f1151561332657600080fd5b50505050565b60018060008373ffffffffffffffffffffffffffffffffffffffff1673ffffffffffffffffffffffffffffffffffffffff16815260200190815260200160002060006101000a81548160ff02191690831515021790555050565b6000809054906101000a900473ffffffffffffffffffffffffffffffffffffffff1673ffffffffffffffffffffffffffffffffffffffff163373ffffffffffffffffffffffffffffffffffffffff161415156133e157600080fd5b60078060ff16600260009054906101000a900473ffffffffffffffffffffffffffffffffffffffff1673ffffffffffffffffffffffffffffffffffffffff1663b75b25ec6000604051602001526040518163ffffffff167c0100000000000000000000000000000000000000000000000000000000028152600401602060405180830381600087803b151561347557600080fd5b6102c65a03f1151561348657600080fd5b5050506040518051905060ff1614151561349f57600080fd5b811561355a57600260009054906101000a900473ffffffffffffffffffffffffffffffffffffffff1673ffffffffffffffffffffffffffffffffffffffff16636bacc35560056040518263ffffffff167c0100000000000000000000000000000000000000000000000000000000028152600401808260ff168152602001915050600060405180830381600087803b151561353957600080fd5b6102c65a03f1151561354a57600080fd5b505050613555613ef7565b61360b565b600260009054906101000a900473ffffffffffffffffffffffffffffffffffffffff1673ffffffffffffffffffffffffffffffffffffffff16636bacc35560066040518263ffffffff167c0100000000000000000000000000000000000000000000000000000000028152600401808260ff168152602001915050600060405180830381600087803b15156135ee57600080fd5b6102c65a03f115156135ff57600080fd5b50505061360a613b1a565b5b5050565b600160003373ffffffffffffffffffffffffffffffffffffffff1673ffffffffffffffffffffffffffffffffffffffff16815260200190815260200160002060009054906101000a900460ff16806136b357506000809054906101000a900473ffffffffffffffffffffffffffffffffffffffff1673ffffffffffffffffffffffffffffffffffffffff163373ffffffffffffffffffffffffffffffffffffffff16145b806136e957503073ffffffffffffffffffffffffffffffffffffffff163373ffffffffffffffffffffffffffffffffffffffff16145b15156136f457600080fd5b60018060ff16600260009054906101000a900473ffffffffffffffffffffffffffffffffffffffff1673ffffffffffffffffffffffffffffffffffffffff1663b75b25ec6000604051602001526040518163ffffffff167c0100000000000000000000000000000000000000000000000000000000028152600401602060405180830381600087803b151561378857600080fd5b6102c65a03f1151561379957600080fd5b5050506040518051905060ff161415156137b257600080fd5b600260009054906101000a900473ffffffffffffffffffffffffffffffffffffffff1673ffffffffffffffffffffffffffffffffffffffff16636bacc35560026040518263ffffffff167c0100000000000000000000000000000000000000000000000000000000028152600401808260ff168152602001915050600060405180830381600087803b151561384657600080fd5b6102c65a03f1151561385757600080fd5b50505050565b60008060003073ffffffffffffffffffffffffffffffffffffffff163373ffffffffffffffffffffffffffffffffffffffff1614151561389c57600080fd5b600091505b600260009054906101000a900473ffffffffffffffffffffffffffffffffffffffff1673ffffffffffffffffffffffffffffffffffffffff1663bfa8b9406000604051602001526040518163ffffffff167c0100000000000000000000000000000000000000000000000000000000028152600401602060405180830381600087803b151561392f57600080fd5b6102c65a03f1151561394057600080fd5b50505060405180519050821015613b0e57600260009054906101000a900473ffffffffffffffffffffffffffffffffffffffff1673ffffffffffffffffffffffffffffffffffffffff166326789d56600260009054906101000a900473ffffffffffffffffffffffffffffffffffffffff1673ffffffffffffffffffffffffffffffffffffffff16637684cb24856000604051602001526040518263ffffffff167c010000000000000000000000000000000000000000000000000000000002815260040180828152602001915050602060405180830381600087803b1515613a2857600080fd5b6102c65a03f11515613a3957600080fd5b505050604051805190506000604051604001526040518263ffffffff167c0100000000000000000000000000000000000000000000000000000000028152600401808273ffffffffffffffffffffffffffffffffffffffff1673ffffffffffffffffffffffffffffffffffffffff1681526020019150506040805180830381600087803b1515613ac857600080fd5b6102c65a03f11515613ad957600080fd5b505050604051805190602001805190505090508360ff1681141515613b015760009250613b13565b81806001019250506138a1565b600192505b5050919050565b3073ffffffffffffffffffffffffffffffffffffffff163373ffffffffffffffffffffffffffffffffffffffff16141515613b5457600080fd5b6006600260009054906101000a900473ffffffffffffffffffffffffffffffffffffffff1673ffffffffffffffffffffffffffffffffffffffff1663b75b25ec6000604051602001526040518163ffffffff167c0100000000000000000000000000000000000000000000000000000000028152600401602060405180830381600087803b1515613be457600080fd5b6102c65a03f11515613bf557600080fd5b5050506040518051905060ff161480613cb957506008600260009054906101000a900473ffffffffffffffffffffffffffffffffffffffff1673ffffffffffffffffffffffffffffffffffffffff1663b75b25ec6000604051602001526040518163ffffffff167c0100000000000000000000000000000000000000000000000000000000028152600401602060405180830381600087803b1515613c9957600080fd5b6102c65a03f11515613caa57600080fd5b5050506040518051905060ff16145b1515613cc457600080fd5b565b60003073ffffffffffffffffffffffffffffffffffffffff163373ffffffffffffffffffffffffffffffffffffffff16141515613d0257600080fd5b600090505b600260009054906101000a900473ffffffffffffffffffffffffffffffffffffffff1673ffffffffffffffffffffffffffffffffffffffff16632a7c586e6000604051602001526040518163ffffffff167c0100000000000000000000000000000000000000000000000000000000028152600401602060405180830381600087803b1515613d9557600080fd5b6102c65a03f11515613da657600080fd5b505050604051805190508160ff161015613ef457600260009054906101000a900473ffffffffffffffffffffffffffffffffffffffff1673ffffffffffffffffffffffffffffffffffffffff1663e77b9d82826000604051602001526040518263ffffffff167c0100000000000000000000000000000000000000000000000000000000028152600401808260ff168152602001915050602060405180830381600087803b1515613e5657600080fd5b6102c65a03f11515613e6757600080fd5b5050506040518051905073ffffffffffffffffffffffffffffffffffffffff16638456cb596040518163ffffffff167c0100000000000000000000000000000000000000000000000000000000028152600401600060405180830381600087803b1515613ed357600080fd5b6102c65a03f11515613ee457600080fd5b5050508080600101915050613d07565b50565b3073ffffffffffffffffffffffffffffffffffffffff163373ffffffffffffffffffffffffffffffffffffffff16141515613f3157600080fd5b60058060ff16600260009054906101000a900473ffffffffffffffffffffffffffffffffffffffff1673ffffffffffffffffffffffffffffffffffffffff1663b75b25ec6000604051602001526040518163ffffffff167c0100000000000000000000000000000000000000000000000000000000028152600401602060405180830381600087803b1515613fc557600080fd5b6102c65a03f11515613fd657600080fd5b5050506040518051905060ff16141515613fef57600080fd5b50565b6040516113338061401383390190565b604051613e518061534683390190560060606040526000600260056101000a81548161ffff021916908361ffff1602179055506000600260076101000a81548161ffff021916908361ffff160217905550341561004b57600080fd5b6040516060806113338339810160405280805190602001909190805190602001909190805190602001909190505033806000806101000a81548173ffffffffffffffffffffffffffffffffffffffff021916908373ffffffffffffffffffffffffffffffffffffffff1602179055505081600260006101000a81548161ffff021916908361ffff16021790555082600260036101000a81548161ffff021916908361ffff160217905550806002806101000a81548160ff021916908360ff160217905550505050611212806101216000396000f30060606040526004361061015f576000357c0100000000000000000000000000000000000000000000000000000000900463ffffffff1680630c737add14610164578063122282501461019357806315dae03e146101d957806318160ddd146102085780632096525514610239578063355274ea1461026a5780633aa763821461029b5780633fa4f245146102c4578063554d578d146102f5578063562e438b146103265780635e7f95d31461034d57806369fa0f151461038657806379ef704e146103ad5780638812d7ae146103e65780638da5cb5b1461040d57806398976d0114610462578063b2309070146104b7578063b9ec93c8146104e8578063c4e41b221461054f578063c701e30514610580578063d0feb460146105d5578063d4b9a6c91461061b578063e1cb547e14610661578063f059840714610692578063f2fde38b146106e7578063f7719f2b14610720578063f8b2cb4f14610766575b600080fd5b341561016f57600080fd5b6101776107bb565b604051808260ff1660ff16815260200191505060405180910390f35b341561019e57600080fd5b6101d7600480803573ffffffffffffffffffffffffffffffffffffffff1690602001909190803561ffff169060200190919050506107cd565b005b34156101e457600080fd5b6101ec610883565b604051808260ff1660ff16815260200191505060405180910390f35b341561021357600080fd5b61021b610899565b604051808261ffff1661ffff16815260200191505060405180910390f35b341561024457600080fd5b61024c6108ad565b604051808261ffff1661ffff16815260200191505060405180910390f35b341561027557600080fd5b61027d6108c5565b604051808261ffff1661ffff16815260200191505060405180910390f35b34156102a657600080fd5b6102ae6108d9565b6040518082815260200191505060405180910390f35b34156102cf57600080fd5b6102d76108e6565b604051808261ffff1661ffff16815260200191505060405180910390f35b341561030057600080fd5b6103086108fa565b604051808261ffff1661ffff16815260200191505060405180910390f35b341561033157600080fd5b61034b600480803561ffff16906020019091905050610912565b005b341561035857600080fd5b610384600480803573ffffffffffffffffffffffffffffffffffffffff1690602001909190505061098a565b005b341561039157600080fd5b6103ab600480803561ffff16906020019091905050610a48565b005b34156103b857600080fd5b6103e4600480803573ffffffffffffffffffffffffffffffffffffffff16906020019091905050610ac0565b005b34156103f157600080fd5b61040b600480803561ffff16906020019091905050610b75565b005b341561041857600080fd5b610420610c11565b604051808273ffffffffffffffffffffffffffffffffffffffff1673ffffffffffffffffffffffffffffffffffffffff16815260200191505060405180910390f35b341561046d57600080fd5b610499600480803573ffffffffffffffffffffffffffffffffffffffff16906020019091905050610c36565b604051808261ffff1661ffff16815260200191505060405180910390f35b34156104c257600080fd5b6104ca610c8d565b604051808261ffff1661ffff16815260200191505060405180910390f35b34156104f357600080fd5b61050d600480803561ffff16906020019091905050610ca1565b604051808273ffffffffffffffffffffffffffffffffffffffff1673ffffffffffffffffffffffffffffffffffffffff16815260200191505060405180910390f35b341561055a57600080fd5b610562610ce9565b604051808261ffff1661ffff16815260200191505060405180910390f35b341561058b57600080fd5b6105b7600480803573ffffffffffffffffffffffffffffffffffffffff16906020019091905050610d01565b604051808261ffff1661ffff16815260200191505060405180910390f35b34156105e057600080fd5b610619600480803573ffffffffffffffffffffffffffffffffffffffff1690602001909190803561ffff16906020019091905050610d58565b005b341561062657600080fd5b61065f600480803573ffffffffffffffffffffffffffffffffffffffff1690602001909190803561ffff16906020019091905050610e0e565b005b341561066c57600080fd5b610674610ec4565b604051808261ffff1661ffff16815260200191505060405180910390f35b341561069d57600080fd5b6106c9600480803573ffffffffffffffffffffffffffffffffffffffff16906020019091905050610edc565b604051808261ffff1661ffff16815260200191505060405180910390f35b34156106f257600080fd5b61071e600480803573ffffffffffffffffffffffffffffffffffffffff16906020019091905050610f33565b005b341561072b57600080fd5b610764600480803573ffffffffffffffffffffffffffffffffffffffff1690602001909190803561ffff16906020019091905050611088565b005b341561077157600080fd5b61079d600480803573ffffffffffffffffffffffffffffffffffffffff1690602001909190505061113e565b604051808261ffff1661ffff16815260200191505060405180910390f35b6002809054906101000a900460ff1681565b600160003373ffffffffffffffffffffffffffffffffffffffff1673ffffffffffffffffffffffffffffffffffffffff16815260200190815260200160002060009054906101000a900460ff16151561082557600080fd5b80600460008473ffffffffffffffffffffffffffffffffffffffff1673ffffffffffffffffffffffffffffffffffffffff16815260200190815260200160002060006101000a81548161ffff021916908361ffff1602179055505050565b60006002809054906101000a900460ff16905090565b600260059054906101000a900461ffff1681565b6000600260009054906101000a900461ffff16905090565b600260039054906101000a900461ffff1681565b6000600780549050905090565b600260009054906101000a900461ffff1681565b6000600260039054906101000a900461ffff16905090565b600160003373ffffffffffffffffffffffffffffffffffffffff1673ffffffffffffffffffffffffffffffffffffffff16815260200190815260200160002060009054906101000a900460ff16151561096a57600080fd5b80600260056101000a81548161ffff021916908361ffff16021790555050565b600160003373ffffffffffffffffffffffffffffffffffffffff1673ffffffffffffffffffffffffffffffffffffffff16815260200190815260200160002060009054906101000a900460ff1615156109e257600080fd5b600780548060010182816109f69190611195565b9160005260206000209001600083909190916101000a81548173ffffffffffffffffffffffffffffffffffffffff021916908373ffffffffffffffffffffffffffffffffffffffff1602179055505050565b600160003373ffffffffffffffffffffffffffffffffffffffff1673ffffffffffffffffffffffffffffffffffffffff16815260200190815260200160002060009054906101000a900460ff161515610aa057600080fd5b80600260076101000a81548161ffff021916908361ffff16021790555050565b6000809054906101000a900473ffffffffffffffffffffffffffffffffffffffff1673ffffffffffffffffffffffffffffffffffffffff163373ffffffffffffffffffffffffffffffffffffffff16141515610b1b57600080fd5b60018060008373ffffffffffffffffffffffffffffffffffffffff1673ffffffffffffffffffffffffffffffffffffffff16815260200190815260200160002060006101000a81548160ff02191690831515021790555050565b600160003373ffffffffffffffffffffffffffffffffffffffff1673ffffffffffffffffffffffffffffffffffffffff16815260200190815260200160002060009054906101000a900460ff161515610bcd57600080fd5b60078161ffff16815481101515610be057fe5b906000526020600020900160006101000a81549073ffffffffffffffffffffffffffffffffffffffff021916905550565b6000809054906101000a900473ffffffffffffffffffffffffffffffffffffffff1681565b6000600560008373ffffffffffffffffffffffffffffffffffffffff1673ffffffffffffffffffffffffffffffffffffffff16815260200190815260200160002060009054906101000a900461ffff169050919050565b600260079054906101000a900461ffff1681565b600060078261ffff16815481101515610cb657fe5b906000526020600020900160009054906101000a900473ffffffffffffffffffffffffffffffffffffffff169050919050565b6000600260059054906101000a900461ffff16905090565b6000600460008373ffffffffffffffffffffffffffffffffffffffff1673ffffffffffffffffffffffffffffffffffffffff16815260200190815260200160002060009054906101000a900461ffff169050919050565b600160003373ffffffffffffffffffffffffffffffffffffffff1673ffffffffffffffffffffffffffffffffffffffff16815260200190815260200160002060009054906101000a900460ff161515610db057600080fd5b80600360008473ffffffffffffffffffffffffffffffffffffffff1673ffffffffffffffffffffffffffffffffffffffff16815260200190815260200160002060006101000a81548161ffff021916908361ffff1602179055505050565b600160003373ffffffffffffffffffffffffffffffffffffffff1673ffffffffffffffffffffffffffffffffffffffff16815260200190815260200160002060009054906101000a900460ff161515610e6657600080fd5b80600560008473ffffffffffffffffffffffffffffffffffffffff1673ffffffffffffffffffffffffffffffffffffffff16815260200190815260200160002060006101000a81548161ffff021916908361ffff1602179055505050565b6000600260079054906101000a900461ffff16905090565b6000600460008373ffffffffffffffffffffffffffffffffffffffff1673ffffffffffffffffffffffffffffffffffffffff16815260200190815260200160002060009054906101000a900461ffff169050919050565b6000809054906101000a900473ffffffffffffffffffffffffffffffffffffffff1673ffffffffffffffffffffffffffffffffffffffff163373ffffffffffffffffffffffffffffffffffffffff16141515610f8e57600080fd5b600073ffffffffffffffffffffffffffffffffffffffff168173ffffffffffffffffffffffffffffffffffffffff1614151515610fca57600080fd5b8073ffffffffffffffffffffffffffffffffffffffff166000809054906101000a900473ffffffffffffffffffffffffffffffffffffffff1673ffffffffffffffffffffffffffffffffffffffff167f8be0079c531659141344cd1fd0a4f28419497f9722a3daafe3b4186f6b6457e060405160405180910390a3806000806101000a81548173ffffffffffffffffffffffffffffffffffffffff021916908373ffffffffffffffffffffffffffffffffffffffff16021790555050565b600160003373ffffffffffffffffffffffffffffffffffffffff1673ffffffffffffffffffffffffffffffffffffffff16815260200190815260200160002060009054906101000a900460ff1615156110e057600080fd5b80600460008473ffffffffffffffffffffffffffffffffffffffff1673ffffffffffffffffffffffffffffffffffffffff16815260200190815260200160002060006101000a81548161ffff021916908361ffff1602179055505050565b6000600360008373ffffffffffffffffffffffffffffffffffffffff1673ffffffffffffffffffffffffffffffffffffffff16815260200190815260200160002060009054906101000a900461ffff169050919050565b8154818355818115116111bc578183600052602060002091820191016111bb91906111c1565b5b505050565b6111e391905b808211156111df5760008160009055506001016111c7565b5090565b905600a165627a7a72305820da32d133dacb703ff919c9a322db28e1d759eec32e45e3bde51a1d503109104c002960606040526000600260006101000a81548160ff021916908315150217905550341561002a57600080fd5b604051604080613e51833981016040528080519060200190919080519060200190919050508133816000806101000a81548173ffffffffffffffffffffffffffffffffffffffff021916908373ffffffffffffffffffffffffffffffffffffffff16021790555060018060008373ffffffffffffffffffffffffffffffffffffffff1673ffffffffffffffffffffffffffffffffffffffff16815260200190815260200160002060006101000a81548160ff021916908315150217905550505080600260016101000a81548173ffffffffffffffffffffffffffffffffffffffff021916908373ffffffffffffffffffffffffffffffffffffffff1602179055505050613d158061013c6000396000f3006060604052600436106100fc576000357c0100000000000000000000000000000000000000000000000000000000900463ffffffff16806320965255146101015780633e5beab9146101325780633f4ba83a1461017f5780634ec3dcfe14610194578063554d578d146102115780635c975abb1461024257806370a082311461026f57806373d4a13a146102c45780638456cb591461031957806384f9b5601461032e57806389fcdbc5146103745780638da5cb5b146103b3578063c4e41b2214610408578063c76b4cef14610439578063dc6dfaaf14610460578063ed25d8b7146104b5578063eee0022414610506578063f269b7bf14610564575b600080fd5b341561010c57600080fd5b61011461059d565b604051808261ffff1661ffff16815260200191505060405180910390f35b341561013d57600080fd5b610169600480803573ffffffffffffffffffffffffffffffffffffffff1690602001909190505061064d565b6040518082815260200191505060405180910390f35b341561018a57600080fd5b61019261073a565b005b341561019f57600080fd5b6101f7600480803573ffffffffffffffffffffffffffffffffffffffff1690602001909190803573ffffffffffffffffffffffffffffffffffffffff1690602001909190803561ffff169060200190919050506107f9565b604051808215151515815260200191505060405180910390f35b341561021c57600080fd5b610224610fb8565b604051808261ffff1661ffff16815260200191505060405180910390f35b341561024d57600080fd5b610255611068565b604051808215151515815260200191505060405180910390f35b341561027a57600080fd5b6102a6600480803573ffffffffffffffffffffffffffffffffffffffff1690602001909190505061107b565b604051808261ffff1661ffff16815260200191505060405180910390f35b34156102cf57600080fd5b6102d7611164565b604051808273ffffffffffffffffffffffffffffffffffffffff1673ffffffffffffffffffffffffffffffffffffffff16815260200191505060405180910390f35b341561032457600080fd5b61032c61118a565b005b341561033957600080fd5b610372600480803573ffffffffffffffffffffffffffffffffffffffff1690602001909190803561ffff169060200190919050506112d4565b005b341561037f57600080fd5b610399600480803561ffff16906020019091905050611fe7565b604051808215151515815260200191505060405180910390f35b34156103be57600080fd5b6103c66125d9565b604051808273ffffffffffffffffffffffffffffffffffffffff1673ffffffffffffffffffffffffffffffffffffffff16815260200191505060405180910390f35b341561041357600080fd5b61041b6125fe565b604051808261ffff1661ffff16815260200191505060405180910390f35b341561044457600080fd5b61045e600480803561ffff169060200190919050506126ae565b005b341561046b57600080fd5b610497600480803573ffffffffffffffffffffffffffffffffffffffff16906020019091905050612d25565b604051808261ffff1661ffff16815260200191505060405180910390f35b34156104c057600080fd5b6104ec600480803573ffffffffffffffffffffffffffffffffffffffff16906020019091905050613382565b604051808215151515815260200191505060405180910390f35b341561051157600080fd5b61054a600480803573ffffffffffffffffffffffffffffffffffffffff1690602001909190803561ffff169060200190919050506133a2565b604051808215151515815260200191505060405180910390f35b341561056f57600080fd5b61059b600480803573ffffffffffffffffffffffffffffffffffffffff16906020019091905050613c34565b005b6000600260019054906101000a900473ffffffffffffffffffffffffffffffffffffffff1673ffffffffffffffffffffffffffffffffffffffff1663209652556000604051602001526040518163ffffffff167c0100000000000000000000000000000000000000000000000000000000028152600401602060405180830381600087803b151561062d57600080fd5b6102c65a03f1151561063e57600080fd5b50505060405180519050905090565b6000600260019054906101000a900473ffffffffffffffffffffffffffffffffffffffff1673ffffffffffffffffffffffffffffffffffffffff1663f0598407836000604051602001526040518263ffffffff167c0100000000000000000000000000000000000000000000000000000000028152600401808273ffffffffffffffffffffffffffffffffffffffff1673ffffffffffffffffffffffffffffffffffffffff168152602001915050602060405180830381600087803b151561071457600080fd5b6102c65a03f1151561072557600080fd5b5050506040518051905061ffff169050919050565b6000809054906101000a900473ffffffffffffffffffffffffffffffffffffffff1673ffffffffffffffffffffffffffffffffffffffff163373ffffffffffffffffffffffffffffffffffffffff1614151561079557600080fd5b600260009054906101000a900460ff1615156107b057600080fd5b6000600260006101000a81548160ff0219169083151502179055507f7805862f689e2f13df9f062ff482ad3ad112aca9e0847911ed832e158c525b3360405160405180910390a1565b6000600160003373ffffffffffffffffffffffffffffffffffffffff1673ffffffffffffffffffffffffffffffffffffffff16815260200190815260200160002060009054906101000a900460ff168061089f57506000809054906101000a900473ffffffffffffffffffffffffffffffffffffffff1673ffffffffffffffffffffffffffffffffffffffff163373ffffffffffffffffffffffffffffffffffffffff16145b806108d557503073ffffffffffffffffffffffffffffffffffffffff163373ffffffffffffffffffffffffffffffffffffffff16145b15156108e057600080fd5b600260009054906101000a900460ff161515156108fc57600080fd5b600073ffffffffffffffffffffffffffffffffffffffff168373ffffffffffffffffffffffffffffffffffffffff161415151561093857600080fd5b600260019054906101000a900473ffffffffffffffffffffffffffffffffffffffff1673ffffffffffffffffffffffffffffffffffffffff1663f0598407856000604051602001526040518263ffffffff167c0100000000000000000000000000000000000000000000000000000000028152600401808273ffffffffffffffffffffffffffffffffffffffff1673ffffffffffffffffffffffffffffffffffffffff168152602001915050602060405180830381600087803b15156109fd57600080fd5b6102c65a03f11515610a0e57600080fd5b5050506040518051905061ffff168261ffff1611151515610a2e57600080fd5b600260019054906101000a900473ffffffffffffffffffffffffffffffffffffffff1673ffffffffffffffffffffffffffffffffffffffff1663d0feb46085610b6385600260019054906101000a900473ffffffffffffffffffffffffffffffffffffffff1673ffffffffffffffffffffffffffffffffffffffff1663f8b2cb4f8a6000604051602001526040518263ffffffff167c0100000000000000000000000000000000000000000000000000000000028152600401808273ffffffffffffffffffffffffffffffffffffffff1673ffffffffffffffffffffffffffffffffffffffff168152602001915050602060405180830381600087803b1515610b3657600080fd5b6102c65a03f11515610b4757600080fd5b5050506040518051905061ffff16613c8e90919063ffffffff16565b6040518363ffffffff167c0100000000000000000000000000000000000000000000000000000000028152600401808373ffffffffffffffffffffffffffffffffffffffff1673ffffffffffffffffffffffffffffffffffffffff1681526020018261ffff1661ffff16815260200192505050600060405180830381600087803b1515610bef57600080fd5b6102c65a03f11515610c0057600080fd5b505050600260019054906101000a900473ffffffffffffffffffffffffffffffffffffffff1673ffffffffffffffffffffffffffffffffffffffff16631222825085610d3885600260019054906101000a900473ffffffffffffffffffffffffffffffffffffffff1673ffffffffffffffffffffffffffffffffffffffff1663f05984078a6000604051602001526040518263ffffffff167c0100000000000000000000000000000000000000000000000000000000028152600401808273ffffffffffffffffffffffffffffffffffffffff1673ffffffffffffffffffffffffffffffffffffffff168152602001915050602060405180830381600087803b1515610d0b57600080fd5b6102c65a03f11515610d1c57600080fd5b5050506040518051905061ffff16613c8e90919063ffffffff16565b6040518363ffffffff167c0100000000000000000000000000000000000000000000000000000000028152600401808373ffffffffffffffffffffffffffffffffffffffff1673ffffffffffffffffffffffffffffffffffffffff1681526020018261ffff1661ffff16815260200192505050600060405180830381600087803b1515610dc457600080fd5b6102c65a03f11515610dd557600080fd5b505050600260019054906101000a900473ffffffffffffffffffffffffffffffffffffffff1673ffffffffffffffffffffffffffffffffffffffff1663d0feb46084610f0d85600260019054906101000a900473ffffffffffffffffffffffffffffffffffffffff1673ffffffffffffffffffffffffffffffffffffffff1663f8b2cb4f896000604051602001526040518263ffffffff167c0100000000000000000000000000000000000000000000000000000000028152600401808273ffffffffffffffffffffffffffffffffffffffff1673ffffffffffffffffffffffffffffffffffffffff168152602001915050602060405180830381600087803b1515610ee057600080fd5b6102c65a03f11515610ef157600080fd5b5050506040518051905061ffff16613caf90919063ffffffff16565b6040518363ffffffff167c0100000000000000000000000000000000000000000000000000000000028152600401808373ffffffffffffffffffffffffffffffffffffffff1673ffffffffffffffffffffffffffffffffffffffff1681526020018261ffff1661ffff16815260200192505050600060405180830381600087803b1515610f9957600080fd5b6102c65a03f11515610faa57600080fd5b505050600190509392505050565b6000600260019054906101000a900473ffffffffffffffffffffffffffffffffffffffff1673ffffffffffffffffffffffffffffffffffffffff1663554d578d6000604051602001526040518163ffffffff167c0100000000000000000000000000000000000000000000000000000000028152600401602060405180830381600087803b151561104857600080fd5b6102c65a03f1151561105957600080fd5b50505060405180519050905090565b600260009054906101000a900460ff1681565b6000600260019054906101000a900473ffffffffffffffffffffffffffffffffffffffff1673ffffffffffffffffffffffffffffffffffffffff1663f8b2cb4f836000604051602001526040518263ffffffff167c0100000000000000000000000000000000000000000000000000000000028152600401808273ffffffffffffffffffffffffffffffffffffffff1673ffffffffffffffffffffffffffffffffffffffff168152602001915050602060405180830381600087803b151561114257600080fd5b6102c65a03f1151561115357600080fd5b505050604051805190509050919050565b600260019054906101000a900473ffffffffffffffffffffffffffffffffffffffff1681565b600160003373ffffffffffffffffffffffffffffffffffffffff1673ffffffffffffffffffffffffffffffffffffffff16815260200190815260200160002060009054906101000a900460ff168061122e57506000809054906101000a900473ffffffffffffffffffffffffffffffffffffffff1673ffffffffffffffffffffffffffffffffffffffff163373ffffffffffffffffffffffffffffffffffffffff16145b8061126457503073ffffffffffffffffffffffffffffffffffffffff163373ffffffffffffffffffffffffffffffffffffffff16145b151561126f57600080fd5b600260009054906101000a900460ff1615151561128b57600080fd5b6001600260006101000a81548160ff0219169083151502179055507f6985a02210a168e66602d3235cb6db0e70f92b3ba4d376a33c0f3d9434bff62560405160405180910390a1565b6000600160003373ffffffffffffffffffffffffffffffffffffffff1673ffffffffffffffffffffffffffffffffffffffff16815260200190815260200160002060009054906101000a900460ff168061137a57506000809054906101000a900473ffffffffffffffffffffffffffffffffffffffff1673ffffffffffffffffffffffffffffffffffffffff163373ffffffffffffffffffffffffffffffffffffffff16145b806113b057503073ffffffffffffffffffffffffffffffffffffffff163373ffffffffffffffffffffffffffffffffffffffff16145b15156113bb57600080fd5b600260009054906101000a900460ff161515156113d757600080fd5b8161ffff16600260019054906101000a900473ffffffffffffffffffffffffffffffffffffffff1673ffffffffffffffffffffffffffffffffffffffff1663e1cb547e6000604051602001526040518163ffffffff167c0100000000000000000000000000000000000000000000000000000000028152600401602060405180830381600087803b151561146a57600080fd5b6102c65a03f1151561147b57600080fd5b50505060405180519050600260019054906101000a900473ffffffffffffffffffffffffffffffffffffffff1673ffffffffffffffffffffffffffffffffffffffff1663c4e41b226000604051602001526040518163ffffffff167c0100000000000000000000000000000000000000000000000000000000028152600401602060405180830381600087803b151561151357600080fd5b6102c65a03f1151561152457600080fd5b50505060405180519050600260019054906101000a900473ffffffffffffffffffffffffffffffffffffffff1673ffffffffffffffffffffffffffffffffffffffff1663554d578d6000604051602001526040518163ffffffff167c0100000000000000000000000000000000000000000000000000000000028152600401602060405180830381600087803b15156115bc57600080fd5b6102c65a03f115156115cd57600080fd5b50505060405180519050030161ffff16101515156115ea57600080fd5b5b60008261ffff161115611fe257600260019054906101000a900473ffffffffffffffffffffffffffffffffffffffff1673ffffffffffffffffffffffffffffffffffffffff1663554d578d6000604051602001526040518163ffffffff167c0100000000000000000000000000000000000000000000000000000000028152600401602060405180830381600087803b151561168657600080fd5b6102c65a03f1151561169757600080fd5b5050506040518051905061ffff166001600260019054906101000a900473ffffffffffffffffffffffffffffffffffffffff1673ffffffffffffffffffffffffffffffffffffffff1663c4e41b226000604051602001526040518163ffffffff167c0100000000000000000000000000000000000000000000000000000000028152600401602060405180830381600087803b151561173557600080fd5b6102c65a03f1151561174657600080fd5b505050604051805190500161ffff16111515611a8057600260019054906101000a900473ffffffffffffffffffffffffffffffffffffffff1673ffffffffffffffffffffffffffffffffffffffff1663d0feb460846001600260019054906101000a900473ffffffffffffffffffffffffffffffffffffffff1673ffffffffffffffffffffffffffffffffffffffff1663f8b2cb4f886000604051602001526040518263ffffffff167c0100000000000000000000000000000000000000000000000000000000028152600401808273ffffffffffffffffffffffffffffffffffffffff1673ffffffffffffffffffffffffffffffffffffffff168152602001915050602060405180830381600087803b151561186257600080fd5b6102c65a03f1151561187357600080fd5b50505060405180519050016040518363ffffffff167c0100000000000000000000000000000000000000000000000000000000028152600401808373ffffffffffffffffffffffffffffffffffffffff1673ffffffffffffffffffffffffffffffffffffffff1681526020018261ffff1661ffff16815260200192505050600060405180830381600087803b151561190a57600080fd5b6102c65a03f1151561191b57600080fd5b505050600260019054906101000a900473ffffffffffffffffffffffffffffffffffffffff1673ffffffffffffffffffffffffffffffffffffffff1663562e438b6001600260019054906101000a900473ffffffffffffffffffffffffffffffffffffffff1673ffffffffffffffffffffffffffffffffffffffff1663c4e41b226000604051602001526040518163ffffffff167c0100000000000000000000000000000000000000000000000000000000028152600401602060405180830381600087803b15156119ec57600080fd5b6102c65a03f115156119fd57600080fd5b50505060405180519050016040518263ffffffff167c0100000000000000000000000000000000000000000000000000000000028152600401808261ffff1661ffff168152602001915050600060405180830381600087803b1515611a6157600080fd5b6102c65a03f11515611a7257600080fd5b505050600182039150611fdd565b600090505b600260019054906101000a900473ffffffffffffffffffffffffffffffffffffffff1673ffffffffffffffffffffffffffffffffffffffff16633aa763826000604051602001526040518163ffffffff167c0100000000000000000000000000000000000000000000000000000000028152600401602060405180830381600087803b1515611b1357600080fd5b6102c65a03f11515611b2457600080fd5b505050604051805190508161ffff161015611fdc576000600260019054906101000a900473ffffffffffffffffffffffffffffffffffffffff1673ffffffffffffffffffffffffffffffffffffffff1663f0598407600260019054906101000a900473ffffffffffffffffffffffffffffffffffffffff1673ffffffffffffffffffffffffffffffffffffffff1663b9ec93c8856000604051602001526040518263ffffffff167c0100000000000000000000000000000000000000000000000000000000028152600401808261ffff1661ffff168152602001915050602060405180830381600087803b1515611c1a57600080fd5b6102c65a03f11515611c2b57600080fd5b505050604051805190506000604051602001526040518263ffffffff167c0100000000000000000000000000000000000000000000000000000000028152600401808273ffffffffffffffffffffffffffffffffffffffff1673ffffffffffffffffffffffffffffffffffffffff168152602001915050602060405180830381600087803b1515611cbb57600080fd5b6102c65a03f11515611ccc57600080fd5b5050506040518051905061ffff161115611f2257611da7600260019054906101000a900473ffffffffffffffffffffffffffffffffffffffff1673ffffffffffffffffffffffffffffffffffffffff1663b9ec93c8836000604051602001526040518263ffffffff167c0100000000000000000000000000000000000000000000000000000000028152600401808261ffff1661ffff168152602001915050602060405180830381600087803b1515611d8457600080fd5b6102c65a03f11515611d9557600080fd5b505050604051805190508460016107f9565b50600181039050600182039150600260019054906101000a900473ffffffffffffffffffffffffffffffffffffffff1673ffffffffffffffffffffffffffffffffffffffff166369fa0f156001600260019054906101000a900473ffffffffffffffffffffffffffffffffffffffff1673ffffffffffffffffffffffffffffffffffffffff1663e1cb547e6000604051602001526040518163ffffffff167c0100000000000000000000000000000000000000000000000000000000028152600401602060405180830381600087803b1515611e8257600080fd5b6102c65a03f11515611e9357600080fd5b50505060405180519050036040518263ffffffff167c0100000000000000000000000000000000000000000000000000000000028152600401808261ffff1661ffff168152602001915050600060405180830381600087803b1515611ef757600080fd5b6102c65a03f11515611f0857600080fd5b50505060008261ffff161415611f1d57611fdc565b611fcf565b600260019054906101000a900473ffffffffffffffffffffffffffffffffffffffff1673ffffffffffffffffffffffffffffffffffffffff16638812d7ae826040518263ffffffff167c0100000000000000000000000000000000000000000000000000000000028152600401808261ffff1661ffff168152602001915050600060405180830381600087803b1515611fba57600080fd5b6102c65a03f11515611fcb57600080fd5b5050505b8080600101915050611a85565b5b6115eb565b505050565b6000600260009054906101000a900460ff1615151561200557600080fd5b600260019054906101000a900473ffffffffffffffffffffffffffffffffffffffff1673ffffffffffffffffffffffffffffffffffffffff1663f8b2cb4f336000604051602001526040518263ffffffff167c0100000000000000000000000000000000000000000000000000000000028152600401808273ffffffffffffffffffffffffffffffffffffffff1673ffffffffffffffffffffffffffffffffffffffff168152602001915050602060405180830381600087803b15156120ca57600080fd5b6102c65a03f115156120db57600080fd5b5050506040518051905061ffff168261ffff16111515156120fb57600080fd5b6000600260019054906101000a900473ffffffffffffffffffffffffffffffffffffffff1673ffffffffffffffffffffffffffffffffffffffff1663f0598407336000604051602001526040518263ffffffff167c0100000000000000000000000000000000000000000000000000000000028152600401808273ffffffffffffffffffffffffffffffffffffffff1673ffffffffffffffffffffffffffffffffffffffff168152602001915050602060405180830381600087803b15156121c257600080fd5b6102c65a03f115156121d357600080fd5b5050506040518051905061ffff1614156122b857600260019054906101000a900473ffffffffffffffffffffffffffffffffffffffff1673ffffffffffffffffffffffffffffffffffffffff16635e7f95d3336040518263ffffffff167c0100000000000000000000000000000000000000000000000000000000028152600401808273ffffffffffffffffffffffffffffffffffffffff1673ffffffffffffffffffffffffffffffffffffffff168152602001915050600060405180830381600087803b15156122a357600080fd5b6102c65a03f115156122b457600080fd5b5050505b600260019054906101000a900473ffffffffffffffffffffffffffffffffffffffff1673ffffffffffffffffffffffffffffffffffffffff1663122282503384600260019054906101000a900473ffffffffffffffffffffffffffffffffffffffff1673ffffffffffffffffffffffffffffffffffffffff1663f0598407336000604051602001526040518263ffffffff167c0100000000000000000000000000000000000000000000000000000000028152600401808273ffffffffffffffffffffffffffffffffffffffff1673ffffffffffffffffffffffffffffffffffffffff168152602001915050602060405180830381600087803b15156123bd57600080fd5b6102c65a03f115156123ce57600080fd5b50505060405180519050016040518363ffffffff167c0100000000000000000000000000000000000000000000000000000000028152600401808373ffffffffffffffffffffffffffffffffffffffff1673ffffffffffffffffffffffffffffffffffffffff1681526020018261ffff1661ffff16815260200192505050600060405180830381600087803b151561246557600080fd5b6102c65a03f1151561247657600080fd5b505050600260019054906101000a900473ffffffffffffffffffffffffffffffffffffffff1673ffffffffffffffffffffffffffffffffffffffff166369fa0f156001600260019054906101000a900473ffffffffffffffffffffffffffffffffffffffff1673ffffffffffffffffffffffffffffffffffffffff1663e1cb547e6000604051602001526040518163ffffffff167c0100000000000000000000000000000000000000000000000000000000028152600401602060405180830381600087803b151561254757600080fd5b6102c65a03f1151561255857600080fd5b50505060405180519050016040518263ffffffff167c0100000000000000000000000000000000000000000000000000000000028152600401808261ffff1661ffff168152602001915050600060405180830381600087803b15156125bc57600080fd5b6102c65a03f115156125cd57600080fd5b50505060019050919050565b6000809054906101000a900473ffffffffffffffffffffffffffffffffffffffff1681565b6000600260019054906101000a900473ffffffffffffffffffffffffffffffffffffffff1673ffffffffffffffffffffffffffffffffffffffff1663c4e41b226000604051602001526040518163ffffffff167c0100000000000000000000000000000000000000000000000000000000028152600401602060405180830381600087803b151561268e57600080fd5b6102c65a03f1151561269f57600080fd5b50505060405180519050905090565b600260009054906101000a900460ff161515156126ca57600080fd5b60006127c282600260019054906101000a900473ffffffffffffffffffffffffffffffffffffffff1673ffffffffffffffffffffffffffffffffffffffff1663f8b2cb4f336000604051602001526040518263ffffffff167c0100000000000000000000000000000000000000000000000000000000028152600401808273ffffffffffffffffffffffffffffffffffffffff1673ffffffffffffffffffffffffffffffffffffffff168152602001915050602060405180830381600087803b151561279557600080fd5b6102c65a03f115156127a657600080fd5b5050506040518051905061ffff16613c8e90919063ffffffff16565b61ffff161115156127d257600080fd5b600260019054906101000a900473ffffffffffffffffffffffffffffffffffffffff1673ffffffffffffffffffffffffffffffffffffffff1663d0feb460336001600260019054906101000a900473ffffffffffffffffffffffffffffffffffffffff1673ffffffffffffffffffffffffffffffffffffffff1663f8b2cb4f336000604051602001526040518263ffffffff167c0100000000000000000000000000000000000000000000000000000000028152600401808273ffffffffffffffffffffffffffffffffffffffff1673ffffffffffffffffffffffffffffffffffffffff168152602001915050602060405180830381600087803b15156128d857600080fd5b6102c65a03f115156128e957600080fd5b50505060405180519050036040518363ffffffff167c0100000000000000000000000000000000000000000000000000000000028152600401808373ffffffffffffffffffffffffffffffffffffffff1673ffffffffffffffffffffffffffffffffffffffff1681526020018261ffff1661ffff16815260200192505050600060405180830381600087803b151561298057600080fd5b6102c65a03f1151561299157600080fd5b505050600260019054906101000a900473ffffffffffffffffffffffffffffffffffffffff1673ffffffffffffffffffffffffffffffffffffffff1663f0598407336000604051602001526040518263ffffffff167c0100000000000000000000000000000000000000000000000000000000028152600401808273ffffffffffffffffffffffffffffffffffffffff1673ffffffffffffffffffffffffffffffffffffffff168152602001915050602060405180830381600087803b1515612a5957600080fd5b6102c65a03f11515612a6a57600080fd5b5050506040518051905061ffff16600260019054906101000a900473ffffffffffffffffffffffffffffffffffffffff1673ffffffffffffffffffffffffffffffffffffffff1663f8b2cb4f336000604051602001526040518263ffffffff167c0100000000000000000000000000000000000000000000000000000000028152600401808273ffffffffffffffffffffffffffffffffffffffff1673ffffffffffffffffffffffffffffffffffffffff168152602001915050602060405180830381600087803b1515612b3d57600080fd5b6102c65a03f11515612b4e57600080fd5b5050506040518051905061ffff161015612d2257600260019054906101000a900473ffffffffffffffffffffffffffffffffffffffff1673ffffffffffffffffffffffffffffffffffffffff16631222825033600260019054906101000a900473ffffffffffffffffffffffffffffffffffffffff1673ffffffffffffffffffffffffffffffffffffffff1663f8b2cb4f336000604051602001526040518263ffffffff167c0100000000000000000000000000000000000000000000000000000000028152600401808273ffffffffffffffffffffffffffffffffffffffff1673ffffffffffffffffffffffffffffffffffffffff168152602001915050602060405180830381600087803b1515612c6657600080fd5b6102c65a03f11515612c7757600080fd5b505050604051805190506040518363ffffffff167c0100000000000000000000000000000000000000000000000000000000028152600401808373ffffffffffffffffffffffffffffffffffffffff1673ffffffffffffffffffffffffffffffffffffffff1681526020018261ffff1661ffff16815260200192505050600060405180830381600087803b1515612d0d57600080fd5b6102c65a03f11515612d1e57600080fd5b5050505b50565b6000600160003373ffffffffffffffffffffffffffffffffffffffff1673ffffffffffffffffffffffffffffffffffffffff16815260200190815260200160002060009054906101000a900460ff1680612dcb57506000809054906101000a900473ffffffffffffffffffffffffffffffffffffffff1673ffffffffffffffffffffffffffffffffffffffff163373ffffffffffffffffffffffffffffffffffffffff16145b80612e0157503073ffffffffffffffffffffffffffffffffffffffff163373ffffffffffffffffffffffffffffffffffffffff16145b1515612e0c57600080fd5b600260009054906101000a900460ff16151515612e2857600080fd5b6000600260019054906101000a900473ffffffffffffffffffffffffffffffffffffffff1673ffffffffffffffffffffffffffffffffffffffff1663c701e305846000604051602001526040518263ffffffff167c0100000000000000000000000000000000000000000000000000000000028152600401808273ffffffffffffffffffffffffffffffffffffffff1673ffffffffffffffffffffffffffffffffffffffff168152602001915050602060405180830381600087803b1515612eef57600080fd5b6102c65a03f11515612f0057600080fd5b50505060405180519050600260019054906101000a900473ffffffffffffffffffffffffffffffffffffffff1673ffffffffffffffffffffffffffffffffffffffff1663f8b2cb4f856000604051602001526040518263ffffffff167c0100000000000000000000000000000000000000000000000000000000028152600401808273ffffffffffffffffffffffffffffffffffffffff1673ffffffffffffffffffffffffffffffffffffffff168152602001915050602060405180830381600087803b1515612fcf57600080fd5b6102c65a03f11515612fe057600080fd5b505050604051805190500161ffff16111515612ffb57600080fd5b600260019054906101000a900473ffffffffffffffffffffffffffffffffffffffff1673ffffffffffffffffffffffffffffffffffffffff1663d4b9a6c933600260019054906101000a900473ffffffffffffffffffffffffffffffffffffffff1673ffffffffffffffffffffffffffffffffffffffff1663c701e305866000604051602001526040518263ffffffff167c0100000000000000000000000000000000000000000000000000000000028152600401808273ffffffffffffffffffffffffffffffffffffffff1673ffffffffffffffffffffffffffffffffffffffff168152602001915050602060405180830381600087803b15156130ff57600080fd5b6102c65a03f1151561311057600080fd5b50505060405180519050600260019054906101000a900473ffffffffffffffffffffffffffffffffffffffff1673ffffffffffffffffffffffffffffffffffffffff1663f8b2cb4f876000604051602001526040518263ffffffff167c0100000000000000000000000000000000000000000000000000000000028152600401808273ffffffffffffffffffffffffffffffffffffffff1673ffffffffffffffffffffffffffffffffffffffff168152602001915050602060405180830381600087803b15156131df57600080fd5b6102c65a03f115156131f057600080fd5b50505060405180519050016040518363ffffffff167c0100000000000000000000000000000000000000000000000000000000028152600401808373ffffffffffffffffffffffffffffffffffffffff1673ffffffffffffffffffffffffffffffffffffffff1681526020018261ffff1661ffff16815260200192505050600060405180830381600087803b151561328757600080fd5b6102c65a03f1151561329857600080fd5b505050600260019054906101000a900473ffffffffffffffffffffffffffffffffffffffff1673ffffffffffffffffffffffffffffffffffffffff166398976d01336000604051602001526040518263ffffffff167c0100000000000000000000000000000000000000000000000000000000028152600401808273ffffffffffffffffffffffffffffffffffffffff1673ffffffffffffffffffffffffffffffffffffffff168152602001915050602060405180830381600087803b151561336057600080fd5b6102c65a03f1151561337157600080fd5b505050604051805190509050919050565b60016020528060005260406000206000915054906101000a900460ff1681565b6000600260009054906101000a900460ff161515156133c057600080fd5b600073ffffffffffffffffffffffffffffffffffffffff168373ffffffffffffffffffffffffffffffffffffffff16141515156133fc57600080fd5b600260019054906101000a900473ffffffffffffffffffffffffffffffffffffffff1673ffffffffffffffffffffffffffffffffffffffff1663f8b2cb4f336000604051602001526040518263ffffffff167c0100000000000000000000000000000000000000000000000000000000028152600401808273ffffffffffffffffffffffffffffffffffffffff1673ffffffffffffffffffffffffffffffffffffffff168152602001915050602060405180830381600087803b15156134c157600080fd5b6102c65a03f115156134d257600080fd5b5050506040518051905061ffff168261ffff16111515156134f257600080fd5b600260019054906101000a900473ffffffffffffffffffffffffffffffffffffffff1673ffffffffffffffffffffffffffffffffffffffff1663d0feb4603361362785600260019054906101000a900473ffffffffffffffffffffffffffffffffffffffff1673ffffffffffffffffffffffffffffffffffffffff1663f8b2cb4f336000604051602001526040518263ffffffff167c0100000000000000000000000000000000000000000000000000000000028152600401808273ffffffffffffffffffffffffffffffffffffffff1673ffffffffffffffffffffffffffffffffffffffff168152602001915050602060405180830381600087803b15156135fa57600080fd5b6102c65a03f1151561360b57600080fd5b5050506040518051905061ffff16613c8e90919063ffffffff16565b6040518363ffffffff167c0100000000000000000000000000000000000000000000000000000000028152600401808373ffffffffffffffffffffffffffffffffffffffff1673ffffffffffffffffffffffffffffffffffffffff1681526020018261ffff1661ffff16815260200192505050600060405180830381600087803b15156136b357600080fd5b6102c65a03f115156136c457600080fd5b505050600260019054906101000a900473ffffffffffffffffffffffffffffffffffffffff1673ffffffffffffffffffffffffffffffffffffffff1663f0598407336000604051602001526040518263ffffffff167c0100000000000000000000000000000000000000000000000000000000028152600401808273ffffffffffffffffffffffffffffffffffffffff1673ffffffffffffffffffffffffffffffffffffffff168152602001915050602060405180830381600087803b151561378c57600080fd5b6102c65a03f1151561379d57600080fd5b5050506040518051905061ffff16600260019054906101000a900473ffffffffffffffffffffffffffffffffffffffff1673ffffffffffffffffffffffffffffffffffffffff1663f8b2cb4f336000604051602001526040518263ffffffff167c0100000000000000000000000000000000000000000000000000000000028152600401808273ffffffffffffffffffffffffffffffffffffffff1673ffffffffffffffffffffffffffffffffffffffff168152602001915050602060405180830381600087803b151561387057600080fd5b6102c65a03f1151561388157600080fd5b5050506040518051905061ffff161015613a5557600260019054906101000a900473ffffffffffffffffffffffffffffffffffffffff1673ffffffffffffffffffffffffffffffffffffffff16631222825033600260019054906101000a900473ffffffffffffffffffffffffffffffffffffffff1673ffffffffffffffffffffffffffffffffffffffff1663f8b2cb4f336000604051602001526040518263ffffffff167c0100000000000000000000000000000000000000000000000000000000028152600401808273ffffffffffffffffffffffffffffffffffffffff1673ffffffffffffffffffffffffffffffffffffffff168152602001915050602060405180830381600087803b151561399957600080fd5b6102c65a03f115156139aa57600080fd5b505050604051805190506040518363ffffffff167c0100000000000000000000000000000000000000000000000000000000028152600401808373ffffffffffffffffffffffffffffffffffffffff1673ffffffffffffffffffffffffffffffffffffffff1681526020018261ffff1661ffff16815260200192505050600060405180830381600087803b1515613a4057600080fd5b6102c65a03f11515613a5157600080fd5b5050505b600260019054906101000a900473ffffffffffffffffffffffffffffffffffffffff1673ffffffffffffffffffffffffffffffffffffffff1663d0feb46084613b8a85600260019054906101000a900473ffffffffffffffffffffffffffffffffffffffff1673ffffffffffffffffffffffffffffffffffffffff1663f8b2cb4f896000604051602001526040518263ffffffff167c0100000000000000000000000000000000000000000000000000000000028152600401808273ffffffffffffffffffffffffffffffffffffffff1673ffffffffffffffffffffffffffffffffffffffff168152602001915050602060405180830381600087803b1515613b5d57600080fd5b6102c65a03f11515613b6e57600080fd5b5050506040518051905061ffff16613c8e90919063ffffffff16565b6040518363ffffffff167c0100000000000000000000000000000000000000000000000000000000028152600401808373ffffffffffffffffffffffffffffffffffffffff1673ffffffffffffffffffffffffffffffffffffffff1681526020018261ffff1661ffff16815260200192505050600060405180830381600087803b1515613c1657600080fd5b6102c65a03f11515613c2757600080fd5b5050506001905092915050565b60018060008373ffffffffffffffffffffffffffffffffffffffff1673ffffffffffffffffffffffffffffffffffffffff16815260200190815260200160002060006101000a81548160ff02191690831515021790555050565b60008261ffff168261ffff1611151515613ca457fe5b818303905092915050565b60008082840190508361ffff168161ffff1610151515613ccb57fe5b8261ffff168161ffff1610151515613cdf57fe5b80915050929150505600a165627a7a723058206d03136cae6a1c5743b42da02c23c42c851d16a5e3e1a5cb422d82a8855b74d50029a165627a7a72305820c6099ec619a081aedfce776f9bc58ccce099ded13af7cd32e2d4474d79c089c80029a165627a7a723058204a49410f78bae3a86302aa1300f6e6a472dc7c6c4a5a15930a68908fc86e3ff80029",
  "source": "pragma solidity ^0.4.18;\r\n\r\nimport \"./../ownership/Ownable.sol\";\r\nimport \"./../event/Event.sol\";\r\nimport \"./../event/EventData.sol\";\r\n\r\ncontract EventFactory is Ownable {\r\n    \r\n    address[] events;\r\n\r\n    event EventCreated(address eventAddress, address owner);\r\n    \r\n    function EventFactory() Ownable(msg.sender) {        \r\n    }\r\n    \r\n    \r\n    function createEvent() returns (address) {\r\n                            \r\n        //TODO: Add modifier onlyOrganizers() -> need to have UserFactory?\r\n        EventData eventData = new EventData(events.length);\r\n        Event newEvent = new Event(owner, msg.sender, eventData);\r\n        events.push(newEvent);\r\n        EventCreated(newEvent, msg.sender);\r\n        return newEvent;\r\n\r\n\r\n    }\r\n    \r\n}",
  "sourcePath": "C:\\Users\\Elias\\Documents\\GitHub\\pae-team-repo\\contracts\\factory\\EventFactory.sol",
  "compiler": {
    "name": "solc",
    "version": "0.4.18+commit.9cf6e910.Emscripten.clang"
  },
  "schemaVersion": "1.0.1",
  "updatedAt": "2017-12-11T16:18:49.136Z"
}