{
  "contractName": "Event",
  "abi": [
    {
      "constant": false,
      "inputs": [
        {
          "name": "_ticketType",
          "type": "uint8"
        },
        {
          "name": "_price",
          "type": "uint16"
        },
        {
          "name": "_quantity",
          "type": "uint16"
        }
      ],
      "name": "addTicket",
      "outputs": [],
      "payable": false,
      "stateMutability": "nonpayable",
      "type": "function"
    },
    {
      "constant": false,
      "inputs": [],
      "name": "accept",
      "outputs": [],
      "payable": false,
      "stateMutability": "nonpayable",
      "type": "function"
    },
    {
      "constant": false,
      "inputs": [],
      "name": "testGetOrganizersInfo",
      "outputs": [],
      "payable": false,
      "stateMutability": "nonpayable",
      "type": "function"
    },
    {
      "constant": false,
      "inputs": [
        {
          "name": "_organizerAddress",
          "type": "address"
        },
        {
          "name": "_percentage",
          "type": "uint16"
        }
      ],
      "name": "addOrganizer",
      "outputs": [],
      "payable": false,
      "stateMutability": "nonpayable",
      "type": "function"
    },
    {
      "constant": false,
      "inputs": [],
      "name": "unpauseTickets",
      "outputs": [],
      "payable": false,
      "stateMutability": "nonpayable",
      "type": "function"
    },
    {
      "constant": false,
      "inputs": [
        {
          "name": "eventSuccess",
          "type": "bool"
        }
      ],
      "name": "evaluate",
      "outputs": [],
      "payable": false,
      "stateMutability": "nonpayable",
      "type": "function"
    },
    {
      "constant": false,
      "inputs": [
        {
          "name": "ticketType",
          "type": "uint8"
        },
        {
          "name": "amount",
          "type": "uint8"
        }
      ],
      "name": "buyTickets",
      "outputs": [],
      "payable": false,
      "stateMutability": "nonpayable",
      "type": "function"
    },
    {
      "constant": false,
      "inputs": [
        {
          "name": "_to",
          "type": "address"
        },
        {
          "name": "_quantity",
          "type": "uint16"
        },
        {
          "name": "ticketType",
          "type": "uint8"
        }
      ],
      "name": "refundAResell",
      "outputs": [],
      "payable": false,
      "stateMutability": "nonpayable",
      "type": "function"
    },
    {
      "constant": true,
      "inputs": [
        {
          "name": "i",
          "type": "uint16"
        }
      ],
      "name": "getTicket",
      "outputs": [
        {
          "name": "ticketToken",
          "type": "address"
        }
      ],
      "payable": false,
      "stateMutability": "view",
      "type": "function"
    },
    {
      "constant": true,
      "inputs": [],
      "name": "owner",
      "outputs": [
        {
          "name": "",
          "type": "address"
        }
      ],
      "payable": false,
      "stateMutability": "view",
      "type": "function"
    },
    {
      "constant": false,
      "inputs": [],
      "name": "resolveEvaluation",
      "outputs": [],
      "payable": false,
      "stateMutability": "nonpayable",
      "type": "function"
    },
    {
      "constant": false,
      "inputs": [],
      "name": "redButton",
      "outputs": [],
      "payable": false,
      "stateMutability": "nonpayable",
      "type": "function"
    },
    {
      "constant": true,
      "inputs": [],
      "name": "getAmountTicketTypes",
      "outputs": [
        {
          "name": "",
          "type": "uint256"
        }
      ],
      "payable": false,
      "stateMutability": "view",
      "type": "function"
    },
    {
      "constant": false,
      "inputs": [
        {
          "name": "_date",
          "type": "uint256"
        },
        {
          "name": "_duration",
          "type": "uint256"
        }
      ],
      "name": "initializeDate",
      "outputs": [],
      "payable": false,
      "stateMutability": "nonpayable",
      "type": "function"
    },
    {
      "constant": false,
      "inputs": [],
      "name": "getEventStatus",
      "outputs": [
        {
          "name": "",
          "type": "uint8"
        }
      ],
      "payable": false,
      "stateMutability": "nonpayable",
      "type": "function"
    },
    {
      "constant": false,
      "inputs": [],
      "name": "start",
      "outputs": [],
      "payable": false,
      "stateMutability": "nonpayable",
      "type": "function"
    },
    {
      "constant": false,
      "inputs": [
        {
          "name": "",
          "type": "address"
        }
      ],
      "name": "cancel",
      "outputs": [
        {
          "name": "",
          "type": "bool"
        }
      ],
      "payable": false,
      "stateMutability": "nonpayable",
      "type": "function"
    },
    {
      "constant": true,
      "inputs": [
        {
          "name": "",
          "type": "address"
        }
      ],
      "name": "subowner",
      "outputs": [
        {
          "name": "",
          "type": "bool"
        }
      ],
      "payable": false,
      "stateMutability": "view",
      "type": "function"
    },
    {
      "constant": false,
      "inputs": [
        {
          "name": "_subowner",
          "type": "address"
        }
      ],
      "name": "end",
      "outputs": [],
      "payable": false,
      "stateMutability": "nonpayable",
      "type": "function"
    },
    {
      "constant": false,
      "inputs": [
        {
          "name": "_subowner",
          "type": "address"
        }
      ],
      "name": "addSubowner",
      "outputs": [],
      "payable": false,
      "stateMutability": "nonpayable",
      "type": "function"
    },
    {
      "constant": false,
      "inputs": [
        {
          "name": "success",
          "type": "bool"
        }
      ],
      "name": "resolveFrozen",
      "outputs": [],
      "payable": false,
      "stateMutability": "nonpayable",
      "type": "function"
    },
    {
      "inputs": [
        {
          "name": "_owner",
          "type": "address"
        },
        {
          "name": "_subowner",
          "type": "address"
        },
        {
          "name": "_eventData",
          "type": "address"
        }
      ],
      "payable": false,
      "stateMutability": "nonpayable",
      "type": "function",
      "constant": false,
      "name": "open",
      "outputs": []
    },
    {
      "anonymous": false,
      "inputs": [
        {
          "indexed": false,
          "name": "_owner",
          "type": "address"
        },
        {
          "indexed": false,
          "name": "_subowner",
          "type": "address"
        },
        {
          "indexed": false,
          "name": "_eventData",
          "type": "address"
        },
        {
          "indexed": false,
          "name": "percentage",
          "type": "uint16"
        }
      ],
      "name": "organizerInfoTest",
      "type": "constructor",
      "payable": false,
      "stateMutability": "nonpayable"
    },
    {
      "anonymous": false,
      "inputs": [
        {
          "indexed": false,
          "name": "id",
          "type": "uint256"
        },
        {
          "indexed": false,
          "name": "organizerAddress",
          "type": "address"
        },
        {
          "indexed": false,
          "name": "status",
          "type": "uint256"
        },
        {
          "indexed": false,
          "name": "percentage",
          "type": "uint16"
        }
      ],
      "name": "organizerInfoTest",
      "type": "event"
    }
  ],
  "bytecode": "0x6060604052341561000f57600080fd5b604051606080620092ef833981016040528080519060200190919080519060200190919080519060200190919050508282816000806101000a81548173ffffffffffffffffffffffffffffffffffffffff021916908373ffffffffffffffffffffffffffffffffffffffff16021790555060018060008373ffffffffffffffffffffffffffffffffffffffff1673ffffffffffffffffffffffffffffffffffffffff16815260200190815260200160002060006101000a81548160ff021916908315150217905550505080600260006101000a81548173ffffffffffffffffffffffffffffffffffffffff021916908373ffffffffffffffffffffffffffffffffffffffff1602179055505050506191c2806200012d6000396000f300606060405260043610610128576000357c0100000000000000000000000000000000000000000000000000000000900463ffffffff16806308dae3fe1461012d5780632852b71c1461016d57806336cbafd0146101825780633bbb38561461019757806340edc9bd146101dd578063474e7563146101f25780635fd84012146102175780636861a296146102495780637cf9bac11461029b5780638da5cb5b146103025780639aa1a591146103575780639d3e58781461036c578063a1dc897e14610381578063acc35667146103aa578063b75b25ec146103d6578063be9a655514610405578063ea8a1af01461041a578063ed25d8b71461042f578063efbe1c1c14610480578063f269b7bf14610495578063fbe915ae146104ce578063fcfff16f146104f3575b600080fd5b341561013857600080fd5b61016b600480803560ff1690602001909190803561ffff1690602001909190803561ffff16906020019091905050610508565b005b341561017857600080fd5b610180610931565b005b341561018d57600080fd5b610195610d78565b005b34156101a257600080fd5b6101db600480803573ffffffffffffffffffffffffffffffffffffffff1690602001909190803561ffff16906020019091905050611075565b005b34156101e857600080fd5b6101f0611306565b005b34156101fd57600080fd5b61021560048080351515906020019091905050611558565b005b341561022257600080fd5b610247600480803560ff1690602001909190803560ff169060200190919050506119d1565b005b341561025457600080fd5b610299600480803573ffffffffffffffffffffffffffffffffffffffff1690602001909190803561ffff1690602001909190803560ff16906020019091905050611c07565b005b34156102a657600080fd5b6102c0600480803561ffff16906020019091905050611dd8565b604051808273ffffffffffffffffffffffffffffffffffffffff1673ffffffffffffffffffffffffffffffffffffffff16815260200191505060405180910390f35b341561030d57600080fd5b610315611e99565b604051808273ffffffffffffffffffffffffffffffffffffffff1673ffffffffffffffffffffffffffffffffffffffff16815260200191505060405180910390f35b341561036257600080fd5b61036a611ebe565b005b341561037757600080fd5b61037f61243b565b005b341561038c57600080fd5b61039461283e565b6040518082815260200191505060405180910390f35b34156103b557600080fd5b6103d460048080359060200190919080359060200190919050506128ee565b005b34156103e157600080fd5b6103e9612bde565b604051808260ff1660ff16815260200191505060405180910390f35b341561041057600080fd5b610418612c8e565b005b341561042557600080fd5b61042d612ea2565b005b341561043a57600080fd5b610466600480803573ffffffffffffffffffffffffffffffffffffffff16906020019091905050613148565b604051808215151515815260200191505060405180910390f35b341561048b57600080fd5b610493613168565b005b34156104a057600080fd5b6104cc600480803573ffffffffffffffffffffffffffffffffffffffff1690602001909190505061332c565b005b34156104d957600080fd5b6104f160048080351515906020019091905050613386565b005b34156104fe57600080fd5b61050661360f565b005b600080600160003373ffffffffffffffffffffffffffffffffffffffff1673ffffffffffffffffffffffffffffffffffffffff16815260200190815260200160002060009054906101000a900460ff16806105af57506000809054906101000a900473ffffffffffffffffffffffffffffffffffffffff1673ffffffffffffffffffffffffffffffffffffffff163373ffffffffffffffffffffffffffffffffffffffff16145b806105e557503073ffffffffffffffffffffffffffffffffffffffff163373ffffffffffffffffffffffffffffffffffffffff16145b15156105f057600080fd5b60008060ff16600260009054906101000a900473ffffffffffffffffffffffffffffffffffffffff1673ffffffffffffffffffffffffffffffffffffffff1663b75b25ec6000604051602001526040518163ffffffff167c0100000000000000000000000000000000000000000000000000000000028152600401602060405180830381600087803b151561068457600080fd5b6102c65a03f1151561069557600080fd5b5050506040518051905060ff161415156106ae57600080fd5b8385876106b9613ff2565b808461ffff1661ffff1681526020018361ffff1661ffff1681526020018260ff1660ff1681526020019350505050604051809103906000f08015156106fd57600080fd5b92506000809054906101000a900473ffffffffffffffffffffffffffffffffffffffff168361072a614002565b808373ffffffffffffffffffffffffffffffffffffffff1673ffffffffffffffffffffffffffffffffffffffff1681526020018273ffffffffffffffffffffffffffffffffffffffff1673ffffffffffffffffffffffffffffffffffffffff16815260200192505050604051809103906000f08015156107a957600080fd5b91508273ffffffffffffffffffffffffffffffffffffffff166379ef704e836040518263ffffffff167c0100000000000000000000000000000000000000000000000000000000028152600401808273ffffffffffffffffffffffffffffffffffffffff1673ffffffffffffffffffffffffffffffffffffffff168152602001915050600060405180830381600087803b151561084557600080fd5b6102c65a03f1151561085657600080fd5b505050600260009054906101000a900473ffffffffffffffffffffffffffffffffffffffff1673ffffffffffffffffffffffffffffffffffffffff16637237a4b6836040518263ffffffff167c0100000000000000000000000000000000000000000000000000000000028152600401808273ffffffffffffffffffffffffffffffffffffffff1673ffffffffffffffffffffffffffffffffffffffff168152602001915050600060405180830381600087803b151561091557600080fd5b6102c65a03f1151561092657600080fd5b505050505050505050565b600080600160003373ffffffffffffffffffffffffffffffffffffffff1673ffffffffffffffffffffffffffffffffffffffff16815260200190815260200160002060009054906101000a900460ff16806109d857506000809054906101000a900473ffffffffffffffffffffffffffffffffffffffff1673ffffffffffffffffffffffffffffffffffffffff163373ffffffffffffffffffffffffffffffffffffffff16145b80610a0e57503073ffffffffffffffffffffffffffffffffffffffff163373ffffffffffffffffffffffffffffffffffffffff16145b1515610a1957600080fd5b60008060ff16600260009054906101000a900473ffffffffffffffffffffffffffffffffffffffff1673ffffffffffffffffffffffffffffffffffffffff1663b75b25ec6000604051602001526040518163ffffffff167c0100000000000000000000000000000000000000000000000000000000028152600401602060405180830381600087803b1515610aad57600080fd5b6102c65a03f11515610abe57600080fd5b5050506040518051905060ff16141515610ad757600080fd5b600260009054906101000a900473ffffffffffffffffffffffffffffffffffffffff1673ffffffffffffffffffffffffffffffffffffffff166326789d56336000604051604001526040518263ffffffff167c0100000000000000000000000000000000000000000000000000000000028152600401808273ffffffffffffffffffffffffffffffffffffffff1673ffffffffffffffffffffffffffffffffffffffff1681526020019150506040805180830381600087803b1515610b9b57600080fd5b6102c65a03f11515610bac57600080fd5b5050506040518051906020018051905092509250600083141515610bcf57600080fd5b600260009054906101000a900473ffffffffffffffffffffffffffffffffffffffff1673ffffffffffffffffffffffffffffffffffffffff1663b6a51734336001856040518463ffffffff167c0100000000000000000000000000000000000000000000000000000000028152600401808473ffffffffffffffffffffffffffffffffffffffff1673ffffffffffffffffffffffffffffffffffffffff1681526020018360ff1681526020018261ffff1661ffff1681526020019350505050600060405180830381600087803b1515610ca757600080fd5b6102c65a03f11515610cb857600080fd5b505050610cc5600161385d565b15610d7357600260009054906101000a900473ffffffffffffffffffffffffffffffffffffffff1673ffffffffffffffffffffffffffffffffffffffff16636bacc35560016040518263ffffffff167c0100000000000000000000000000000000000000000000000000000000028152600401808260ff168152602001915050600060405180830381600087803b1515610d5e57600080fd5b6102c65a03f11515610d6f57600080fd5b5050505b505050565b600080600080600093505b600260009054906101000a900473ffffffffffffffffffffffffffffffffffffffff1673ffffffffffffffffffffffffffffffffffffffff1663bfa8b9406000604051602001526040518163ffffffff167c0100000000000000000000000000000000000000000000000000000000028152600401602060405180830381600087803b1515610e1157600080fd5b6102c65a03f11515610e2257600080fd5b505050604051805190508460ff16101561106f57600260009054906101000a900473ffffffffffffffffffffffffffffffffffffffff1673ffffffffffffffffffffffffffffffffffffffff16637684cb24856000604051602001526040518263ffffffff167c0100000000000000000000000000000000000000000000000000000000028152600401808260ff168152602001915050602060405180830381600087803b1515610ed257600080fd5b6102c65a03f11515610ee357600080fd5b505050604051805190509250600260009054906101000a900473ffffffffffffffffffffffffffffffffffffffff1673ffffffffffffffffffffffffffffffffffffffff166326789d56846000604051604001526040518263ffffffff167c0100000000000000000000000000000000000000000000000000000000028152600401808273ffffffffffffffffffffffffffffffffffffffff1673ffffffffffffffffffffffffffffffffffffffff1681526020019150506040805180830381600087803b1515610fb357600080fd5b6102c65a03f11515610fc457600080fd5b5050506040518051906020018051905080925081935050507f22bb651d800432f5898c229b604b74dce848a1a7b1ea0f53f9a731250352692184848484604051808560ff1681526020018473ffffffffffffffffffffffffffffffffffffffff1673ffffffffffffffffffffffffffffffffffffffff1681526020018381526020018261ffff1661ffff16815260200194505050505060405180910390a18380600101945050610d83565b50505050565b600160003373ffffffffffffffffffffffffffffffffffffffff1673ffffffffffffffffffffffffffffffffffffffff16815260200190815260200160002060009054906101000a900460ff168061111957506000809054906101000a900473ffffffffffffffffffffffffffffffffffffffff1673ffffffffffffffffffffffffffffffffffffffff163373ffffffffffffffffffffffffffffffffffffffff16145b8061114f57503073ffffffffffffffffffffffffffffffffffffffff163373ffffffffffffffffffffffffffffffffffffffff16145b151561115a57600080fd5b60008060ff16600260009054906101000a900473ffffffffffffffffffffffffffffffffffffffff1673ffffffffffffffffffffffffffffffffffffffff1663b75b25ec6000604051602001526040518163ffffffff167c0100000000000000000000000000000000000000000000000000000000028152600401602060405180830381600087803b15156111ee57600080fd5b6102c65a03f115156111ff57600080fd5b5050506040518051905060ff1614151561121857600080fd5b600260009054906101000a900473ffffffffffffffffffffffffffffffffffffffff1673ffffffffffffffffffffffffffffffffffffffff16633bbb385684846040518363ffffffff167c0100000000000000000000000000000000000000000000000000000000028152600401808373ffffffffffffffffffffffffffffffffffffffff1673ffffffffffffffffffffffffffffffffffffffff1681526020018261ffff1661ffff16815260200192505050600060405180830381600087803b15156112e457600080fd5b6102c65a03f115156112f557600080fd5b5050506113018361332c565b505050565b60008060009054906101000a900473ffffffffffffffffffffffffffffffffffffffff1673ffffffffffffffffffffffffffffffffffffffff163373ffffffffffffffffffffffffffffffffffffffff1614151561136357600080fd5b600090505b600260009054906101000a900473ffffffffffffffffffffffffffffffffffffffff1673ffffffffffffffffffffffffffffffffffffffff16632a7c586e6000604051602001526040518163ffffffff167c0100000000000000000000000000000000000000000000000000000000028152600401602060405180830381600087803b15156113f657600080fd5b6102c65a03f1151561140757600080fd5b505050604051805190508160ff16101561155557600260009054906101000a900473ffffffffffffffffffffffffffffffffffffffff1673ffffffffffffffffffffffffffffffffffffffff1663e77b9d82826000604051602001526040518263ffffffff167c0100000000000000000000000000000000000000000000000000000000028152600401808260ff168152602001915050602060405180830381600087803b15156114b757600080fd5b6102c65a03f115156114c857600080fd5b5050506040518051905073ffffffffffffffffffffffffffffffffffffffff16633f4ba83a6040518163ffffffff167c0100000000000000000000000000000000000000000000000000000000028152600401600060405180830381600087803b151561153457600080fd5b6102c65a03f1151561154557600080fd5b5050508080600101915050611368565b50565b600080600160003373ffffffffffffffffffffffffffffffffffffffff1673ffffffffffffffffffffffffffffffffffffffff16815260200190815260200160002060009054906101000a900460ff16806115ff57506000809054906101000a900473ffffffffffffffffffffffffffffffffffffffff1673ffffffffffffffffffffffffffffffffffffffff163373ffffffffffffffffffffffffffffffffffffffff16145b8061163557503073ffffffffffffffffffffffffffffffffffffffff163373ffffffffffffffffffffffffffffffffffffffff16145b151561164057600080fd5b60048060ff16600260009054906101000a900473ffffffffffffffffffffffffffffffffffffffff1673ffffffffffffffffffffffffffffffffffffffff1663b75b25ec6000604051602001526040518163ffffffff167c0100000000000000000000000000000000000000000000000000000000028152600401602060405180830381600087803b15156116d457600080fd5b6102c65a03f115156116e557600080fd5b5050506040518051905060ff161415156116fe57600080fd5b600260009054906101000a900473ffffffffffffffffffffffffffffffffffffffff1673ffffffffffffffffffffffffffffffffffffffff166326789d56336000604051604001526040518263ffffffff167c0100000000000000000000000000000000000000000000000000000000028152600401808273ffffffffffffffffffffffffffffffffffffffff1673ffffffffffffffffffffffffffffffffffffffff1681526020019150506040805180830381600087803b15156117c257600080fd5b6102c65a03f115156117d357600080fd5b505050604051805190602001805190509250925083156118de57600260009054906101000a900473ffffffffffffffffffffffffffffffffffffffff1673ffffffffffffffffffffffffffffffffffffffff1663b6a51734336002856040518463ffffffff167c0100000000000000000000000000000000000000000000000000000000028152600401808473ffffffffffffffffffffffffffffffffffffffff1673ffffffffffffffffffffffffffffffffffffffff1681526020018360ff1681526020018261ffff1661ffff1681526020019350505050600060405180830381600087803b15156118c557600080fd5b6102c65a03f115156118d657600080fd5b5050506119cb565b600260009054906101000a900473ffffffffffffffffffffffffffffffffffffffff1673ffffffffffffffffffffffffffffffffffffffff1663b6a51734336003856040518463ffffffff167c0100000000000000000000000000000000000000000000000000000000028152600401808473ffffffffffffffffffffffffffffffffffffffff1673ffffffffffffffffffffffffffffffffffffffff1681526020018360ff1681526020018261ffff1661ffff1681526020019350505050600060405180830381600087803b15156119b657600080fd5b6102c65a03f115156119c757600080fd5b5050505b50505050565b60018060ff16600260009054906101000a900473ffffffffffffffffffffffffffffffffffffffff1673ffffffffffffffffffffffffffffffffffffffff1663b75b25ec6000604051602001526040518163ffffffff167c0100000000000000000000000000000000000000000000000000000000028152600401602060405180830381600087803b1515611a6557600080fd5b6102c65a03f11515611a7657600080fd5b5050506040518051905060ff16141515611a8f57600080fd5b600260009054906101000a900473ffffffffffffffffffffffffffffffffffffffff1673ffffffffffffffffffffffffffffffffffffffff1663e77b9d82846000604051602001526040518263ffffffff167c0100000000000000000000000000000000000000000000000000000000028152600401808260ff168152602001915050602060405180830381600087803b1515611b2b57600080fd5b6102c65a03f11515611b3c57600080fd5b5050506040518051905073ffffffffffffffffffffffffffffffffffffffff166384f9b56033846040518363ffffffff167c0100000000000000000000000000000000000000000000000000000000028152600401808373ffffffffffffffffffffffffffffffffffffffff1673ffffffffffffffffffffffffffffffffffffffff1681526020018260ff1661ffff16815260200192505050600060405180830381600087803b1515611bee57600080fd5b6102c65a03f11515611bff57600080fd5b505050505050565b60008060009150600090505b600260009054906101000a900473ffffffffffffffffffffffffffffffffffffffff1673ffffffffffffffffffffffffffffffffffffffff16632a7c586e6000604051602001526040518163ffffffff167c0100000000000000000000000000000000000000000000000000000000028152600401602060405180830381600087803b1515611ca157600080fd5b6102c65a03f11515611cb257600080fd5b505050604051805190508160ff161015611dc5573373ffffffffffffffffffffffffffffffffffffffff16600260009054906101000a900473ffffffffffffffffffffffffffffffffffffffff1673ffffffffffffffffffffffffffffffffffffffff1663e77b9d82836000604051602001526040518263ffffffff167c0100000000000000000000000000000000000000000000000000000000028152600401808260ff168152602001915050602060405180830381600087803b1515611d7957600080fd5b6102c65a03f11515611d8a57600080fd5b5050506040518051905073ffffffffffffffffffffffffffffffffffffffff161491508115611db857611dc5565b8080600101915050611c13565b811515611dd157600080fd5b5050505050565b6000600260009054906101000a900473ffffffffffffffffffffffffffffffffffffffff1673ffffffffffffffffffffffffffffffffffffffff1663e77b9d82836000604051602001526040518263ffffffff167c0100000000000000000000000000000000000000000000000000000000028152600401808261ffff168152602001915050602060405180830381600087803b1515611e7757600080fd5b6102c65a03f11515611e8857600080fd5b505050604051805190509050919050565b6000809054906101000a900473ffffffffffffffffffffffffffffffffffffffff1681565b60008060008060009054906101000a900473ffffffffffffffffffffffffffffffffffffffff1673ffffffffffffffffffffffffffffffffffffffff163373ffffffffffffffffffffffffffffffffffffffff16141515611f1e57600080fd5b60048060ff16600260009054906101000a900473ffffffffffffffffffffffffffffffffffffffff1673ffffffffffffffffffffffffffffffffffffffff1663b75b25ec6000604051602001526040518163ffffffff167c0100000000000000000000000000000000000000000000000000000000028152600401602060405180830381600087803b1515611fb257600080fd5b6102c65a03f11515611fc357600080fd5b5050506040518051905060ff16141515611fdc57600080fd5b611fe6600261385d565b9350611ff2600361385d565b92506004600260009054906101000a900473ffffffffffffffffffffffffffffffffffffffff1673ffffffffffffffffffffffffffffffffffffffff166306e8337f6000604051602001526040518163ffffffff167c0100000000000000000000000000000000000000000000000000000000028152600401602060405180830381600087803b151561208457600080fd5b6102c65a03f1151561209557600080fd5b505050604051805190508115156120a857fe5b04600260009054906101000a900473ffffffffffffffffffffffffffffffffffffffff1673ffffffffffffffffffffffffffffffffffffffff16631f2b04836000604051602001526040518163ffffffff167c0100000000000000000000000000000000000000000000000000000000028152600401602060405180830381600087803b151561213757600080fd5b6102c65a03f1151561214857600080fd5b5050506040518051905061ffff16600260009054906101000a900473ffffffffffffffffffffffffffffffffffffffff1673ffffffffffffffffffffffffffffffffffffffff166306e8337f6000604051602001526040518163ffffffff167c0100000000000000000000000000000000000000000000000000000000028152600401602060405180830381600087803b15156121e457600080fd5b6102c65a03f115156121f557600080fd5b50505060405180519050031115915082156122c757600260009054906101000a900473ffffffffffffffffffffffffffffffffffffffff1673ffffffffffffffffffffffffffffffffffffffff16636bacc35560066040518263ffffffff167c0100000000000000000000000000000000000000000000000000000000028152600401808260ff168152602001915050600060405180830381600087803b151561229e57600080fd5b6102c65a03f115156122af57600080fd5b5050506122ba613b1a565b6122c2613cc6565b612435565b8380156122d15750815b1561238b57600260009054906101000a900473ffffffffffffffffffffffffffffffffffffffff1673ffffffffffffffffffffffffffffffffffffffff16636bacc35560056040518263ffffffff167c0100000000000000000000000000000000000000000000000000000000028152600401808260ff168152602001915050600060405180830381600087803b151561236a57600080fd5b6102c65a03f1151561237b57600080fd5b505050612386613ef7565b612434565b600260009054906101000a900473ffffffffffffffffffffffffffffffffffffffff1673ffffffffffffffffffffffffffffffffffffffff16636bacc35560076040518263ffffffff167c0100000000000000000000000000000000000000000000000000000000028152600401808260ff168152602001915050600060405180830381600087803b151561241f57600080fd5b6102c65a03f1151561243057600080fd5b5050505b5b50505050565b6000806040805190810160405280600360ff168152602001600460ff1681525060008090505b60028160ff16101561254b57818160ff1660028110151561247e57fe5b602002015160ff16600260009054906101000a900473ffffffffffffffffffffffffffffffffffffffff1673ffffffffffffffffffffffffffffffffffffffff1663b75b25ec6000604051602001526040518163ffffffff167c0100000000000000000000000000000000000000000000000000000000028152600401602060405180830381600087803b151561251457600080fd5b6102c65a03f1151561252557600080fd5b5050506040518051905060ff1614151561253e57600080fd5b8080600101915050612461565b60009350600092505b600260009054906101000a900473ffffffffffffffffffffffffffffffffffffffff1673ffffffffffffffffffffffffffffffffffffffff16632a7c586e6000604051602001526040518163ffffffff167c0100000000000000000000000000000000000000000000000000000000028152600401602060405180830381600087803b15156125e257600080fd5b6102c65a03f115156125f357600080fd5b505050604051805190508360ff16101561278c57600260009054906101000a900473ffffffffffffffffffffffffffffffffffffffff1673ffffffffffffffffffffffffffffffffffffffff1663e77b9d82846000604051602001526040518263ffffffff167c0100000000000000000000000000000000000000000000000000000000028152600401808260ff168152602001915050602060405180830381600087803b15156126a357600080fd5b6102c65a03f115156126b457600080fd5b5050506040518051905073ffffffffffffffffffffffffffffffffffffffff1663dc6dfaaf336000604051602001526040518263ffffffff167c0100000000000000000000000000000000000000000000000000000000028152600401808273ffffffffffffffffffffffffffffffffffffffff1673ffffffffffffffffffffffffffffffffffffffff168152602001915050602060405180830381600087803b151561276057600080fd5b6102c65a03f1151561277157600080fd5b50505060405180519050840193508280600101935050612554565b600260009054906101000a900473ffffffffffffffffffffffffffffffffffffffff1673ffffffffffffffffffffffffffffffffffffffff166395cc35dc856040518263ffffffff167c0100000000000000000000000000000000000000000000000000000000028152600401808261ffff1661ffff168152602001915050600060405180830381600087803b151561282457600080fd5b6102c65a03f1151561283557600080fd5b50505050505050565b6000600260009054906101000a900473ffffffffffffffffffffffffffffffffffffffff1673ffffffffffffffffffffffffffffffffffffffff16632a7c586e6000604051602001526040518163ffffffff167c0100000000000000000000000000000000000000000000000000000000028152600401602060405180830381600087803b15156128ce57600080fd5b6102c65a03f115156128df57600080fd5b50505060405180519050905090565b600160003373ffffffffffffffffffffffffffffffffffffffff1673ffffffffffffffffffffffffffffffffffffffff16815260200190815260200160002060009054906101000a900460ff168061299257506000809054906101000a900473ffffffffffffffffffffffffffffffffffffffff1673ffffffffffffffffffffffffffffffffffffffff163373ffffffffffffffffffffffffffffffffffffffff16145b806129c857503073ffffffffffffffffffffffffffffffffffffffff163373ffffffffffffffffffffffffffffffffffffffff16145b15156129d357600080fd5b60008060ff16600260009054906101000a900473ffffffffffffffffffffffffffffffffffffffff1673ffffffffffffffffffffffffffffffffffffffff1663b75b25ec6000604051602001526040518163ffffffff167c0100000000000000000000000000000000000000000000000000000000028152600401602060405180830381600087803b1515612a6757600080fd5b6102c65a03f11515612a7857600080fd5b5050506040518051905060ff16141515612a9157600080fd5b600260009054906101000a900473ffffffffffffffffffffffffffffffffffffffff1673ffffffffffffffffffffffffffffffffffffffff1663d04e48f1846040518263ffffffff167c010000000000000000000000000000000000000000000000000000000002815260040180828152602001915050600060405180830381600087803b1515612b2157600080fd5b6102c65a03f11515612b3257600080fd5b505050600260009054906101000a900473ffffffffffffffffffffffffffffffffffffffff1673ffffffffffffffffffffffffffffffffffffffff1663f6be71d1836040518263ffffffff167c010000000000000000000000000000000000000000000000000000000002815260040180828152602001915050600060405180830381600087803b1515612bc557600080fd5b6102c65a03f11515612bd657600080fd5b505050505050565b6000600260009054906101000a900473ffffffffffffffffffffffffffffffffffffffff1673ffffffffffffffffffffffffffffffffffffffff1663b75b25ec6000604051602001526040518163ffffffff167c0100000000000000000000000000000000000000000000000000000000028152600401602060405180830381600087803b1515612c6e57600080fd5b6102c65a03f11515612c7f57600080fd5b50505060405180519050905090565b6000809054906101000a900473ffffffffffffffffffffffffffffffffffffffff1673ffffffffffffffffffffffffffffffffffffffff163373ffffffffffffffffffffffffffffffffffffffff16141515612ce957600080fd5b6040805190810160405280600160ff168152602001600260ff1681525060008090505b60028160ff161015612df657818160ff16600281101515612d2957fe5b602002015160ff16600260009054906101000a900473ffffffffffffffffffffffffffffffffffffffff1673ffffffffffffffffffffffffffffffffffffffff1663b75b25ec6000604051602001526040518163ffffffff167c0100000000000000000000000000000000000000000000000000000000028152600401602060405180830381600087803b1515612dbf57600080fd5b6102c65a03f11515612dd057600080fd5b5050506040518051905060ff16141515612de957600080fd5b8080600101915050612d0c565b600260009054906101000a900473ffffffffffffffffffffffffffffffffffffffff1673ffffffffffffffffffffffffffffffffffffffff16636bacc35560036040518263ffffffff167c0100000000000000000000000000000000000000000000000000000000028152600401808260ff168152602001915050600060405180830381600087803b1515612e8a57600080fd5b6102c65a03f11515612e9b57600080fd5b5050505050565b600160003373ffffffffffffffffffffffffffffffffffffffff1673ffffffffffffffffffffffffffffffffffffffff16815260200190815260200160002060009054906101000a900460ff1680612f4657506000809054906101000a900473ffffffffffffffffffffffffffffffffffffffff1673ffffffffffffffffffffffffffffffffffffffff163373ffffffffffffffffffffffffffffffffffffffff16145b80612f7c57503073ffffffffffffffffffffffffffffffffffffffff163373ffffffffffffffffffffffffffffffffffffffff16145b1515612f8757600080fd5b6040805190810160405280600060ff168152602001600160ff1681525060008090505b60028160ff16101561309457818160ff16600281101515612fc757fe5b602002015160ff16600260009054906101000a900473ffffffffffffffffffffffffffffffffffffffff1673ffffffffffffffffffffffffffffffffffffffff1663b75b25ec6000604051602001526040518163ffffffff167c0100000000000000000000000000000000000000000000000000000000028152600401602060405180830381600087803b151561305d57600080fd5b6102c65a03f1151561306e57600080fd5b5050506040518051905060ff1614151561308757600080fd5b8080600101915050612faa565b600260009054906101000a900473ffffffffffffffffffffffffffffffffffffffff1673ffffffffffffffffffffffffffffffffffffffff16636bacc35560086040518263ffffffff167c0100000000000000000000000000000000000000000000000000000000028152600401808260ff168152602001915050600060405180830381600087803b151561312857600080fd5b6102c65a03f1151561313957600080fd5b505050613144613b1a565b5050565b60016020528060005260406000206000915054906101000a900460ff1681565b6000809054906101000a900473ffffffffffffffffffffffffffffffffffffffff1673ffffffffffffffffffffffffffffffffffffffff163373ffffffffffffffffffffffffffffffffffffffff161415156131c357600080fd5b60038060ff16600260009054906101000a900473ffffffffffffffffffffffffffffffffffffffff1673ffffffffffffffffffffffffffffffffffffffff1663b75b25ec6000604051602001526040518163ffffffff167c0100000000000000000000000000000000000000000000000000000000028152600401602060405180830381600087803b151561325757600080fd5b6102c65a03f1151561326857600080fd5b5050506040518051905060ff1614151561328157600080fd5b600260009054906101000a900473ffffffffffffffffffffffffffffffffffffffff1673ffffffffffffffffffffffffffffffffffffffff16636bacc35560046040518263ffffffff167c0100000000000000000000000000000000000000000000000000000000028152600401808260ff168152602001915050600060405180830381600087803b151561331557600080fd5b6102c65a03f1151561332657600080fd5b50505050565b60018060008373ffffffffffffffffffffffffffffffffffffffff1673ffffffffffffffffffffffffffffffffffffffff16815260200190815260200160002060006101000a81548160ff02191690831515021790555050565b6000809054906101000a900473ffffffffffffffffffffffffffffffffffffffff1673ffffffffffffffffffffffffffffffffffffffff163373ffffffffffffffffffffffffffffffffffffffff161415156133e157600080fd5b60078060ff16600260009054906101000a900473ffffffffffffffffffffffffffffffffffffffff1673ffffffffffffffffffffffffffffffffffffffff1663b75b25ec6000604051602001526040518163ffffffff167c0100000000000000000000000000000000000000000000000000000000028152600401602060405180830381600087803b151561347557600080fd5b6102c65a03f1151561348657600080fd5b5050506040518051905060ff1614151561349f57600080fd5b811561355a57600260009054906101000a900473ffffffffffffffffffffffffffffffffffffffff1673ffffffffffffffffffffffffffffffffffffffff16636bacc35560056040518263ffffffff167c0100000000000000000000000000000000000000000000000000000000028152600401808260ff168152602001915050600060405180830381600087803b151561353957600080fd5b6102c65a03f1151561354a57600080fd5b505050613555613ef7565b61360b565b600260009054906101000a900473ffffffffffffffffffffffffffffffffffffffff1673ffffffffffffffffffffffffffffffffffffffff16636bacc35560066040518263ffffffff167c0100000000000000000000000000000000000000000000000000000000028152600401808260ff168152602001915050600060405180830381600087803b15156135ee57600080fd5b6102c65a03f115156135ff57600080fd5b50505061360a613b1a565b5b5050565b600160003373ffffffffffffffffffffffffffffffffffffffff1673ffffffffffffffffffffffffffffffffffffffff16815260200190815260200160002060009054906101000a900460ff16806136b357506000809054906101000a900473ffffffffffffffffffffffffffffffffffffffff1673ffffffffffffffffffffffffffffffffffffffff163373ffffffffffffffffffffffffffffffffffffffff16145b806136e957503073ffffffffffffffffffffffffffffffffffffffff163373ffffffffffffffffffffffffffffffffffffffff16145b15156136f457600080fd5b60018060ff16600260009054906101000a900473ffffffffffffffffffffffffffffffffffffffff1673ffffffffffffffffffffffffffffffffffffffff1663b75b25ec6000604051602001526040518163ffffffff167c0100000000000000000000000000000000000000000000000000000000028152600401602060405180830381600087803b151561378857600080fd5b6102c65a03f1151561379957600080fd5b5050506040518051905060ff161415156137b257600080fd5b600260009054906101000a900473ffffffffffffffffffffffffffffffffffffffff1673ffffffffffffffffffffffffffffffffffffffff16636bacc35560026040518263ffffffff167c0100000000000000000000000000000000000000000000000000000000028152600401808260ff168152602001915050600060405180830381600087803b151561384657600080fd5b6102c65a03f1151561385757600080fd5b50505050565b60008060003073ffffffffffffffffffffffffffffffffffffffff163373ffffffffffffffffffffffffffffffffffffffff1614151561389c57600080fd5b600091505b600260009054906101000a900473ffffffffffffffffffffffffffffffffffffffff1673ffffffffffffffffffffffffffffffffffffffff1663bfa8b9406000604051602001526040518163ffffffff167c0100000000000000000000000000000000000000000000000000000000028152600401602060405180830381600087803b151561392f57600080fd5b6102c65a03f1151561394057600080fd5b50505060405180519050821015613b0e57600260009054906101000a900473ffffffffffffffffffffffffffffffffffffffff1673ffffffffffffffffffffffffffffffffffffffff166326789d56600260009054906101000a900473ffffffffffffffffffffffffffffffffffffffff1673ffffffffffffffffffffffffffffffffffffffff16637684cb24856000604051602001526040518263ffffffff167c010000000000000000000000000000000000000000000000000000000002815260040180828152602001915050602060405180830381600087803b1515613a2857600080fd5b6102c65a03f11515613a3957600080fd5b505050604051805190506000604051604001526040518263ffffffff167c0100000000000000000000000000000000000000000000000000000000028152600401808273ffffffffffffffffffffffffffffffffffffffff1673ffffffffffffffffffffffffffffffffffffffff1681526020019150506040805180830381600087803b1515613ac857600080fd5b6102c65a03f11515613ad957600080fd5b505050604051805190602001805190505090508360ff1681141515613b015760009250613b13565b81806001019250506138a1565b600192505b5050919050565b3073ffffffffffffffffffffffffffffffffffffffff163373ffffffffffffffffffffffffffffffffffffffff16141515613b5457600080fd5b6006600260009054906101000a900473ffffffffffffffffffffffffffffffffffffffff1673ffffffffffffffffffffffffffffffffffffffff1663b75b25ec6000604051602001526040518163ffffffff167c0100000000000000000000000000000000000000000000000000000000028152600401602060405180830381600087803b1515613be457600080fd5b6102c65a03f11515613bf557600080fd5b5050506040518051905060ff161480613cb957506008600260009054906101000a900473ffffffffffffffffffffffffffffffffffffffff1673ffffffffffffffffffffffffffffffffffffffff1663b75b25ec6000604051602001526040518163ffffffff167c0100000000000000000000000000000000000000000000000000000000028152600401602060405180830381600087803b1515613c9957600080fd5b6102c65a03f11515613caa57600080fd5b5050506040518051905060ff16145b1515613cc457600080fd5b565b60003073ffffffffffffffffffffffffffffffffffffffff163373ffffffffffffffffffffffffffffffffffffffff16141515613d0257600080fd5b600090505b600260009054906101000a900473ffffffffffffffffffffffffffffffffffffffff1673ffffffffffffffffffffffffffffffffffffffff16632a7c586e6000604051602001526040518163ffffffff167c0100000000000000000000000000000000000000000000000000000000028152600401602060405180830381600087803b1515613d9557600080fd5b6102c65a03f11515613da657600080fd5b505050604051805190508160ff161015613ef457600260009054906101000a900473ffffffffffffffffffffffffffffffffffffffff1673ffffffffffffffffffffffffffffffffffffffff1663e77b9d82826000604051602001526040518263ffffffff167c0100000000000000000000000000000000000000000000000000000000028152600401808260ff168152602001915050602060405180830381600087803b1515613e5657600080fd5b6102c65a03f11515613e6757600080fd5b5050506040518051905073ffffffffffffffffffffffffffffffffffffffff16638456cb596040518163ffffffff167c0100000000000000000000000000000000000000000000000000000000028152600401600060405180830381600087803b1515613ed357600080fd5b6102c65a03f11515613ee457600080fd5b5050508080600101915050613d07565b50565b3073ffffffffffffffffffffffffffffffffffffffff163373ffffffffffffffffffffffffffffffffffffffff16141515613f3157600080fd5b60058060ff16600260009054906101000a900473ffffffffffffffffffffffffffffffffffffffff1673ffffffffffffffffffffffffffffffffffffffff1663b75b25ec6000604051602001526040518163ffffffff167c0100000000000000000000000000000000000000000000000000000000028152600401602060405180830381600087803b1515613fc557600080fd5b6102c65a03f11515613fd657600080fd5b5050506040518051905060ff16141515613fef57600080fd5b50565b6040516113338061401383390190565b604051613e518061534683390190560060606040526000600260056101000a81548161ffff021916908361ffff1602179055506000600260076101000a81548161ffff021916908361ffff160217905550341561004b57600080fd5b6040516060806113338339810160405280805190602001909190805190602001909190805190602001909190505033806000806101000a81548173ffffffffffffffffffffffffffffffffffffffff021916908373ffffffffffffffffffffffffffffffffffffffff1602179055505081600260006101000a81548161ffff021916908361ffff16021790555082600260036101000a81548161ffff021916908361ffff160217905550806002806101000a81548160ff021916908360ff160217905550505050611212806101216000396000f30060606040526004361061015f576000357c0100000000000000000000000000000000000000000000000000000000900463ffffffff1680630c737add14610164578063122282501461019357806315dae03e146101d957806318160ddd146102085780632096525514610239578063355274ea1461026a5780633aa763821461029b5780633fa4f245146102c4578063554d578d146102f5578063562e438b146103265780635e7f95d31461034d57806369fa0f151461038657806379ef704e146103ad5780638812d7ae146103e65780638da5cb5b1461040d57806398976d0114610462578063b2309070146104b7578063b9ec93c8146104e8578063c4e41b221461054f578063c701e30514610580578063d0feb460146105d5578063d4b9a6c91461061b578063e1cb547e14610661578063f059840714610692578063f2fde38b146106e7578063f7719f2b14610720578063f8b2cb4f14610766575b600080fd5b341561016f57600080fd5b6101776107bb565b604051808260ff1660ff16815260200191505060405180910390f35b341561019e57600080fd5b6101d7600480803573ffffffffffffffffffffffffffffffffffffffff1690602001909190803561ffff169060200190919050506107cd565b005b34156101e457600080fd5b6101ec610883565b604051808260ff1660ff16815260200191505060405180910390f35b341561021357600080fd5b61021b610899565b604051808261ffff1661ffff16815260200191505060405180910390f35b341561024457600080fd5b61024c6108ad565b604051808261ffff1661ffff16815260200191505060405180910390f35b341561027557600080fd5b61027d6108c5565b604051808261ffff1661ffff16815260200191505060405180910390f35b34156102a657600080fd5b6102ae6108d9565b6040518082815260200191505060405180910390f35b34156102cf57600080fd5b6102d76108e6565b604051808261ffff1661ffff16815260200191505060405180910390f35b341561030057600080fd5b6103086108fa565b604051808261ffff1661ffff16815260200191505060405180910390f35b341561033157600080fd5b61034b600480803561ffff16906020019091905050610912565b005b341561035857600080fd5b610384600480803573ffffffffffffffffffffffffffffffffffffffff1690602001909190505061098a565b005b341561039157600080fd5b6103ab600480803561ffff16906020019091905050610a48565b005b34156103b857600080fd5b6103e4600480803573ffffffffffffffffffffffffffffffffffffffff16906020019091905050610ac0565b005b34156103f157600080fd5b61040b600480803561ffff16906020019091905050610b75565b005b341561041857600080fd5b610420610c11565b604051808273ffffffffffffffffffffffffffffffffffffffff1673ffffffffffffffffffffffffffffffffffffffff16815260200191505060405180910390f35b341561046d57600080fd5b610499600480803573ffffffffffffffffffffffffffffffffffffffff16906020019091905050610c36565b604051808261ffff1661ffff16815260200191505060405180910390f35b34156104c257600080fd5b6104ca610c8d565b604051808261ffff1661ffff16815260200191505060405180910390f35b34156104f357600080fd5b61050d600480803561ffff16906020019091905050610ca1565b604051808273ffffffffffffffffffffffffffffffffffffffff1673ffffffffffffffffffffffffffffffffffffffff16815260200191505060405180910390f35b341561055a57600080fd5b610562610ce9565b604051808261ffff1661ffff16815260200191505060405180910390f35b341561058b57600080fd5b6105b7600480803573ffffffffffffffffffffffffffffffffffffffff16906020019091905050610d01565b604051808261ffff1661ffff16815260200191505060405180910390f35b34156105e057600080fd5b610619600480803573ffffffffffffffffffffffffffffffffffffffff1690602001909190803561ffff16906020019091905050610d58565b005b341561062657600080fd5b61065f600480803573ffffffffffffffffffffffffffffffffffffffff1690602001909190803561ffff16906020019091905050610e0e565b005b341561066c57600080fd5b610674610ec4565b604051808261ffff1661ffff16815260200191505060405180910390f35b341561069d57600080fd5b6106c9600480803573ffffffffffffffffffffffffffffffffffffffff16906020019091905050610edc565b604051808261ffff1661ffff16815260200191505060405180910390f35b34156106f257600080fd5b61071e600480803573ffffffffffffffffffffffffffffffffffffffff16906020019091905050610f33565b005b341561072b57600080fd5b610764600480803573ffffffffffffffffffffffffffffffffffffffff1690602001909190803561ffff16906020019091905050611088565b005b341561077157600080fd5b61079d600480803573ffffffffffffffffffffffffffffffffffffffff1690602001909190505061113e565b604051808261ffff1661ffff16815260200191505060405180910390f35b6002809054906101000a900460ff1681565b600160003373ffffffffffffffffffffffffffffffffffffffff1673ffffffffffffffffffffffffffffffffffffffff16815260200190815260200160002060009054906101000a900460ff16151561082557600080fd5b80600460008473ffffffffffffffffffffffffffffffffffffffff1673ffffffffffffffffffffffffffffffffffffffff16815260200190815260200160002060006101000a81548161ffff021916908361ffff1602179055505050565b60006002809054906101000a900460ff16905090565b600260059054906101000a900461ffff1681565b6000600260009054906101000a900461ffff16905090565b600260039054906101000a900461ffff1681565b6000600780549050905090565b600260009054906101000a900461ffff1681565b6000600260039054906101000a900461ffff16905090565b600160003373ffffffffffffffffffffffffffffffffffffffff1673ffffffffffffffffffffffffffffffffffffffff16815260200190815260200160002060009054906101000a900460ff16151561096a57600080fd5b80600260056101000a81548161ffff021916908361ffff16021790555050565b600160003373ffffffffffffffffffffffffffffffffffffffff1673ffffffffffffffffffffffffffffffffffffffff16815260200190815260200160002060009054906101000a900460ff1615156109e257600080fd5b600780548060010182816109f69190611195565b9160005260206000209001600083909190916101000a81548173ffffffffffffffffffffffffffffffffffffffff021916908373ffffffffffffffffffffffffffffffffffffffff1602179055505050565b600160003373ffffffffffffffffffffffffffffffffffffffff1673ffffffffffffffffffffffffffffffffffffffff16815260200190815260200160002060009054906101000a900460ff161515610aa057600080fd5b80600260076101000a81548161ffff021916908361ffff16021790555050565b6000809054906101000a900473ffffffffffffffffffffffffffffffffffffffff1673ffffffffffffffffffffffffffffffffffffffff163373ffffffffffffffffffffffffffffffffffffffff16141515610b1b57600080fd5b60018060008373ffffffffffffffffffffffffffffffffffffffff1673ffffffffffffffffffffffffffffffffffffffff16815260200190815260200160002060006101000a81548160ff02191690831515021790555050565b600160003373ffffffffffffffffffffffffffffffffffffffff1673ffffffffffffffffffffffffffffffffffffffff16815260200190815260200160002060009054906101000a900460ff161515610bcd57600080fd5b60078161ffff16815481101515610be057fe5b906000526020600020900160006101000a81549073ffffffffffffffffffffffffffffffffffffffff021916905550565b6000809054906101000a900473ffffffffffffffffffffffffffffffffffffffff1681565b6000600560008373ffffffffffffffffffffffffffffffffffffffff1673ffffffffffffffffffffffffffffffffffffffff16815260200190815260200160002060009054906101000a900461ffff169050919050565b600260079054906101000a900461ffff1681565b600060078261ffff16815481101515610cb657fe5b906000526020600020900160009054906101000a900473ffffffffffffffffffffffffffffffffffffffff169050919050565b6000600260059054906101000a900461ffff16905090565b6000600460008373ffffffffffffffffffffffffffffffffffffffff1673ffffffffffffffffffffffffffffffffffffffff16815260200190815260200160002060009054906101000a900461ffff169050919050565b600160003373ffffffffffffffffffffffffffffffffffffffff1673ffffffffffffffffffffffffffffffffffffffff16815260200190815260200160002060009054906101000a900460ff161515610db057600080fd5b80600360008473ffffffffffffffffffffffffffffffffffffffff1673ffffffffffffffffffffffffffffffffffffffff16815260200190815260200160002060006101000a81548161ffff021916908361ffff1602179055505050565b600160003373ffffffffffffffffffffffffffffffffffffffff1673ffffffffffffffffffffffffffffffffffffffff16815260200190815260200160002060009054906101000a900460ff161515610e6657600080fd5b80600560008473ffffffffffffffffffffffffffffffffffffffff1673ffffffffffffffffffffffffffffffffffffffff16815260200190815260200160002060006101000a81548161ffff021916908361ffff1602179055505050565b6000600260079054906101000a900461ffff16905090565b6000600460008373ffffffffffffffffffffffffffffffffffffffff1673ffffffffffffffffffffffffffffffffffffffff16815260200190815260200160002060009054906101000a900461ffff169050919050565b6000809054906101000a900473ffffffffffffffffffffffffffffffffffffffff1673ffffffffffffffffffffffffffffffffffffffff163373ffffffffffffffffffffffffffffffffffffffff16141515610f8e57600080fd5b600073ffffffffffffffffffffffffffffffffffffffff168173ffffffffffffffffffffffffffffffffffffffff1614151515610fca57600080fd5b8073ffffffffffffffffffffffffffffffffffffffff166000809054906101000a900473ffffffffffffffffffffffffffffffffffffffff1673ffffffffffffffffffffffffffffffffffffffff167f8be0079c531659141344cd1fd0a4f28419497f9722a3daafe3b4186f6b6457e060405160405180910390a3806000806101000a81548173ffffffffffffffffffffffffffffffffffffffff021916908373ffffffffffffffffffffffffffffffffffffffff16021790555050565b600160003373ffffffffffffffffffffffffffffffffffffffff1673ffffffffffffffffffffffffffffffffffffffff16815260200190815260200160002060009054906101000a900460ff1615156110e057600080fd5b80600460008473ffffffffffffffffffffffffffffffffffffffff1673ffffffffffffffffffffffffffffffffffffffff16815260200190815260200160002060006101000a81548161ffff021916908361ffff1602179055505050565b6000600360008373ffffffffffffffffffffffffffffffffffffffff1673ffffffffffffffffffffffffffffffffffffffff16815260200190815260200160002060009054906101000a900461ffff169050919050565b8154818355818115116111bc578183600052602060002091820191016111bb91906111c1565b5b505050565b6111e391905b808211156111df5760008160009055506001016111c7565b5090565b905600a165627a7a72305820da32d133dacb703ff919c9a322db28e1d759eec32e45e3bde51a1d503109104c002960606040526000600260006101000a81548160ff021916908315150217905550341561002a57600080fd5b604051604080613e51833981016040528080519060200190919080519060200190919050508133816000806101000a81548173ffffffffffffffffffffffffffffffffffffffff021916908373ffffffffffffffffffffffffffffffffffffffff16021790555060018060008373ffffffffffffffffffffffffffffffffffffffff1673ffffffffffffffffffffffffffffffffffffffff16815260200190815260200160002060006101000a81548160ff021916908315150217905550505080600260016101000a81548173ffffffffffffffffffffffffffffffffffffffff021916908373ffffffffffffffffffffffffffffffffffffffff1602179055505050613d158061013c6000396000f3006060604052600436106100fc576000357c0100000000000000000000000000000000000000000000000000000000900463ffffffff16806320965255146101015780633e5beab9146101325780633f4ba83a1461017f5780634ec3dcfe14610194578063554d578d146102115780635c975abb1461024257806370a082311461026f57806373d4a13a146102c45780638456cb591461031957806384f9b5601461032e57806389fcdbc5146103745780638da5cb5b146103b3578063c4e41b2214610408578063c76b4cef14610439578063dc6dfaaf14610460578063ed25d8b7146104b5578063eee0022414610506578063f269b7bf14610564575b600080fd5b341561010c57600080fd5b61011461059d565b604051808261ffff1661ffff16815260200191505060405180910390f35b341561013d57600080fd5b610169600480803573ffffffffffffffffffffffffffffffffffffffff1690602001909190505061064d565b6040518082815260200191505060405180910390f35b341561018a57600080fd5b61019261073a565b005b341561019f57600080fd5b6101f7600480803573ffffffffffffffffffffffffffffffffffffffff1690602001909190803573ffffffffffffffffffffffffffffffffffffffff1690602001909190803561ffff169060200190919050506107f9565b604051808215151515815260200191505060405180910390f35b341561021c57600080fd5b610224610fb8565b604051808261ffff1661ffff16815260200191505060405180910390f35b341561024d57600080fd5b610255611068565b604051808215151515815260200191505060405180910390f35b341561027a57600080fd5b6102a6600480803573ffffffffffffffffffffffffffffffffffffffff1690602001909190505061107b565b604051808261ffff1661ffff16815260200191505060405180910390f35b34156102cf57600080fd5b6102d7611164565b604051808273ffffffffffffffffffffffffffffffffffffffff1673ffffffffffffffffffffffffffffffffffffffff16815260200191505060405180910390f35b341561032457600080fd5b61032c61118a565b005b341561033957600080fd5b610372600480803573ffffffffffffffffffffffffffffffffffffffff1690602001909190803561ffff169060200190919050506112d4565b005b341561037f57600080fd5b610399600480803561ffff16906020019091905050611fe7565b604051808215151515815260200191505060405180910390f35b34156103be57600080fd5b6103c66125d9565b604051808273ffffffffffffffffffffffffffffffffffffffff1673ffffffffffffffffffffffffffffffffffffffff16815260200191505060405180910390f35b341561041357600080fd5b61041b6125fe565b604051808261ffff1661ffff16815260200191505060405180910390f35b341561044457600080fd5b61045e600480803561ffff169060200190919050506126ae565b005b341561046b57600080fd5b610497600480803573ffffffffffffffffffffffffffffffffffffffff16906020019091905050612d25565b604051808261ffff1661ffff16815260200191505060405180910390f35b34156104c057600080fd5b6104ec600480803573ffffffffffffffffffffffffffffffffffffffff16906020019091905050613382565b604051808215151515815260200191505060405180910390f35b341561051157600080fd5b61054a600480803573ffffffffffffffffffffffffffffffffffffffff1690602001909190803561ffff169060200190919050506133a2565b604051808215151515815260200191505060405180910390f35b341561056f57600080fd5b61059b600480803573ffffffffffffffffffffffffffffffffffffffff16906020019091905050613c34565b005b6000600260019054906101000a900473ffffffffffffffffffffffffffffffffffffffff1673ffffffffffffffffffffffffffffffffffffffff1663209652556000604051602001526040518163ffffffff167c0100000000000000000000000000000000000000000000000000000000028152600401602060405180830381600087803b151561062d57600080fd5b6102c65a03f1151561063e57600080fd5b50505060405180519050905090565b6000600260019054906101000a900473ffffffffffffffffffffffffffffffffffffffff1673ffffffffffffffffffffffffffffffffffffffff1663f0598407836000604051602001526040518263ffffffff167c0100000000000000000000000000000000000000000000000000000000028152600401808273ffffffffffffffffffffffffffffffffffffffff1673ffffffffffffffffffffffffffffffffffffffff168152602001915050602060405180830381600087803b151561071457600080fd5b6102c65a03f1151561072557600080fd5b5050506040518051905061ffff169050919050565b6000809054906101000a900473ffffffffffffffffffffffffffffffffffffffff1673ffffffffffffffffffffffffffffffffffffffff163373ffffffffffffffffffffffffffffffffffffffff1614151561079557600080fd5b600260009054906101000a900460ff1615156107b057600080fd5b6000600260006101000a81548160ff0219169083151502179055507f7805862f689e2f13df9f062ff482ad3ad112aca9e0847911ed832e158c525b3360405160405180910390a1565b6000600160003373ffffffffffffffffffffffffffffffffffffffff1673ffffffffffffffffffffffffffffffffffffffff16815260200190815260200160002060009054906101000a900460ff168061089f57506000809054906101000a900473ffffffffffffffffffffffffffffffffffffffff1673ffffffffffffffffffffffffffffffffffffffff163373ffffffffffffffffffffffffffffffffffffffff16145b806108d557503073ffffffffffffffffffffffffffffffffffffffff163373ffffffffffffffffffffffffffffffffffffffff16145b15156108e057600080fd5b600260009054906101000a900460ff161515156108fc57600080fd5b600073ffffffffffffffffffffffffffffffffffffffff168373ffffffffffffffffffffffffffffffffffffffff161415151561093857600080fd5b600260019054906101000a900473ffffffffffffffffffffffffffffffffffffffff1673ffffffffffffffffffffffffffffffffffffffff1663f0598407856000604051602001526040518263ffffffff167c0100000000000000000000000000000000000000000000000000000000028152600401808273ffffffffffffffffffffffffffffffffffffffff1673ffffffffffffffffffffffffffffffffffffffff168152602001915050602060405180830381600087803b15156109fd57600080fd5b6102c65a03f11515610a0e57600080fd5b5050506040518051905061ffff168261ffff1611151515610a2e57600080fd5b600260019054906101000a900473ffffffffffffffffffffffffffffffffffffffff1673ffffffffffffffffffffffffffffffffffffffff1663d0feb46085610b6385600260019054906101000a900473ffffffffffffffffffffffffffffffffffffffff1673ffffffffffffffffffffffffffffffffffffffff1663f8b2cb4f8a6000604051602001526040518263ffffffff167c0100000000000000000000000000000000000000000000000000000000028152600401808273ffffffffffffffffffffffffffffffffffffffff1673ffffffffffffffffffffffffffffffffffffffff168152602001915050602060405180830381600087803b1515610b3657600080fd5b6102c65a03f11515610b4757600080fd5b5050506040518051905061ffff16613c8e90919063ffffffff16565b6040518363ffffffff167c0100000000000000000000000000000000000000000000000000000000028152600401808373ffffffffffffffffffffffffffffffffffffffff1673ffffffffffffffffffffffffffffffffffffffff1681526020018261ffff1661ffff16815260200192505050600060405180830381600087803b1515610bef57600080fd5b6102c65a03f11515610c0057600080fd5b505050600260019054906101000a900473ffffffffffffffffffffffffffffffffffffffff1673ffffffffffffffffffffffffffffffffffffffff16631222825085610d3885600260019054906101000a900473ffffffffffffffffffffffffffffffffffffffff1673ffffffffffffffffffffffffffffffffffffffff1663f05984078a6000604051602001526040518263ffffffff167c0100000000000000000000000000000000000000000000000000000000028152600401808273ffffffffffffffffffffffffffffffffffffffff1673ffffffffffffffffffffffffffffffffffffffff168152602001915050602060405180830381600087803b1515610d0b57600080fd5b6102c65a03f11515610d1c57600080fd5b5050506040518051905061ffff16613c8e90919063ffffffff16565b6040518363ffffffff167c0100000000000000000000000000000000000000000000000000000000028152600401808373ffffffffffffffffffffffffffffffffffffffff1673ffffffffffffffffffffffffffffffffffffffff1681526020018261ffff1661ffff16815260200192505050600060405180830381600087803b1515610dc457600080fd5b6102c65a03f11515610dd557600080fd5b505050600260019054906101000a900473ffffffffffffffffffffffffffffffffffffffff1673ffffffffffffffffffffffffffffffffffffffff1663d0feb46084610f0d85600260019054906101000a900473ffffffffffffffffffffffffffffffffffffffff1673ffffffffffffffffffffffffffffffffffffffff1663f8b2cb4f896000604051602001526040518263ffffffff167c0100000000000000000000000000000000000000000000000000000000028152600401808273ffffffffffffffffffffffffffffffffffffffff1673ffffffffffffffffffffffffffffffffffffffff168152602001915050602060405180830381600087803b1515610ee057600080fd5b6102c65a03f11515610ef157600080fd5b5050506040518051905061ffff16613caf90919063ffffffff16565b6040518363ffffffff167c0100000000000000000000000000000000000000000000000000000000028152600401808373ffffffffffffffffffffffffffffffffffffffff1673ffffffffffffffffffffffffffffffffffffffff1681526020018261ffff1661ffff16815260200192505050600060405180830381600087803b1515610f9957600080fd5b6102c65a03f11515610faa57600080fd5b505050600190509392505050565b6000600260019054906101000a900473ffffffffffffffffffffffffffffffffffffffff1673ffffffffffffffffffffffffffffffffffffffff1663554d578d6000604051602001526040518163ffffffff167c0100000000000000000000000000000000000000000000000000000000028152600401602060405180830381600087803b151561104857600080fd5b6102c65a03f1151561105957600080fd5b50505060405180519050905090565b600260009054906101000a900460ff1681565b6000600260019054906101000a900473ffffffffffffffffffffffffffffffffffffffff1673ffffffffffffffffffffffffffffffffffffffff1663f8b2cb4f836000604051602001526040518263ffffffff167c0100000000000000000000000000000000000000000000000000000000028152600401808273ffffffffffffffffffffffffffffffffffffffff1673ffffffffffffffffffffffffffffffffffffffff168152602001915050602060405180830381600087803b151561114257600080fd5b6102c65a03f1151561115357600080fd5b505050604051805190509050919050565b600260019054906101000a900473ffffffffffffffffffffffffffffffffffffffff1681565b600160003373ffffffffffffffffffffffffffffffffffffffff1673ffffffffffffffffffffffffffffffffffffffff16815260200190815260200160002060009054906101000a900460ff168061122e57506000809054906101000a900473ffffffffffffffffffffffffffffffffffffffff1673ffffffffffffffffffffffffffffffffffffffff163373ffffffffffffffffffffffffffffffffffffffff16145b8061126457503073ffffffffffffffffffffffffffffffffffffffff163373ffffffffffffffffffffffffffffffffffffffff16145b151561126f57600080fd5b600260009054906101000a900460ff1615151561128b57600080fd5b6001600260006101000a81548160ff0219169083151502179055507f6985a02210a168e66602d3235cb6db0e70f92b3ba4d376a33c0f3d9434bff62560405160405180910390a1565b6000600160003373ffffffffffffffffffffffffffffffffffffffff1673ffffffffffffffffffffffffffffffffffffffff16815260200190815260200160002060009054906101000a900460ff168061137a57506000809054906101000a900473ffffffffffffffffffffffffffffffffffffffff1673ffffffffffffffffffffffffffffffffffffffff163373ffffffffffffffffffffffffffffffffffffffff16145b806113b057503073ffffffffffffffffffffffffffffffffffffffff163373ffffffffffffffffffffffffffffffffffffffff16145b15156113bb57600080fd5b600260009054906101000a900460ff161515156113d757600080fd5b8161ffff16600260019054906101000a900473ffffffffffffffffffffffffffffffffffffffff1673ffffffffffffffffffffffffffffffffffffffff1663e1cb547e6000604051602001526040518163ffffffff167c0100000000000000000000000000000000000000000000000000000000028152600401602060405180830381600087803b151561146a57600080fd5b6102c65a03f1151561147b57600080fd5b50505060405180519050600260019054906101000a900473ffffffffffffffffffffffffffffffffffffffff1673ffffffffffffffffffffffffffffffffffffffff1663c4e41b226000604051602001526040518163ffffffff167c0100000000000000000000000000000000000000000000000000000000028152600401602060405180830381600087803b151561151357600080fd5b6102c65a03f1151561152457600080fd5b50505060405180519050600260019054906101000a900473ffffffffffffffffffffffffffffffffffffffff1673ffffffffffffffffffffffffffffffffffffffff1663554d578d6000604051602001526040518163ffffffff167c0100000000000000000000000000000000000000000000000000000000028152600401602060405180830381600087803b15156115bc57600080fd5b6102c65a03f115156115cd57600080fd5b50505060405180519050030161ffff16101515156115ea57600080fd5b5b60008261ffff161115611fe257600260019054906101000a900473ffffffffffffffffffffffffffffffffffffffff1673ffffffffffffffffffffffffffffffffffffffff1663554d578d6000604051602001526040518163ffffffff167c0100000000000000000000000000000000000000000000000000000000028152600401602060405180830381600087803b151561168657600080fd5b6102c65a03f1151561169757600080fd5b5050506040518051905061ffff166001600260019054906101000a900473ffffffffffffffffffffffffffffffffffffffff1673ffffffffffffffffffffffffffffffffffffffff1663c4e41b226000604051602001526040518163ffffffff167c0100000000000000000000000000000000000000000000000000000000028152600401602060405180830381600087803b151561173557600080fd5b6102c65a03f1151561174657600080fd5b505050604051805190500161ffff16111515611a8057600260019054906101000a900473ffffffffffffffffffffffffffffffffffffffff1673ffffffffffffffffffffffffffffffffffffffff1663d0feb460846001600260019054906101000a900473ffffffffffffffffffffffffffffffffffffffff1673ffffffffffffffffffffffffffffffffffffffff1663f8b2cb4f886000604051602001526040518263ffffffff167c0100000000000000000000000000000000000000000000000000000000028152600401808273ffffffffffffffffffffffffffffffffffffffff1673ffffffffffffffffffffffffffffffffffffffff168152602001915050602060405180830381600087803b151561186257600080fd5b6102c65a03f1151561187357600080fd5b50505060405180519050016040518363ffffffff167c0100000000000000000000000000000000000000000000000000000000028152600401808373ffffffffffffffffffffffffffffffffffffffff1673ffffffffffffffffffffffffffffffffffffffff1681526020018261ffff1661ffff16815260200192505050600060405180830381600087803b151561190a57600080fd5b6102c65a03f1151561191b57600080fd5b505050600260019054906101000a900473ffffffffffffffffffffffffffffffffffffffff1673ffffffffffffffffffffffffffffffffffffffff1663562e438b6001600260019054906101000a900473ffffffffffffffffffffffffffffffffffffffff1673ffffffffffffffffffffffffffffffffffffffff1663c4e41b226000604051602001526040518163ffffffff167c0100000000000000000000000000000000000000000000000000000000028152600401602060405180830381600087803b15156119ec57600080fd5b6102c65a03f115156119fd57600080fd5b50505060405180519050016040518263ffffffff167c0100000000000000000000000000000000000000000000000000000000028152600401808261ffff1661ffff168152602001915050600060405180830381600087803b1515611a6157600080fd5b6102c65a03f11515611a7257600080fd5b505050600182039150611fdd565b600090505b600260019054906101000a900473ffffffffffffffffffffffffffffffffffffffff1673ffffffffffffffffffffffffffffffffffffffff16633aa763826000604051602001526040518163ffffffff167c0100000000000000000000000000000000000000000000000000000000028152600401602060405180830381600087803b1515611b1357600080fd5b6102c65a03f11515611b2457600080fd5b505050604051805190508161ffff161015611fdc576000600260019054906101000a900473ffffffffffffffffffffffffffffffffffffffff1673ffffffffffffffffffffffffffffffffffffffff1663f0598407600260019054906101000a900473ffffffffffffffffffffffffffffffffffffffff1673ffffffffffffffffffffffffffffffffffffffff1663b9ec93c8856000604051602001526040518263ffffffff167c0100000000000000000000000000000000000000000000000000000000028152600401808261ffff1661ffff168152602001915050602060405180830381600087803b1515611c1a57600080fd5b6102c65a03f11515611c2b57600080fd5b505050604051805190506000604051602001526040518263ffffffff167c0100000000000000000000000000000000000000000000000000000000028152600401808273ffffffffffffffffffffffffffffffffffffffff1673ffffffffffffffffffffffffffffffffffffffff168152602001915050602060405180830381600087803b1515611cbb57600080fd5b6102c65a03f11515611ccc57600080fd5b5050506040518051905061ffff161115611f2257611da7600260019054906101000a900473ffffffffffffffffffffffffffffffffffffffff1673ffffffffffffffffffffffffffffffffffffffff1663b9ec93c8836000604051602001526040518263ffffffff167c0100000000000000000000000000000000000000000000000000000000028152600401808261ffff1661ffff168152602001915050602060405180830381600087803b1515611d8457600080fd5b6102c65a03f11515611d9557600080fd5b505050604051805190508460016107f9565b50600181039050600182039150600260019054906101000a900473ffffffffffffffffffffffffffffffffffffffff1673ffffffffffffffffffffffffffffffffffffffff166369fa0f156001600260019054906101000a900473ffffffffffffffffffffffffffffffffffffffff1673ffffffffffffffffffffffffffffffffffffffff1663e1cb547e6000604051602001526040518163ffffffff167c0100000000000000000000000000000000000000000000000000000000028152600401602060405180830381600087803b1515611e8257600080fd5b6102c65a03f11515611e9357600080fd5b50505060405180519050036040518263ffffffff167c0100000000000000000000000000000000000000000000000000000000028152600401808261ffff1661ffff168152602001915050600060405180830381600087803b1515611ef757600080fd5b6102c65a03f11515611f0857600080fd5b50505060008261ffff161415611f1d57611fdc565b611fcf565b600260019054906101000a900473ffffffffffffffffffffffffffffffffffffffff1673ffffffffffffffffffffffffffffffffffffffff16638812d7ae826040518263ffffffff167c0100000000000000000000000000000000000000000000000000000000028152600401808261ffff1661ffff168152602001915050600060405180830381600087803b1515611fba57600080fd5b6102c65a03f11515611fcb57600080fd5b5050505b8080600101915050611a85565b5b6115eb565b505050565b6000600260009054906101000a900460ff1615151561200557600080fd5b600260019054906101000a900473ffffffffffffffffffffffffffffffffffffffff1673ffffffffffffffffffffffffffffffffffffffff1663f8b2cb4f336000604051602001526040518263ffffffff167c0100000000000000000000000000000000000000000000000000000000028152600401808273ffffffffffffffffffffffffffffffffffffffff1673ffffffffffffffffffffffffffffffffffffffff168152602001915050602060405180830381600087803b15156120ca57600080fd5b6102c65a03f115156120db57600080fd5b5050506040518051905061ffff168261ffff16111515156120fb57600080fd5b6000600260019054906101000a900473ffffffffffffffffffffffffffffffffffffffff1673ffffffffffffffffffffffffffffffffffffffff1663f0598407336000604051602001526040518263ffffffff167c0100000000000000000000000000000000000000000000000000000000028152600401808273ffffffffffffffffffffffffffffffffffffffff1673ffffffffffffffffffffffffffffffffffffffff168152602001915050602060405180830381600087803b15156121c257600080fd5b6102c65a03f115156121d357600080fd5b5050506040518051905061ffff1614156122b857600260019054906101000a900473ffffffffffffffffffffffffffffffffffffffff1673ffffffffffffffffffffffffffffffffffffffff16635e7f95d3336040518263ffffffff167c0100000000000000000000000000000000000000000000000000000000028152600401808273ffffffffffffffffffffffffffffffffffffffff1673ffffffffffffffffffffffffffffffffffffffff168152602001915050600060405180830381600087803b15156122a357600080fd5b6102c65a03f115156122b457600080fd5b5050505b600260019054906101000a900473ffffffffffffffffffffffffffffffffffffffff1673ffffffffffffffffffffffffffffffffffffffff1663122282503384600260019054906101000a900473ffffffffffffffffffffffffffffffffffffffff1673ffffffffffffffffffffffffffffffffffffffff1663f0598407336000604051602001526040518263ffffffff167c0100000000000000000000000000000000000000000000000000000000028152600401808273ffffffffffffffffffffffffffffffffffffffff1673ffffffffffffffffffffffffffffffffffffffff168152602001915050602060405180830381600087803b15156123bd57600080fd5b6102c65a03f115156123ce57600080fd5b50505060405180519050016040518363ffffffff167c0100000000000000000000000000000000000000000000000000000000028152600401808373ffffffffffffffffffffffffffffffffffffffff1673ffffffffffffffffffffffffffffffffffffffff1681526020018261ffff1661ffff16815260200192505050600060405180830381600087803b151561246557600080fd5b6102c65a03f1151561247657600080fd5b505050600260019054906101000a900473ffffffffffffffffffffffffffffffffffffffff1673ffffffffffffffffffffffffffffffffffffffff166369fa0f156001600260019054906101000a900473ffffffffffffffffffffffffffffffffffffffff1673ffffffffffffffffffffffffffffffffffffffff1663e1cb547e6000604051602001526040518163ffffffff167c0100000000000000000000000000000000000000000000000000000000028152600401602060405180830381600087803b151561254757600080fd5b6102c65a03f1151561255857600080fd5b50505060405180519050016040518263ffffffff167c0100000000000000000000000000000000000000000000000000000000028152600401808261ffff1661ffff168152602001915050600060405180830381600087803b15156125bc57600080fd5b6102c65a03f115156125cd57600080fd5b50505060019050919050565b6000809054906101000a900473ffffffffffffffffffffffffffffffffffffffff1681565b6000600260019054906101000a900473ffffffffffffffffffffffffffffffffffffffff1673ffffffffffffffffffffffffffffffffffffffff1663c4e41b226000604051602001526040518163ffffffff167c0100000000000000000000000000000000000000000000000000000000028152600401602060405180830381600087803b151561268e57600080fd5b6102c65a03f1151561269f57600080fd5b50505060405180519050905090565b600260009054906101000a900460ff161515156126ca57600080fd5b60006127c282600260019054906101000a900473ffffffffffffffffffffffffffffffffffffffff1673ffffffffffffffffffffffffffffffffffffffff1663f8b2cb4f336000604051602001526040518263ffffffff167c0100000000000000000000000000000000000000000000000000000000028152600401808273ffffffffffffffffffffffffffffffffffffffff1673ffffffffffffffffffffffffffffffffffffffff168152602001915050602060405180830381600087803b151561279557600080fd5b6102c65a03f115156127a657600080fd5b5050506040518051905061ffff16613c8e90919063ffffffff16565b61ffff161115156127d257600080fd5b600260019054906101000a900473ffffffffffffffffffffffffffffffffffffffff1673ffffffffffffffffffffffffffffffffffffffff1663d0feb460336001600260019054906101000a900473ffffffffffffffffffffffffffffffffffffffff1673ffffffffffffffffffffffffffffffffffffffff1663f8b2cb4f336000604051602001526040518263ffffffff167c0100000000000000000000000000000000000000000000000000000000028152600401808273ffffffffffffffffffffffffffffffffffffffff1673ffffffffffffffffffffffffffffffffffffffff168152602001915050602060405180830381600087803b15156128d857600080fd5b6102c65a03f115156128e957600080fd5b50505060405180519050036040518363ffffffff167c0100000000000000000000000000000000000000000000000000000000028152600401808373ffffffffffffffffffffffffffffffffffffffff1673ffffffffffffffffffffffffffffffffffffffff1681526020018261ffff1661ffff16815260200192505050600060405180830381600087803b151561298057600080fd5b6102c65a03f1151561299157600080fd5b505050600260019054906101000a900473ffffffffffffffffffffffffffffffffffffffff1673ffffffffffffffffffffffffffffffffffffffff1663f0598407336000604051602001526040518263ffffffff167c0100000000000000000000000000000000000000000000000000000000028152600401808273ffffffffffffffffffffffffffffffffffffffff1673ffffffffffffffffffffffffffffffffffffffff168152602001915050602060405180830381600087803b1515612a5957600080fd5b6102c65a03f11515612a6a57600080fd5b5050506040518051905061ffff16600260019054906101000a900473ffffffffffffffffffffffffffffffffffffffff1673ffffffffffffffffffffffffffffffffffffffff1663f8b2cb4f336000604051602001526040518263ffffffff167c0100000000000000000000000000000000000000000000000000000000028152600401808273ffffffffffffffffffffffffffffffffffffffff1673ffffffffffffffffffffffffffffffffffffffff168152602001915050602060405180830381600087803b1515612b3d57600080fd5b6102c65a03f11515612b4e57600080fd5b5050506040518051905061ffff161015612d2257600260019054906101000a900473ffffffffffffffffffffffffffffffffffffffff1673ffffffffffffffffffffffffffffffffffffffff16631222825033600260019054906101000a900473ffffffffffffffffffffffffffffffffffffffff1673ffffffffffffffffffffffffffffffffffffffff1663f8b2cb4f336000604051602001526040518263ffffffff167c0100000000000000000000000000000000000000000000000000000000028152600401808273ffffffffffffffffffffffffffffffffffffffff1673ffffffffffffffffffffffffffffffffffffffff168152602001915050602060405180830381600087803b1515612c6657600080fd5b6102c65a03f11515612c7757600080fd5b505050604051805190506040518363ffffffff167c0100000000000000000000000000000000000000000000000000000000028152600401808373ffffffffffffffffffffffffffffffffffffffff1673ffffffffffffffffffffffffffffffffffffffff1681526020018261ffff1661ffff16815260200192505050600060405180830381600087803b1515612d0d57600080fd5b6102c65a03f11515612d1e57600080fd5b5050505b50565b6000600160003373ffffffffffffffffffffffffffffffffffffffff1673ffffffffffffffffffffffffffffffffffffffff16815260200190815260200160002060009054906101000a900460ff1680612dcb57506000809054906101000a900473ffffffffffffffffffffffffffffffffffffffff1673ffffffffffffffffffffffffffffffffffffffff163373ffffffffffffffffffffffffffffffffffffffff16145b80612e0157503073ffffffffffffffffffffffffffffffffffffffff163373ffffffffffffffffffffffffffffffffffffffff16145b1515612e0c57600080fd5b600260009054906101000a900460ff16151515612e2857600080fd5b6000600260019054906101000a900473ffffffffffffffffffffffffffffffffffffffff1673ffffffffffffffffffffffffffffffffffffffff1663c701e305846000604051602001526040518263ffffffff167c0100000000000000000000000000000000000000000000000000000000028152600401808273ffffffffffffffffffffffffffffffffffffffff1673ffffffffffffffffffffffffffffffffffffffff168152602001915050602060405180830381600087803b1515612eef57600080fd5b6102c65a03f11515612f0057600080fd5b50505060405180519050600260019054906101000a900473ffffffffffffffffffffffffffffffffffffffff1673ffffffffffffffffffffffffffffffffffffffff1663f8b2cb4f856000604051602001526040518263ffffffff167c0100000000000000000000000000000000000000000000000000000000028152600401808273ffffffffffffffffffffffffffffffffffffffff1673ffffffffffffffffffffffffffffffffffffffff168152602001915050602060405180830381600087803b1515612fcf57600080fd5b6102c65a03f11515612fe057600080fd5b505050604051805190500161ffff16111515612ffb57600080fd5b600260019054906101000a900473ffffffffffffffffffffffffffffffffffffffff1673ffffffffffffffffffffffffffffffffffffffff1663d4b9a6c933600260019054906101000a900473ffffffffffffffffffffffffffffffffffffffff1673ffffffffffffffffffffffffffffffffffffffff1663c701e305866000604051602001526040518263ffffffff167c0100000000000000000000000000000000000000000000000000000000028152600401808273ffffffffffffffffffffffffffffffffffffffff1673ffffffffffffffffffffffffffffffffffffffff168152602001915050602060405180830381600087803b15156130ff57600080fd5b6102c65a03f1151561311057600080fd5b50505060405180519050600260019054906101000a900473ffffffffffffffffffffffffffffffffffffffff1673ffffffffffffffffffffffffffffffffffffffff1663f8b2cb4f876000604051602001526040518263ffffffff167c0100000000000000000000000000000000000000000000000000000000028152600401808273ffffffffffffffffffffffffffffffffffffffff1673ffffffffffffffffffffffffffffffffffffffff168152602001915050602060405180830381600087803b15156131df57600080fd5b6102c65a03f115156131f057600080fd5b50505060405180519050016040518363ffffffff167c0100000000000000000000000000000000000000000000000000000000028152600401808373ffffffffffffffffffffffffffffffffffffffff1673ffffffffffffffffffffffffffffffffffffffff1681526020018261ffff1661ffff16815260200192505050600060405180830381600087803b151561328757600080fd5b6102c65a03f1151561329857600080fd5b505050600260019054906101000a900473ffffffffffffffffffffffffffffffffffffffff1673ffffffffffffffffffffffffffffffffffffffff166398976d01336000604051602001526040518263ffffffff167c0100000000000000000000000000000000000000000000000000000000028152600401808273ffffffffffffffffffffffffffffffffffffffff1673ffffffffffffffffffffffffffffffffffffffff168152602001915050602060405180830381600087803b151561336057600080fd5b6102c65a03f1151561337157600080fd5b505050604051805190509050919050565b60016020528060005260406000206000915054906101000a900460ff1681565b6000600260009054906101000a900460ff161515156133c057600080fd5b600073ffffffffffffffffffffffffffffffffffffffff168373ffffffffffffffffffffffffffffffffffffffff16141515156133fc57600080fd5b600260019054906101000a900473ffffffffffffffffffffffffffffffffffffffff1673ffffffffffffffffffffffffffffffffffffffff1663f8b2cb4f336000604051602001526040518263ffffffff167c0100000000000000000000000000000000000000000000000000000000028152600401808273ffffffffffffffffffffffffffffffffffffffff1673ffffffffffffffffffffffffffffffffffffffff168152602001915050602060405180830381600087803b15156134c157600080fd5b6102c65a03f115156134d257600080fd5b5050506040518051905061ffff168261ffff16111515156134f257600080fd5b600260019054906101000a900473ffffffffffffffffffffffffffffffffffffffff1673ffffffffffffffffffffffffffffffffffffffff1663d0feb4603361362785600260019054906101000a900473ffffffffffffffffffffffffffffffffffffffff1673ffffffffffffffffffffffffffffffffffffffff1663f8b2cb4f336000604051602001526040518263ffffffff167c0100000000000000000000000000000000000000000000000000000000028152600401808273ffffffffffffffffffffffffffffffffffffffff1673ffffffffffffffffffffffffffffffffffffffff168152602001915050602060405180830381600087803b15156135fa57600080fd5b6102c65a03f1151561360b57600080fd5b5050506040518051905061ffff16613c8e90919063ffffffff16565b6040518363ffffffff167c0100000000000000000000000000000000000000000000000000000000028152600401808373ffffffffffffffffffffffffffffffffffffffff1673ffffffffffffffffffffffffffffffffffffffff1681526020018261ffff1661ffff16815260200192505050600060405180830381600087803b15156136b357600080fd5b6102c65a03f115156136c457600080fd5b505050600260019054906101000a900473ffffffffffffffffffffffffffffffffffffffff1673ffffffffffffffffffffffffffffffffffffffff1663f0598407336000604051602001526040518263ffffffff167c0100000000000000000000000000000000000000000000000000000000028152600401808273ffffffffffffffffffffffffffffffffffffffff1673ffffffffffffffffffffffffffffffffffffffff168152602001915050602060405180830381600087803b151561378c57600080fd5b6102c65a03f1151561379d57600080fd5b5050506040518051905061ffff16600260019054906101000a900473ffffffffffffffffffffffffffffffffffffffff1673ffffffffffffffffffffffffffffffffffffffff1663f8b2cb4f336000604051602001526040518263ffffffff167c0100000000000000000000000000000000000000000000000000000000028152600401808273ffffffffffffffffffffffffffffffffffffffff1673ffffffffffffffffffffffffffffffffffffffff168152602001915050602060405180830381600087803b151561387057600080fd5b6102c65a03f1151561388157600080fd5b5050506040518051905061ffff161015613a5557600260019054906101000a900473ffffffffffffffffffffffffffffffffffffffff1673ffffffffffffffffffffffffffffffffffffffff16631222825033600260019054906101000a900473ffffffffffffffffffffffffffffffffffffffff1673ffffffffffffffffffffffffffffffffffffffff1663f8b2cb4f336000604051602001526040518263ffffffff167c0100000000000000000000000000000000000000000000000000000000028152600401808273ffffffffffffffffffffffffffffffffffffffff1673ffffffffffffffffffffffffffffffffffffffff168152602001915050602060405180830381600087803b151561399957600080fd5b6102c65a03f115156139aa57600080fd5b505050604051805190506040518363ffffffff167c0100000000000000000000000000000000000000000000000000000000028152600401808373ffffffffffffffffffffffffffffffffffffffff1673ffffffffffffffffffffffffffffffffffffffff1681526020018261ffff1661ffff16815260200192505050600060405180830381600087803b1515613a4057600080fd5b6102c65a03f11515613a5157600080fd5b5050505b600260019054906101000a900473ffffffffffffffffffffffffffffffffffffffff1673ffffffffffffffffffffffffffffffffffffffff1663d0feb46084613b8a85600260019054906101000a900473ffffffffffffffffffffffffffffffffffffffff1673ffffffffffffffffffffffffffffffffffffffff1663f8b2cb4f896000604051602001526040518263ffffffff167c0100000000000000000000000000000000000000000000000000000000028152600401808273ffffffffffffffffffffffffffffffffffffffff1673ffffffffffffffffffffffffffffffffffffffff168152602001915050602060405180830381600087803b1515613b5d57600080fd5b6102c65a03f11515613b6e57600080fd5b5050506040518051905061ffff16613c8e90919063ffffffff16565b6040518363ffffffff167c0100000000000000000000000000000000000000000000000000000000028152600401808373ffffffffffffffffffffffffffffffffffffffff1673ffffffffffffffffffffffffffffffffffffffff1681526020018261ffff1661ffff16815260200192505050600060405180830381600087803b1515613c1657600080fd5b6102c65a03f11515613c2757600080fd5b5050506001905092915050565b60018060008373ffffffffffffffffffffffffffffffffffffffff1673ffffffffffffffffffffffffffffffffffffffff16815260200190815260200160002060006101000a81548160ff02191690831515021790555050565b60008261ffff168261ffff1611151515613ca457fe5b818303905092915050565b60008082840190508361ffff168161ffff1610151515613ccb57fe5b8261ffff168161ffff1610151515613cdf57fe5b80915050929150505600a165627a7a723058206d03136cae6a1c5743b42da02c23c42c851d16a5e3e1a5cb422d82a8855b74d50029a165627a7a72305820c6099ec619a081aedfce776f9bc58ccce099ded13af7cd32e2d4474d79c089c80029",
  "source": "pragma solidity ^0.4.2;\r\n\r\nimport \"./../ownership/Ownable.sol\";\r\nimport \"./../token/TicketToken.sol\";\r\nimport \"./EventData.sol\";\r\n\r\ncontract Event is MultiOwnable {\r\n\r\n    EventData data;\r\n\r\n    function Event(address _owner, address _subowner, EventData _eventData) MultiOwnable(_owner, _subowner) public {\r\n        data = _eventData;\r\n    }\r\n\r\n    // Events for testing purposes\r\n    event organizerInfoTest(uint id, address organizerAddress, uint status, uint16 percentage);\r\n\r\n    /**\r\n     * @dev Initializes the date and the duration of the event.\r\n     * - onlySubowner It can only be accessed by Organizers, Owners and the contract itself.\r\n     * - onlyWhen only accessible when event is \"Status.Pending\"\r\n     * @param _date date of the event.\r\n     * @param _duration duration of the event.\r\n     */\r\n\r\n    function initializeDate(uint _date, uint _duration)  public onlySubowner onlyWhen(0) {\r\n        data.setDate(_date);\r\n        data.setDuration(_duration);\r\n    }\r\n\r\n    /**\r\n     * @dev Adds an organizer to the event (organizerStatus=>Pending).\r\n     * - onlySubowner It can only be accessed by Organizers, Owners and the contract itself.\r\n     * - onlyWhen only accessible when event is \"Status.Pending\"\r\n     * @param _organizerAddress is the identifier of the organizer to add.\r\n     * @param _percentage is the percentage of money a organizer will recive of the total benefit.\r\n     */\r\n\r\n    function addOrganizer(address _organizerAddress, uint16 _percentage) public onlySubowner onlyWhen(0) {\r\n        data.addOrganizer(_organizerAddress, _percentage);\r\n        addSubowner(_organizerAddress);\r\n    }\r\n\r\n    /**\r\n     * @dev Adds a ticketType to the event.\r\n     * - onlySubowner It can only be accessed by Organizers, Owners and the contract itself.\r\n     * - onlyWhen only accessible when event is \"Status.Pending\"\r\n     * @param _ticketType is the identifier of the type.\r\n     * @param _price is the value of the ticket.\r\n     * @param _quantity is the amount of tickets to create.\r\n     */\r\n\r\n    function addTicket(uint8 _ticketType, uint16 _price, uint16 _quantity) public onlySubowner onlyWhen(0) {\r\n       TicketTokenData ticketTokenData = new TicketTokenData(_quantity, _price, _ticketType);\r\n       TicketToken ticketToken = new TicketToken(owner, ticketTokenData);\r\n       ticketTokenData.addLogic(address(ticketToken));\r\n       data.addTicket(address(ticketToken));\r\n    }\r\n\r\n\r\n\r\n\r\n\r\n\r\n\r\n\r\n    function getEventStatus() returns (uint8) {\r\n        return data.getEventStatus();\r\n    }\r\n\r\n\r\n\r\n\r\n\r\n\r\n\r\n\r\n\r\n\r\n\r\n    /**\r\n     * @dev Gets the count of ticket types of the event.\r\n     * @return the amount of types of the event.\r\n     */\r\n\r\n    function getAmountTicketTypes() public constant returns (uint) {\r\n        return data.getNumberTickets();\r\n    }\r\n\r\n    /**\r\n     * @dev Gets the ticket of type i.\r\n     * @return the address of the ticketToken of type (i) of the event.\r\n     */\r\n\r\n    function getTicket(uint16 i) public constant returns (address ticketToken) {\r\n        return data.getTicketAt(i);\r\n    }\r\n\r\n    /**\r\n     * @dev Assings the msg.sender a certain amount of tickets and transfers the amount of\r\n     *      bs-tokens required to the event.\r\n     * - onlyWhen only accessible when event is \"Status.Accepted\".\r\n     * - The user must have allowed Event to withdraw the amount of money required.\r\n     */\r\n\r\n    function buyTickets(uint8 ticketType, uint8 amount) public onlyWhen(1) {\r\n        /* (BSTOKEN) transferFrom(msg.sender, this, ticketIndex[ticketType].data.getValue()); */\r\n        TicketToken(data.getTicketAt(ticketType)).assignTickets(msg.sender, amount);\r\n    }\r\n\r\n    /**\r\n     * @dev Allows the previous to refund the money of a resell.\r\n     * - onlyOwner only accesible by the tickets.\r\n     */\r\n\r\n    function refundAResell(address _to, uint16 _quantity, uint8 ticketType) public onlyTicket {\r\n        /* (BSTOKEN) approve(this, _to, tickets[ticketType].data.getValue() * _quantity); */\r\n    }\r\n\r\n    /**\r\n     * @dev Allows the organizer(msg.sender) to accept the event conditions.\r\n     * - onlySubowner It can only be accessed by subowners\r\n     * - onlyWhen only accessible when event is \"Status.Pending\"\r\n     * - only accessible when the organizer status is \"Status.Pending\"\r\n     */\r\n\r\n    function accept() public onlySubowner onlyWhen(0) {\r\n        var (organizerStatus, percentage) = data.getOrganizerInfo(msg.sender);\r\n        require(organizerStatus == 0);\r\n        data.setOrganizerInfo(msg.sender, 1, percentage);\r\n\r\n        if (organizersMatch(1)) data.setEventStatus(1);\r\n    }\r\n\r\n     /**\r\n     * @dev Allows the organizer(msg.sender) to cancel the event. It also auto-activate the refund.\r\n     * - onlySubowner It can only be accessed by subowners\r\n     * - onlyWhenRange only accessible when event is \"Status.Pending\" or \"Status.Accepted\"\r\n     */\r\n\r\n    function cancel() onlySubowner public onlyWhenRange([0, 1]) {\r\n        data.setEventStatus(8);\r\n        activeRefund();\r\n    }\r\n\r\n    /**\r\n     * @dev Allows the organizer(msg.sender) to open the event.\r\n     * - onlySubowner It can only be accessed by subowners\r\n     * - onlyWhen only accessible when event is \"Status.Accepted\"\r\n     */\r\n\r\n    function open() public onlySubowner onlyWhen(1) {\r\n        data.setEventStatus(2);\r\n    }\r\n\r\n    /**\r\n     * @dev Allows the organizer(msg.sender) to cancel the event. It also auto-activate the refund.\r\n     * - onlySubowner It can only be accessed by subowners\r\n     * - onlyWhenRange only accessible when event is \"Status.Accepted\" or \"Status.Opened\"\r\n     */\r\n\r\n    function start() public onlyOwner onlyWhenRange([1,2]) {\r\n        data.setEventStatus(3);\r\n    }\r\n\r\n    /**\r\n     * @dev Allows the user(msg.sender) to complain.\r\n     * - onlyWhenRange only accessible when event is \"Status.OnGoing\" or \"Status.Finished\"\r\n     */\r\n\r\n    function redButton() public onlyWhenRange([3,4]) {\r\n        uint16 redButtonCount = 0;\r\n        for (uint8 i = 0; i < data.getNumberTickets(); i++) {\r\n            redButtonCount += TicketToken(data.getTicketAt(i)).redButton(msg.sender);\r\n        }\r\n        data.redButtonPressed(redButtonCount);\r\n    }\r\n\r\n    /**\r\n     * @dev Allows the owner(artistic island) to end the event.\r\n     * - onlyOwner It can only be accessed by the Owner.\r\n     * - onlyWhen only accessible when event is \"Status.OnGoing\".\r\n     */\r\n\r\n    function end() public onlyOwner onlyWhen(3) {\r\n        data.setEventStatus(4);\r\n    }\r\n\r\n    /**\r\n     * @dev Allows the organizers (msg.senders) to evaluate the event.\r\n     * - onlySubowners It can only be accessed by the subowners/organizers.\r\n     * - onlyWhen only accessible when event is \"Status.Finished\".\r\n     */\r\n\r\n    function evaluate(bool eventSuccess) public onlySubowner onlyWhen(4) {\r\n        var (organizerStatus, percentage) = data.getOrganizerInfo(msg.sender);\r\n        if (eventSuccess) data.setOrganizerInfo(msg.sender, 2, percentage);\r\n        else data.setOrganizerInfo(msg.sender, 3, percentage);\r\n    }\r\n\r\n    /**\r\n     * @dev Allows the owner(artistic island) to reslove the evaluations of the event.\r\n     * - onlyOwner It can only be accessed by the Owner.\r\n     * - onlyWhen only accessible when event is \"Status.Finished\".\r\n     */\r\n\r\n    function resolveEvaluation() public onlyOwner onlyWhen(4) {\r\n        bool organizersEvaluationSuccess = organizersMatch(2);\r\n        bool organizersEvaluationFailed = organizersMatch(3);\r\n        bool clientsEvaluation = (data.getTotalTickets() - data.getRedButtonCount()) <= (data.getTotalTickets()/4);\r\n        if (organizersEvaluationFailed) { data.setEventStatus(6); activeRefund(); pauseTickets(); }\r\n        else if (organizersEvaluationSuccess && clientsEvaluation) { data.setEventStatus(5); activePayment(); }\r\n        else data.setEventStatus(7);\r\n    }\r\n\r\n    /**\r\n     * @dev Allows the owner(artistic island) to reslove the evaluations of the event.\r\n     * - onlyOwner It can only be accessed by the Owner.\r\n     * - onlyWhen only accessible when event is \"Status.Frozen\".\r\n     */\r\n\r\n    function resolveFrozen(bool success) public onlyOwner onlyWhen(7) {\r\n        if (success) { data.setEventStatus(5); activePayment(); }\r\n        else { data.setEventStatus(6); activeRefund(); }\r\n    }\r\n\r\n    /**\r\n     * @dev Allows external action (for example,a test), to retrieve the info about the organizers of the\r\n     * event via a solidity event.\r\n     * - The event contains for each organizer: its number (for testing purposes), address, status and percentage\r\n     */\r\n\r\n    function testGetOrganizersInfo() {\r\n\r\n        for (uint8 i = 0; i < data.getNumberOrganizers(); i++) {\r\n            address org = data.getOrganizerAt(i);\r\n            uint status;\r\n            uint16 percentage;\r\n            (status, percentage) = data.getOrganizerInfo(org);\r\n            organizerInfoTest(i, org, status, percentage);\r\n        }\r\n    }\r\n\r\n    function unpauseTickets() public onlyOwner {\r\n        for(uint8 i = 0; i < data.getNumberTickets(); i++) (TicketToken(data.getTicketAt(i)).unpause());\r\n    }\r\n\r\n    modifier onlyWhen(uint8 evStatus) {\r\n        require(data.getEventStatus() == evStatus);\r\n        _;\r\n    }\r\n\r\n    modifier onlyWhenRange(uint8 [2] evStatus) {\r\n        for(uint8 i = 0; i < evStatus.length; i++)\r\n            require(data.getEventStatus() == evStatus[i]);\r\n        _;\r\n    }\r\n\r\n    modifier onlySelfcall(){\r\n        require(msg.sender == address(this));\r\n        _;\r\n    }\r\n\r\n    modifier onlyTicket() {\r\n        bool found = false;\r\n        for(uint8 i = 0; i < data.getNumberTickets(); i++) {\r\n            found = (data.getTicketAt(i) == msg.sender);\r\n            if (found) break;\r\n        }\r\n        require(found);\r\n        _;\r\n    }\r\n\r\n    function organizersMatch(uint8 status) internal constant onlySelfcall returns (bool) {\r\n        for (uint i = 0; i < data.getNumberOrganizers(); i++) {\r\n            var (organizerStatus,) = data.getOrganizerInfo(data.getOrganizerAt(i));\r\n            if (organizerStatus != status) return false;\r\n        }\r\n        return true;\r\n    }\r\n\r\n    function activePayment() internal onlySelfcall onlyWhen(5) {\r\n        /* foreach subowner, allowance (this, subowneraddress, totalmoney*percentage); */\r\n    }\r\n\r\n    function activeRefund() internal onlySelfcall {\r\n        require(data.getEventStatus() == 6 || data.getEventStatus() == 8);\r\n        /* foreach ticket, foreach client: allowance (this, clientaddress, value*balance); */\r\n    }\r\n\r\n    function pauseTickets() internal onlySelfcall {\r\n        for(uint8 i = 0; i < data.getNumberTickets(); i++) (TicketToken(data.getTicketAt(i)).pause());\r\n    }\r\n\r\n}",
  "sourcePath": "C:\\Users\\Elias\\Documents\\GitHub\\pae-team-repo\\contracts\\event\\Event.sol",
  "compiler": {
    "name": "solc",
    "version": "0.4.18+commit.9cf6e910.Emscripten.clang"
  },
  "schemaVersion": "1.0.1",
  "updatedAt": "2017-12-11T16:18:49.196Z"
}