{
  "contractName": "MultiOwnable",
  "abi": [
    {
      "constant": true,
      "inputs": [],
      "name": "owner",
      "outputs": [
        {
          "name": "",
          "type": "address"
        }
      ],
      "payable": false,
      "stateMutability": "view",
      "type": "function"
    },
    {
      "constant": true,
      "inputs": [
        {
          "name": "",
          "type": "address"
        }
      ],
      "name": "subowner",
      "outputs": [
        {
          "name": "",
          "type": "bool"
        }
      ],
      "payable": false,
      "stateMutability": "view",
      "type": "function"
    },
    {
      "constant": false,
      "inputs": [
        {
          "name": "_subowner",
          "type": "address"
        }
      ],
      "name": "addSubowner",
      "outputs": [],
      "payable": false,
      "stateMutability": "nonpayable",
      "type": "function"
    },
    {
      "inputs": [
        {
          "name": "_owner",
          "type": "address"
        },
        {
          "name": "_subowner",
          "type": "address"
        }
      ],
      "payable": false,
      "stateMutability": "nonpayable",
      "type": "constructor"
    }
  ],
  "bytecode": "0x6060604052341561000f57600080fd5b6040516040806102e283398101604052808051906020019091908051906020019091905050816000806101000a81548173ffffffffffffffffffffffffffffffffffffffff021916908373ffffffffffffffffffffffffffffffffffffffff16021790555060018060008373ffffffffffffffffffffffffffffffffffffffff1673ffffffffffffffffffffffffffffffffffffffff16815260200190815260200160002060006101000a81548160ff0219169083151502179055505050610206806100dc6000396000f300606060405260043610610057576000357c0100000000000000000000000000000000000000000000000000000000900463ffffffff1680638da5cb5b1461005c578063ed25d8b7146100b1578063f269b7bf14610102575b600080fd5b341561006757600080fd5b61006f61013b565b604051808273ffffffffffffffffffffffffffffffffffffffff1673ffffffffffffffffffffffffffffffffffffffff16815260200191505060405180910390f35b34156100bc57600080fd5b6100e8600480803573ffffffffffffffffffffffffffffffffffffffff16906020019091905050610160565b604051808215151515815260200191505060405180910390f35b341561010d57600080fd5b610139600480803573ffffffffffffffffffffffffffffffffffffffff16906020019091905050610180565b005b6000809054906101000a900473ffffffffffffffffffffffffffffffffffffffff1681565b60016020528060005260406000206000915054906101000a900460ff1681565b60018060008373ffffffffffffffffffffffffffffffffffffffff1673ffffffffffffffffffffffffffffffffffffffff16815260200190815260200160002060006101000a81548160ff021916908315150217905550505600a165627a7a72305820808e262e3fa7820421ecde90c3f6cb04845ed6218a30fdb0b4d135684b6010b50029",
  "source": "pragma solidity ^0.4.15;\r\n\r\n/**\r\n * @title MultiOwnable\r\n * @dev The MultiOwnable contract has an owner address (artistic island) and the subowners , and provides basic authorization control\r\n * functions, this simplifies the implementation of \"user permissions\".\r\n */\r\n\r\ncontract MultiOwnable {\r\n\r\n  address public owner;\r\n  mapping(address => bool) public subowner;\r\n\r\n\r\n /**\r\n   * @dev Throws if called by any account other than the owner.\r\n   */\r\n  modifier onlyOwner() {\r\n    require(msg.sender == owner);\r\n    _;\r\n  }\r\n\r\n  /**\r\n   * @dev Throws if called by any account other than subowners or the owner.\r\n   */\r\n  modifier onlySubowner() {\r\n      require(subowner[msg.sender] || msg.sender == owner || msg.sender == address(this));\r\n      _;\r\n  }\r\n\r\n  function MultiOwnable (address _owner, address _subowner) public {\r\n        owner = _owner;\r\n        subowner[_subowner] = true;\r\n  }\r\n\r\n  function addSubowner(address _subowner) public {\r\n    subowner[_subowner] = true;\r\n  }\r\n\r\n}",
  "sourcePath": "C:\\Users\\Elias\\Documents\\GitHub\\pae-team-repo\\contracts\\ownership\\MultiOwnable.sol",
  "compiler": {
    "name": "solc",
    "version": "0.4.18+commit.9cf6e910.Emscripten.clang"
  },
  "schemaVersion": "1.0.1",
  "updatedAt": "2017-12-11T16:18:49.132Z"
}