{
  "contractName": "Organizer",
  "abi": [
    {
      "constant": false,
      "inputs": [
        {
          "name": "eventAddress",
          "type": "address"
        },
        {
          "name": "_ticketType",
          "type": "uint8"
        },
        {
          "name": "_price",
          "type": "uint16"
        },
        {
          "name": "_quantity",
          "type": "uint16"
        }
      ],
      "name": "addTicket",
      "outputs": [
        {
          "name": "",
          "type": "address"
        }
      ],
      "payable": false,
      "stateMutability": "nonpayable",
      "type": "function"
    },
    {
      "constant": true,
      "inputs": [
        {
          "name": "",
          "type": "uint256"
        }
      ],
      "name": "events",
      "outputs": [
        {
          "name": "",
          "type": "address"
        }
      ],
      "payable": false,
      "stateMutability": "view",
      "type": "function"
    },
    {
      "constant": false,
      "inputs": [
        {
          "name": "eventAddress",
          "type": "address"
        }
      ],
      "name": "acceptEvent",
      "outputs": [
        {
          "name": "",
          "type": "bytes32"
        }
      ],
      "payable": false,
      "stateMutability": "nonpayable",
      "type": "function"
    },
    {
      "constant": true,
      "inputs": [
        {
          "name": "eventAddress",
          "type": "address"
        }
      ],
      "name": "getId",
      "outputs": [
        {
          "name": "",
          "type": "bytes32"
        }
      ],
      "payable": false,
      "stateMutability": "view",
      "type": "function"
    },
    {
      "constant": false,
      "inputs": [
        {
          "name": "eventAddress",
          "type": "address"
        }
      ],
      "name": "askPayment",
      "outputs": [],
      "payable": false,
      "stateMutability": "nonpayable",
      "type": "function"
    },
    {
      "constant": false,
      "inputs": [
        {
          "name": "eventAddress",
          "type": "address"
        }
      ],
      "name": "cancelEvent",
      "outputs": [
        {
          "name": "",
          "type": "address"
        }
      ],
      "payable": false,
      "stateMutability": "nonpayable",
      "type": "function"
    },
    {
      "constant": false,
      "inputs": [
        {
          "name": "eventAddress",
          "type": "address"
        },
        {
          "name": "_date",
          "type": "uint256"
        },
        {
          "name": "_duration",
          "type": "uint256"
        }
      ],
      "name": "initializeDate",
      "outputs": [],
      "payable": false,
      "stateMutability": "nonpayable",
      "type": "function"
    },
    {
      "constant": true,
      "inputs": [
        {
          "name": "eventAddress",
          "type": "address"
        },
        {
          "name": "result",
          "type": "bool"
        }
      ],
      "name": "owner",
      "outputs": [
        {
          "name": "",
          "type": "address"
        }
      ],
      "payable": false,
      "stateMutability": "view",
      "type": "function"
    },
    {
      "constant": false,
      "inputs": [
        {
          "name": "eventFactoryAddress",
          "type": "address"
        }
      ],
      "name": "createEvent",
      "outputs": [],
      "payable": false,
      "stateMutability": "nonpayable",
      "type": "function"
    },
    {
      "constant": false,
      "inputs": [
        {
          "name": "eventAddress",
          "type": "address"
        },
        {
          "name": "result",
          "type": "bool"
        }
      ],
      "name": "evaluateEvent",
      "outputs": [],
      "payable": false,
      "stateMutability": "nonpayable",
      "type": "function"
    },
    {
      "inputs": [
        {
          "name": "eventFactoryAddress",
          "type": "address"
        },
        {
          "name": "_id",
          "type": "bytes32"
        }
      ],
      "payable": false,
      "stateMutability": "nonpayable",
      "type": "function",
      "constant": false,
      "name": "setEventFactory",
      "outputs": []
    },
    {
      "anonymous": false,
      "inputs": [
        {
          "indexed": false,
          "name": "eventAddress",
          "type": "address"
        },
        {
          "indexed": false,
          "name": "_organizerAddress",
          "type": "address"
        },
        {
          "name": "_percentage",
          "type": "uint16"
        }
      ],
      "name": "addOrganizer",
      "type": "function",
      "constant": false,
      "outputs": [],
      "payable": false,
      "stateMutability": "nonpayable"
    },
    {
      "anonymous": false,
      "inputs": [
        {
          "indexed": true,
          "name": "newOwner",
          "type": "address"
        },
        {
          "indexed": true,
          "name": "newOwner",
          "type": "address"
        }
      ],
      "name": "transferOwnership",
      "type": "function",
      "constant": false,
      "outputs": [],
      "payable": false,
      "stateMutability": "nonpayable"
    },
    {
      "inputs": [
        {
          "name": "_owner",
          "type": "address"
        },
        {
          "name": "_id",
          "type": "bytes32"
        }
      ],
      "payable": false,
      "stateMutability": "nonpayable",
      "type": "constructor"
    },
    {
      "anonymous": false,
      "inputs": [
        {
          "indexed": false,
          "name": "newEvent",
          "type": "address"
        },
        {
          "indexed": false,
          "name": "position",
          "type": "uint256"
        }
      ],
      "name": "EventCreated",
      "type": "event"
    },
    {
      "anonymous": false,
      "inputs": [
        {
          "indexed": true,
          "name": "previousOwner",
          "type": "address"
        },
        {
          "indexed": true,
          "name": "newOwner",
          "type": "address"
        }
      ],
      "name": "OwnershipTransferred",
      "type": "event"
    }
  ],
  "bytecode": "0x6060604052341561000f57600080fd5b604051604080610e6c83398101604052808051906020019091908051906020019091905050818181806000806101000a81548173ffffffffffffffffffffffffffffffffffffffff021916908373ffffffffffffffffffffffffffffffffffffffff16021790555050816000806101000a81548173ffffffffffffffffffffffffffffffffffffffff021916908373ffffffffffffffffffffffffffffffffffffffff160217905550806001816000191690555050505050610d96806100d66000396000f3006060604052600436106100c5576000357c0100000000000000000000000000000000000000000000000000000000900463ffffffff1680630a4b75c2146100ca5780630b791430146101295780631f5d4c821461018c5780635d1ca631146101c55780636863cc44146101f6578063710500d31461022f57806374832445146102685780638da5cb5b146102b3578063b33eb0a014610308578063c222a3471461031d578063d43cbb1514610361578063f20b188e1461039a578063f2fde38b146103ff575b600080fd5b34156100d557600080fd5b610127600480803573ffffffffffffffffffffffffffffffffffffffff1690602001909190803560ff1690602001909190803561ffff1690602001909190803561ffff16906020019091905050610438565b005b341561013457600080fd5b61014a6004808035906020019091905050610547565b604051808273ffffffffffffffffffffffffffffffffffffffff1673ffffffffffffffffffffffffffffffffffffffff16815260200191505060405180910390f35b341561019757600080fd5b6101c3600480803573ffffffffffffffffffffffffffffffffffffffff16906020019091905050610586565b005b34156101d057600080fd5b6101d8610661565b60405180826000191660001916815260200191505060405180910390f35b341561020157600080fd5b61022d600480803573ffffffffffffffffffffffffffffffffffffffff1690602001909190505061066b565b005b341561023a57600080fd5b610266600480803573ffffffffffffffffffffffffffffffffffffffff169060200190919050506106c9565b005b341561027357600080fd5b6102b1600480803573ffffffffffffffffffffffffffffffffffffffff169060200190919080359060200190919080359060200190919050506107a4565b005b34156102be57600080fd5b6102c6610894565b604051808273ffffffffffffffffffffffffffffffffffffffff1673ffffffffffffffffffffffffffffffffffffffff16815260200191505060405180910390f35b341561031357600080fd5b61031b6108b9565b005b341561032857600080fd5b61035f600480803573ffffffffffffffffffffffffffffffffffffffff1690602001909190803515159060200190919050506109cc565b005b341561036c57600080fd5b610398600480803573ffffffffffffffffffffffffffffffffffffffff16906020019091905050610a5c565b005b34156103a557600080fd5b6103fd600480803573ffffffffffffffffffffffffffffffffffffffff1690602001909190803573ffffffffffffffffffffffffffffffffffffffff1690602001909190803561ffff16906020019091905050610aa0565b005b341561040a57600080fd5b610436600480803573ffffffffffffffffffffffffffffffffffffffff16906020019091905050610bc4565b005b60008060009054906101000a900473ffffffffffffffffffffffffffffffffffffffff1673ffffffffffffffffffffffffffffffffffffffff163373ffffffffffffffffffffffffffffffffffffffff1614151561049557600080fd5b8490508073ffffffffffffffffffffffffffffffffffffffff166308dae3fe8585856040518463ffffffff167c0100000000000000000000000000000000000000000000000000000000028152600401808460ff1660ff1681526020018361ffff1661ffff1681526020018261ffff1661ffff1681526020019350505050600060405180830381600087803b151561052c57600080fd5b6102c65a03f1151561053d57600080fd5b5050505050505050565b60028181548110151561055657fe5b90600052602060002090016000915054906101000a900473ffffffffffffffffffffffffffffffffffffffff1681565b60008060009054906101000a900473ffffffffffffffffffffffffffffffffffffffff1673ffffffffffffffffffffffffffffffffffffffff163373ffffffffffffffffffffffffffffffffffffffff161415156105e357600080fd5b8190508073ffffffffffffffffffffffffffffffffffffffff16632852b71c6040518163ffffffff167c0100000000000000000000000000000000000000000000000000000000028152600401600060405180830381600087803b151561064957600080fd5b6102c65a03f1151561065a57600080fd5b5050505050565b6000600154905090565b6000809054906101000a900473ffffffffffffffffffffffffffffffffffffffff1673ffffffffffffffffffffffffffffffffffffffff163373ffffffffffffffffffffffffffffffffffffffff161415156106c657600080fd5b50565b60008060009054906101000a900473ffffffffffffffffffffffffffffffffffffffff1673ffffffffffffffffffffffffffffffffffffffff163373ffffffffffffffffffffffffffffffffffffffff1614151561072657600080fd5b8190508073ffffffffffffffffffffffffffffffffffffffff1663ea8a1af06040518163ffffffff167c0100000000000000000000000000000000000000000000000000000000028152600401600060405180830381600087803b151561078c57600080fd5b6102c65a03f1151561079d57600080fd5b5050505050565b60008060009054906101000a900473ffffffffffffffffffffffffffffffffffffffff1673ffffffffffffffffffffffffffffffffffffffff163373ffffffffffffffffffffffffffffffffffffffff1614151561080157600080fd5b8390508073ffffffffffffffffffffffffffffffffffffffff1663acc3566784846040518363ffffffff167c01000000000000000000000000000000000000000000000000000000000281526004018083815260200182815260200192505050600060405180830381600087803b151561087a57600080fd5b6102c65a03f1151561088b57600080fd5b50505050505050565b6000809054906101000a900473ffffffffffffffffffffffffffffffffffffffff1681565b6000600360009054906101000a900473ffffffffffffffffffffffffffffffffffffffff1673ffffffffffffffffffffffffffffffffffffffff1663b33eb0a06000604051602001526040518163ffffffff167c0100000000000000000000000000000000000000000000000000000000028152600401602060405180830381600087803b151561094957600080fd5b6102c65a03f1151561095a57600080fd5b5050506040518051905090506002805480600101828161097a9190610d19565b9160005260206000209001600083909190916101000a81548173ffffffffffffffffffffffffffffffffffffffff021916908373ffffffffffffffffffffffffffffffffffffffff1602179055505050565b60008290508073ffffffffffffffffffffffffffffffffffffffff1663474e7563836040518263ffffffff167c01000000000000000000000000000000000000000000000000000000000281526004018082151515158152602001915050600060405180830381600087803b1515610a4357600080fd5b6102c65a03f11515610a5457600080fd5b505050505050565b80600360006101000a81548173ffffffffffffffffffffffffffffffffffffffff021916908373ffffffffffffffffffffffffffffffffffffffff16021790555050565b60008060009054906101000a900473ffffffffffffffffffffffffffffffffffffffff1673ffffffffffffffffffffffffffffffffffffffff163373ffffffffffffffffffffffffffffffffffffffff16141515610afd57600080fd5b8390508073ffffffffffffffffffffffffffffffffffffffff16633bbb385684846040518363ffffffff167c0100000000000000000000000000000000000000000000000000000000028152600401808373ffffffffffffffffffffffffffffffffffffffff1673ffffffffffffffffffffffffffffffffffffffff1681526020018261ffff1661ffff16815260200192505050600060405180830381600087803b1515610baa57600080fd5b6102c65a03f11515610bbb57600080fd5b50505050505050565b6000809054906101000a900473ffffffffffffffffffffffffffffffffffffffff1673ffffffffffffffffffffffffffffffffffffffff163373ffffffffffffffffffffffffffffffffffffffff16141515610c1f57600080fd5b600073ffffffffffffffffffffffffffffffffffffffff168173ffffffffffffffffffffffffffffffffffffffff1614151515610c5b57600080fd5b8073ffffffffffffffffffffffffffffffffffffffff166000809054906101000a900473ffffffffffffffffffffffffffffffffffffffff1673ffffffffffffffffffffffffffffffffffffffff167f8be0079c531659141344cd1fd0a4f28419497f9722a3daafe3b4186f6b6457e060405160405180910390a3806000806101000a81548173ffffffffffffffffffffffffffffffffffffffff021916908373ffffffffffffffffffffffffffffffffffffffff16021790555050565b815481835581811511610d4057818360005260206000209182019101610d3f9190610d45565b5b505050565b610d6791905b80821115610d63576000816000905550600101610d4b565b5090565b905600a165627a7a72305820863e39781f4580ba1e9b1410234bddf97cd4e134a7f7c019fb5aad026ca0db890029",
  "source": "import \"./User.sol\";\r\nimport \"./../event/Event.sol\";\r\nimport \"./../factory/EventFactory.sol\";\r\n\r\ncontract Organizer is User {\r\n    \r\n    address[] public events;\r\n\r\n    EventFactory eventFactory;\r\n    \r\n    event EventCreated(address newEvent, uint position);\r\n    \r\n    function Organizer(address _owner, bytes32 _id) User(_owner, _id) {\r\n        \r\n    }\r\n    \r\n    function setEventFactory(address eventFactoryAddress) {\r\n        eventFactory = EventFactory(eventFactoryAddress);\r\n    } \r\n    \r\n    function createEvent() {\r\n\r\n        address newEvent = eventFactory.createEvent();\r\n        events.push(newEvent);\r\n    }\r\n    \r\n    function initializeDate(address eventAddress, uint _date, uint _duration) public onlyOwner {\r\n        Event e = Event(eventAddress);\r\n        e.initializeDate(_date, _duration);\r\n    }\r\n\r\n    function addOrganizer(address eventAddress, address _organizerAddress, uint16 _percentage) public onlyOwner {\r\n        Event e = Event(eventAddress);\r\n        e.addOrganizer(_organizerAddress, _percentage);\r\n    }\r\n\r\n    \r\n    function addTicket(address eventAddress, uint8 _ticketType, uint16 _price, uint16 _quantity) public onlyOwner {\r\n       Event e = Event(eventAddress);\r\n       e.addTicket(_ticketType, _price, _quantity);\r\n    }\r\n\r\n    function acceptEvent(address eventAddress) onlyOwner {\r\n        Event e = Event(eventAddress);\r\n        e.accept();\r\n    }\r\n\r\n    function cancelEvent(address eventAddress) onlyOwner {\r\n        Event e = Event(eventAddress);\r\n        e.cancel();\r\n    }\r\n\r\n    function evaluateEvent(address eventAddress, bool result) {\r\n        Event e = Event(eventAddress);\r\n        e.evaluate(result);\r\n    }\r\n\r\n    function askPayment(address eventAddress) onlyOwner {\r\n        //\r\n    }\r\n}",
  "sourcePath": "C:\\Users\\Elias\\Documents\\GitHub\\pae-team-repo\\contracts\\user\\Organizer.sol",
  "compiler": {
    "name": "solc",
    "version": "0.4.18+commit.9cf6e910.Emscripten.clang"
  },
  "schemaVersion": "1.0.1",
  "updatedAt": "2017-12-11T16:18:49.153Z"
}