{
  "contractName": "PermissionManager",
  "abi": [
    {
      "constant": true,
      "inputs": [],
      "name": "getNumRoles",
      "outputs": [
        {
          "name": "",
          "type": "uint256"
        }
      ],
      "payable": false,
      "stateMutability": "view",
      "type": "function"
    },
    {
      "constant": true,
      "inputs": [
        {
          "name": "",
          "type": "uint256"
        }
      ],
      "name": "_networkAdmin",
      "outputs": [
        {
          "name": "",
          "type": "bool"
        }
      ],
      "payable": false,
      "stateMutability": "view",
      "type": "function"
    },
    {
      "constant": false,
      "inputs": [
        {
          "name": "id",
          "type": "address"
        }
      ],
      "name": "createAndSetRol",
      "outputs": [
        {
          "name": "",
          "type": "uint256"
        }
      ],
      "payable": false,
      "stateMutability": "nonpayable",
      "type": "function"
    },
    {
      "constant": false,
      "inputs": [
        {
          "name": "id",
          "type": "address"
        }
      ],
      "name": "removeRol",
      "outputs": [],
      "payable": false,
      "stateMutability": "nonpayable",
      "type": "function"
    },
    {
      "constant": true,
      "inputs": [
        {
          "name": "rol",
          "type": "uint256"
        }
      ],
      "name": "getIdentityManager",
      "outputs": [
        {
          "name": "",
          "type": "bool"
        }
      ],
      "payable": false,
      "stateMutability": "view",
      "type": "function"
    },
    {
      "constant": true,
      "inputs": [
        {
          "name": "",
          "type": "uint256"
        }
      ],
      "name": "_reputationProvider",
      "outputs": [
        {
          "name": "",
          "type": "bool"
        }
      ],
      "payable": false,
      "stateMutability": "view",
      "type": "function"
    },
    {
      "constant": true,
      "inputs": [
        {
          "name": "id1",
          "type": "address"
        },
        {
          "name": "id2",
          "type": "address"
        },
        {
          "name": "rel",
          "type": "uint256"
        }
      ],
      "name": "getRelationship",
      "outputs": [
        {
          "name": "",
          "type": "bool"
        }
      ],
      "payable": false,
      "stateMutability": "view",
      "type": "function"
    },
    {
      "constant": false,
      "inputs": [],
      "name": "createRol",
      "outputs": [
        {
          "name": "",
          "type": "uint256"
        }
      ],
      "payable": false,
      "stateMutability": "nonpayable",
      "type": "function"
    },
    {
      "constant": true,
      "inputs": [
        {
          "name": "",
          "type": "uint256"
        }
      ],
      "name": "_identityManager",
      "outputs": [
        {
          "name": "",
          "type": "bool"
        }
      ],
      "payable": false,
      "stateMutability": "view",
      "type": "function"
    },
    {
      "constant": true,
      "inputs": [
        {
          "name": "",
          "type": "address"
        }
      ],
      "name": "_rol",
      "outputs": [
        {
          "name": "",
          "type": "uint256"
        }
      ],
      "payable": false,
      "stateMutability": "view",
      "type": "function"
    },
    {
      "constant": false,
      "inputs": [
        {
          "name": "from",
          "type": "address"
        },
        {
          "name": "to",
          "type": "address"
        },
        {
          "name": "interaction",
          "type": "uint256"
        }
      ],
      "name": "isInteractionAllowed",
      "outputs": [],
      "payable": false,
      "stateMutability": "nonpayable",
      "type": "function"
    },
    {
      "constant": false,
      "inputs": [
        {
          "name": "rol1",
          "type": "uint256"
        },
        {
          "name": "rol2",
          "type": "uint256"
        },
        {
          "name": "interaction",
          "type": "uint256"
        }
      ],
      "name": "allowInteraction",
      "outputs": [],
      "payable": false,
      "stateMutability": "nonpayable",
      "type": "function"
    },
    {
      "constant": false,
      "inputs": [
        {
          "name": "rol",
          "type": "uint256"
        }
      ],
      "name": "removeNetworkAdmin",
      "outputs": [],
      "payable": false,
      "stateMutability": "nonpayable",
      "type": "function"
    },
    {
      "constant": false,
      "inputs": [
        {
          "name": "id",
          "type": "address"
        },
        {
          "name": "rol",
          "type": "uint256"
        }
      ],
      "name": "setRol",
      "outputs": [],
      "payable": false,
      "stateMutability": "nonpayable",
      "type": "function"
    },
    {
      "constant": true,
      "inputs": [
        {
          "name": "rol",
          "type": "uint256"
        }
      ],
      "name": "getReputationProvider",
      "outputs": [
        {
          "name": "",
          "type": "bool"
        }
      ],
      "payable": false,
      "stateMutability": "view",
      "type": "function"
    },
    {
      "constant": true,
      "inputs": [
        {
          "name": "",
          "type": "uint256"
        },
        {
          "name": "",
          "type": "uint256"
        },
        {
          "name": "",
          "type": "uint256"
        }
      ],
      "name": "_relationships",
      "outputs": [
        {
          "name": "",
          "type": "bool"
        }
      ],
      "payable": false,
      "stateMutability": "view",
      "type": "function"
    },
    {
      "constant": false,
      "inputs": [
        {
          "name": "rol",
          "type": "uint256"
        }
      ],
      "name": "addReputationProvider",
      "outputs": [],
      "payable": false,
      "stateMutability": "nonpayable",
      "type": "function"
    },
    {
      "constant": false,
      "inputs": [
        {
          "name": "rol1",
          "type": "uint256"
        },
        {
          "name": "rol2",
          "type": "uint256"
        },
        {
          "name": "interaction",
          "type": "uint256"
        }
      ],
      "name": "disallowInteraction",
      "outputs": [],
      "payable": false,
      "stateMutability": "nonpayable",
      "type": "function"
    },
    {
      "constant": false,
      "inputs": [
        {
          "name": "rol",
          "type": "uint256"
        }
      ],
      "name": "addIdentityManager",
      "outputs": [],
      "payable": false,
      "stateMutability": "nonpayable",
      "type": "function"
    },
    {
      "constant": false,
      "inputs": [
        {
          "name": "rol",
          "type": "uint256"
        }
      ],
      "name": "removeReputationProvider",
      "outputs": [],
      "payable": false,
      "stateMutability": "nonpayable",
      "type": "function"
    },
    {
      "constant": false,
      "inputs": [
        {
          "name": "who",
          "type": "address"
        }
      ],
      "name": "isReputationProvider",
      "outputs": [],
      "payable": false,
      "stateMutability": "nonpayable",
      "type": "function"
    },
    {
      "constant": false,
      "inputs": [
        {
          "name": "rol",
          "type": "uint256"
        }
      ],
      "name": "addNetworkAdmin",
      "outputs": [],
      "payable": false,
      "stateMutability": "nonpayable",
      "type": "function"
    },
    {
      "constant": true,
      "inputs": [
        {
          "name": "rol",
          "type": "uint256"
        }
      ],
      "name": "getNetworkAdmin",
      "outputs": [
        {
          "name": "",
          "type": "bool"
        }
      ],
      "payable": false,
      "stateMutability": "view",
      "type": "function"
    },
    {
      "constant": false,
      "inputs": [
        {
          "name": "who",
          "type": "address"
        }
      ],
      "name": "isNetworkAdmin",
      "outputs": [],
      "payable": false,
      "stateMutability": "nonpayable",
      "type": "function"
    },
    {
      "constant": true,
      "inputs": [],
      "name": "_numRols",
      "outputs": [
        {
          "name": "",
          "type": "uint256"
        }
      ],
      "payable": false,
      "stateMutability": "view",
      "type": "function"
    },
    {
      "constant": false,
      "inputs": [
        {
          "name": "rol",
          "type": "uint256"
        }
      ],
      "name": "removeIdentityManager",
      "outputs": [],
      "payable": false,
      "stateMutability": "nonpayable",
      "type": "function"
    },
    {
      "constant": true,
      "inputs": [
        {
          "name": "id",
          "type": "address"
        }
      ],
      "name": "getRol",
      "outputs": [
        {
          "name": "",
          "type": "uint256"
        }
      ],
      "payable": false,
      "stateMutability": "view",
      "type": "function"
    },
    {
      "constant": false,
      "inputs": [
        {
          "name": "who",
          "type": "address"
        }
      ],
      "name": "isIdentityManager",
      "outputs": [],
      "payable": false,
      "stateMutability": "nonpayable",
      "type": "function"
    },
    {
      "inputs": [],
      "payable": false,
      "stateMutability": "nonpayable",
      "type": "constructor"
    },
    {
      "anonymous": false,
      "inputs": [
        {
          "indexed": true,
          "name": "rol",
          "type": "uint256"
        },
        {
          "indexed": false,
          "name": "who",
          "type": "address"
        }
      ],
      "name": "ev_Rol",
      "type": "event"
    },
    {
      "anonymous": false,
      "inputs": [
        {
          "indexed": true,
          "name": "rolFrom",
          "type": "uint256"
        },
        {
          "indexed": true,
          "name": "rolTo",
          "type": "uint256"
        },
        {
          "indexed": true,
          "name": "value",
          "type": "uint256"
        },
        {
          "indexed": false,
          "name": "allowed",
          "type": "bool"
        }
      ],
      "name": "ev_Interaction",
      "type": "event"
    },
    {
      "anonymous": false,
      "inputs": [
        {
          "indexed": true,
          "name": "rol",
          "type": "uint256"
        },
        {
          "indexed": false,
          "name": "allowed",
          "type": "bool"
        }
      ],
      "name": "ev_Admin",
      "type": "event"
    },
    {
      "anonymous": false,
      "inputs": [
        {
          "indexed": true,
          "name": "rol",
          "type": "uint256"
        },
        {
          "indexed": false,
          "name": "allowed",
          "type": "bool"
        }
      ],
      "name": "ev_IdentityManager",
      "type": "event"
    },
    {
      "anonymous": false,
      "inputs": [
        {
          "indexed": true,
          "name": "rol",
          "type": "uint256"
        },
        {
          "indexed": false,
          "name": "allowed",
          "type": "bool"
        }
      ],
      "name": "ev_ReputationProvider",
      "type": "event"
    }
  ],
  "bytecode": "0x6060604052341561000f57600080fd5b60016000803373ffffffffffffffffffffffffffffffffffffffff1673ffffffffffffffffffffffffffffffffffffffff168152602001908152602001600020819055506001600260006001815260200190815260200160002060006101000a81548160ff0219169083151502179055506002600181905550611364806100976000396000f30060606040526004361061016a576000357c0100000000000000000000000000000000000000000000000000000000900463ffffffff16806301e63fcb1461016f5780630bfb60b1146101985780630d0b11e8146101d35780631acaf07c14610220578063219608d914610259578063330658a714610294578063632cb0ba146102cf57806367b6ee4714610348578063684c36fd14610371578063709775a4146103ac578063841f6fe8146103f95780638c3a34fa1461045a57806391ee906f1461048f5780639deed659146104b25780639e585c02146104f4578063a2a82c161461052f578063a68a7a081461057c578063a68e35e91461059f578063bd82ee34146105d4578063be66c6d5146105f7578063c7e5ac071461061a578063ca59d9b514610653578063d166572114610676578063d1aa0c20146106b1578063e40655ca146106ea578063e40e5fbe14610713578063e53d054614610736578063e641500d14610783575b600080fd5b341561017a57600080fd5b6101826107bc565b6040518082815260200191505060405180910390f35b34156101a357600080fd5b6101b960048080359060200190919050506107c6565b604051808215151515815260200191505060405180910390f35b34156101de57600080fd5b61020a600480803573ffffffffffffffffffffffffffffffffffffffff169060200190919050506107e6565b6040518082815260200191505060405180910390f35b341561022b57600080fd5b610257600480803573ffffffffffffffffffffffffffffffffffffffff16906020019091905050610930565b005b341561026457600080fd5b61027a6004808035906020019091905050610947565b604051808215151515815260200191505060405180910390f35b341561029f57600080fd5b6102b56004808035906020019091905050610971565b604051808215151515815260200191505060405180910390f35b34156102da57600080fd5b61032e600480803573ffffffffffffffffffffffffffffffffffffffff1690602001909190803573ffffffffffffffffffffffffffffffffffffffff16906020019091908035906020019091905050610991565b604051808215151515815260200191505060405180910390f35b341561035357600080fd5b61035b610a5b565b6040518082815260200191505060405180910390f35b341561037c57600080fd5b6103926004808035906020019091905050610a82565b604051808215151515815260200191505060405180910390f35b34156103b757600080fd5b6103e3600480803573ffffffffffffffffffffffffffffffffffffffff16906020019091905050610aa2565b6040518082815260200191505060405180910390f35b341561040457600080fd5b610458600480803573ffffffffffffffffffffffffffffffffffffffff1690602001909190803573ffffffffffffffffffffffffffffffffffffffff16906020019091908035906020019091905050610aba565b005b341561046557600080fd5b61048d6004808035906020019091908035906020019091908035906020019091905050610b89565b005b341561049a57600080fd5b6104b06004808035906020019091905050610c24565b005b34156104bd57600080fd5b6104f2600480803573ffffffffffffffffffffffffffffffffffffffff16906020019091908035906020019091905050610c99565b005b34156104ff57600080fd5b6105156004808035906020019091905050610d5f565b604051808215151515815260200191505060405180910390f35b341561053a57600080fd5b6105626004808035906020019091908035906020019091908035906020019091905050610d89565b604051808215151515815260200191505060405180910390f35b341561058757600080fd5b61059d6004808035906020019091905050610dc5565b005b34156105aa57600080fd5b6105d26004808035906020019091908035906020019091908035906020019091905050610e3a565b005b34156105df57600080fd5b6105f56004808035906020019091905050610ed5565b005b341561060257600080fd5b6106186004808035906020019091905050610f4a565b005b341561062557600080fd5b610651600480803573ffffffffffffffffffffffffffffffffffffffff16906020019091905050610fbf565b005b341561065e57600080fd5b6106746004808035906020019091905050611094565b005b341561068157600080fd5b6106976004808035906020019091905050611109565b604051808215151515815260200191505060405180910390f35b34156106bc57600080fd5b6106e8600480803573ffffffffffffffffffffffffffffffffffffffff16906020019091905050611133565b005b34156106f557600080fd5b6106fd6111a0565b6040518082815260200191505060405180910390f35b341561071e57600080fd5b61073460048080359060200190919050506111a6565b005b341561074157600080fd5b61076d600480803573ffffffffffffffffffffffffffffffffffffffff1690602001909190505061121b565b6040518082815260200191505060405180910390f35b341561078e57600080fd5b6107ba600480803573ffffffffffffffffffffffffffffffffffffffff16906020019091905050611263565b005b6000600154905090565b60026020528060005260406000206000915054906101000a900460ff1681565b60006107f133611263565b6001546000808473ffffffffffffffffffffffffffffffffffffffff1673ffffffffffffffffffffffffffffffffffffffff168152602001908152602001600020819055506001600081548092919060010191905055506000808373ffffffffffffffffffffffffffffffffffffffff1673ffffffffffffffffffffffffffffffffffffffff168152602001908152602001600020547fc0b1f1b8abf6c241fb86df7fa10d6b3673e32ee1bab513833dbef6956d38b6db83604051808273ffffffffffffffffffffffffffffffffffffffff1673ffffffffffffffffffffffffffffffffffffffff16815260200191505060405180910390a26000808373ffffffffffffffffffffffffffffffffffffffff1673ffffffffffffffffffffffffffffffffffffffff168152602001908152602001600020549050919050565b61093933611263565b610944816000610c99565b50565b60006003600083815260200190815260200160002060009054906101000a900460ff169050919050565b60046020528060005260406000206000915054906101000a900460ff1681565b6000600560008060008773ffffffffffffffffffffffffffffffffffffffff1673ffffffffffffffffffffffffffffffffffffffff16815260200190815260200160002054815260200190815260200160002060008060008673ffffffffffffffffffffffffffffffffffffffff1673ffffffffffffffffffffffffffffffffffffffff168152602001908152602001600020548152602001908152602001600020600083815260200190815260200160002060009054906101000a900460ff1690509392505050565b6000610a6633611263565b6001600081548092919060010191905055506001805403905090565b60036020528060005260406000206000915054906101000a900460ff1681565b60006020528060005260406000206000915090505481565b600560008060008673ffffffffffffffffffffffffffffffffffffffff1673ffffffffffffffffffffffffffffffffffffffff16815260200190815260200160002054815260200190815260200160002060008060008573ffffffffffffffffffffffffffffffffffffffff1673ffffffffffffffffffffffffffffffffffffffff168152602001908152602001600020548152602001908152602001600020600082815260200190815260200160002060009054906101000a900460ff161515610b8457600080fd5b505050565b610b9233611263565b6001600560008581526020019081526020016000206000848152602001908152602001600020600083815260200190815260200160002060006101000a81548160ff0219169083151502179055508082847fa96b1e9a81c2a26dbd0588478b6797c517e33b3d4e2a1df4c3ecd4e1eb5748a56001604051808215151515815260200191505060405180910390a4505050565b610c2d33611263565b60006002600083815260200190815260200160002060006101000a81548160ff021916908315150217905550807f55f625c4827929f2cb48f444fde8475da3ebe9d0e61ba939dbc52a2ae03359e66000604051808215151515815260200191505060405180910390a250565b8060015481101515610caa57600080fd5b610cb333611263565b816000808573ffffffffffffffffffffffffffffffffffffffff1673ffffffffffffffffffffffffffffffffffffffff16815260200190815260200160002081905550817fc0b1f1b8abf6c241fb86df7fa10d6b3673e32ee1bab513833dbef6956d38b6db84604051808273ffffffffffffffffffffffffffffffffffffffff1673ffffffffffffffffffffffffffffffffffffffff16815260200191505060405180910390a2505050565b60006004600083815260200190815260200160002060009054906101000a900460ff169050919050565b6005602052826000526040600020602052816000526040600020602052806000526040600020600092509250509054906101000a900460ff1681565b610dce33611263565b60016004600083815260200190815260200160002060006101000a81548160ff021916908315150217905550807f6105040cfeccb9f7a4cbff171283d3bc501e28dbd0f88753b382b070cbb60c076001604051808215151515815260200191505060405180910390a250565b610e4333611263565b6000600560008581526020019081526020016000206000848152602001908152602001600020600083815260200190815260200160002060006101000a81548160ff0219169083151502179055508082847fa96b1e9a81c2a26dbd0588478b6797c517e33b3d4e2a1df4c3ecd4e1eb5748a56000604051808215151515815260200191505060405180910390a4505050565b610ede33611263565b60016003600083815260200190815260200160002060006101000a81548160ff021916908315150217905550807f18a9a36be1fd69a311277cc6cba5cc1bdc0f50b4922d5a1a9e7101ccef7295e16001604051808215151515815260200191505060405180910390a250565b610f5333611263565b60006004600083815260200190815260200160002060006101000a81548160ff021916908315150217905550807f6105040cfeccb9f7a4cbff171283d3bc501e28dbd0f88753b382b070cbb60c076000604051808215151515815260200191505060405180910390a250565b600260008060008473ffffffffffffffffffffffffffffffffffffffff1673ffffffffffffffffffffffffffffffffffffffff16815260200190815260200160002054815260200190815260200160002060009054906101000a900460ff161580156110875750600460008060008473ffffffffffffffffffffffffffffffffffffffff1673ffffffffffffffffffffffffffffffffffffffff16815260200190815260200160002054815260200190815260200160002060009054906101000a900460ff16155b1561109157600080fd5b50565b61109d33611263565b60016002600083815260200190815260200160002060006101000a81548160ff021916908315150217905550807f55f625c4827929f2cb48f444fde8475da3ebe9d0e61ba939dbc52a2ae03359e66001604051808215151515815260200191505060405180910390a250565b60006002600083815260200190815260200160002060009054906101000a900460ff169050919050565b600260008060008473ffffffffffffffffffffffffffffffffffffffff1673ffffffffffffffffffffffffffffffffffffffff16815260200190815260200160002054815260200190815260200160002060009054906101000a900460ff16151561119d57600080fd5b50565b60015481565b6111af33611263565b60006003600083815260200190815260200160002060006101000a81548160ff021916908315150217905550807f18a9a36be1fd69a311277cc6cba5cc1bdc0f50b4922d5a1a9e7101ccef7295e16000604051808215151515815260200191505060405180910390a250565b60008060008373ffffffffffffffffffffffffffffffffffffffff1673ffffffffffffffffffffffffffffffffffffffff168152602001908152602001600020549050919050565b600260008060008473ffffffffffffffffffffffffffffffffffffffff1673ffffffffffffffffffffffffffffffffffffffff16815260200190815260200160002054815260200190815260200160002060009054906101000a900460ff1615801561132b5750600360008060008473ffffffffffffffffffffffffffffffffffffffff1673ffffffffffffffffffffffffffffffffffffffff16815260200190815260200160002054815260200190815260200160002060009054906101000a900460ff16155b1561133557600080fd5b505600a165627a7a7230582054fdabcd9a016238ac3bf2fd5a3a42e1f5a9af8db4f5369d7cd7f419de8116c80029",
  "source": "pragma solidity ^0.4.4;\r\n\r\ncontract PermissionManager {\r\n  mapping(address => uint) public _rol; // Defines a specifid rol to an address. Default rol: 0\r\n  uint public _numRols;\r\n\r\n  // Which rol can perform the following actions\r\n\r\n  mapping(uint => bool) public _networkAdmin; // Admins can do everything. Only 1 by default\r\n  mapping(uint => bool) public _identityManager; // Create roles and assign identities\r\n  mapping(uint => bool) public _reputationProvider; // Oracle to provide the reputation\r\n\r\n  // Which interactions are allowed between 2 roles\r\n  // Rol1 => Rol2 => Interaction => allowed?\r\n  mapping(uint => mapping(uint => mapping(uint => bool))) public _relationships;\r\n\r\n  event ev_Rol(uint indexed rol, address who);\r\n  event ev_Interaction(uint indexed rolFrom, uint indexed rolTo, uint indexed value, bool allowed);\r\n  event ev_Admin(uint indexed rol, bool allowed);\r\n  event ev_IdentityManager(uint indexed rol, bool allowed);\r\n  event ev_ReputationProvider(uint indexed rol, bool allowed);\r\n\r\n  modifier rolInRange(uint rol) {\r\n    if(rol >= _numRols)\r\n      throw;\r\n    _;\r\n  }\r\n\r\n  function isNetworkAdmin(address who) {\r\n    if(!_networkAdmin[_rol[who]])\r\n      throw;\r\n  }\r\n\r\n  function isIdentityManager(address who) {\r\n    if(!_networkAdmin[_rol[who]] && !_identityManager[_rol[who]])\r\n      throw;\r\n  }\r\n\r\n  function isReputationProvider(address who) {\r\n    if(!_networkAdmin[_rol[who]] && !_reputationProvider[_rol[who]])\r\n      throw;\r\n  }\r\n\r\n  function isInteractionAllowed(address from, address to, uint interaction) {\r\n    if(!_relationships[_rol[from]][_rol[to]][interaction])\r\n      throw;\r\n  }\r\n\r\n  function PermissionManager() {\r\n    _rol[msg.sender] = 1;\r\n    _networkAdmin[1] = true;\r\n    _numRols = 2; // Default: 0 and Admin: 1\r\n  }\r\n\r\n  /**\r\n   * Gives a rol to an ID\r\n   * @param id ID\r\n   */\r\n  function createAndSetRol(address id) returns(uint) {\r\n    isIdentityManager(msg.sender);\r\n\r\n    _rol[id] = _numRols;\r\n    _numRols++;\r\n\r\n    ev_Rol(_rol[id], id);\r\n\r\n    return _rol[id];\r\n  }\r\n\r\n  function createRol() returns(uint) {\r\n    isIdentityManager(msg.sender);\r\n\r\n    _numRols++;\r\n\r\n    return _numRols-1;\r\n  }\r\n\r\n  /**\r\n   * Gives a rol to an ID\r\n   * @param id ID\r\n   * @param rol Rol\r\n   */\r\n  function setRol(address id, uint rol) rolInRange(rol) {\r\n    isIdentityManager(msg.sender);\r\n\r\n    _rol[id] = rol;\r\n\r\n    ev_Rol(rol, id);\r\n  }\r\n\r\n  /**\r\n   * Removes a rol of an ID\r\n   * @param id ID\r\n   */\r\n  function removeRol(address id) {\r\n    isIdentityManager(msg.sender);\r\n\r\n    setRol(id, 0);\r\n  }\r\n\r\n  function allowInteraction(uint rol1, uint rol2, uint interaction) {\r\n    isIdentityManager(msg.sender);\r\n\r\n    _relationships[rol1][rol2][interaction] = true;\r\n\r\n    ev_Interaction(rol1, rol2, interaction, true);\r\n  }\r\n\r\n  function disallowInteraction(uint rol1, uint rol2, uint interaction) {\r\n    isIdentityManager(msg.sender);\r\n\r\n    _relationships[rol1][rol2][interaction] = false;\r\n\r\n    ev_Interaction(rol1, rol2, interaction, false);\r\n  }\r\n\r\n  // Functions to manage roles permissions\r\n\r\n  function addNetworkAdmin(uint rol) {\r\n    isIdentityManager(msg.sender);\r\n\r\n    _networkAdmin[rol] = true;\r\n\r\n    ev_Admin(rol, true);\r\n  }\r\n\r\n  function addIdentityManager(uint rol) {\r\n    isIdentityManager(msg.sender);\r\n\r\n    _identityManager[rol] = true;\r\n\r\n    ev_IdentityManager(rol, true);\r\n  }\r\n\r\n  function addReputationProvider(uint rol) {\r\n    isIdentityManager(msg.sender);\r\n\r\n    _reputationProvider[rol] = true;\r\n\r\n    ev_ReputationProvider(rol, true);\r\n  }\r\n\r\n  function removeNetworkAdmin(uint rol) {\r\n    isIdentityManager(msg.sender);\r\n\r\n    _networkAdmin[rol] = false;\r\n\r\n    ev_Admin(rol, false);\r\n  }\r\n\r\n  function removeIdentityManager(uint rol) {\r\n    isIdentityManager(msg.sender);\r\n\r\n    _identityManager[rol] = false;\r\n\r\n    ev_IdentityManager(rol, false);\r\n  }\r\n\r\n  function removeReputationProvider(uint rol) {\r\n    isIdentityManager(msg.sender);\r\n\r\n    _reputationProvider[rol] = false;\r\n\r\n    ev_ReputationProvider(rol, false);\r\n  }\r\n\r\n  function getRelationship(address id1, address id2, uint rel) constant returns(bool) {\r\n\r\n    return _relationships[_rol[id1]][_rol[id2]][rel];\r\n  }\r\n\r\n  function getRol(address id) constant returns(uint) {\r\n\r\n    return _rol[id];\r\n  }\r\n\r\n  function getNumRoles() constant returns(uint) {\r\n      return _numRols;\r\n  }\r\n\r\n  function getNetworkAdmin(uint rol) constant returns(bool) {\r\n      return _networkAdmin[rol];\r\n  }\r\n\r\n  function getIdentityManager(uint rol) constant returns(bool) {\r\n      return _identityManager[rol];\r\n  }\r\n\r\n  function getReputationProvider(uint rol) constant returns(bool) {\r\n      return _reputationProvider[rol];\r\n  }\r\n}",
  "sourcePath": "C:\\Users\\Elias\\Documents\\GitHub\\pae-team-repo\\contracts\\bs-token\\PermissionManager.sol",
  "compiler": {
    "name": "solc",
    "version": "0.4.18+commit.9cf6e910.Emscripten.clang"
  },
  "schemaVersion": "1.0.1",
  "updatedAt": "2017-12-11T16:18:49.110Z"
}