{
  "contractName": "Stoppable",
  "abi": [
    {
      "constant": false,
      "inputs": [],
      "name": "startEmergency",
      "outputs": [],
      "payable": false,
      "stateMutability": "nonpayable",
      "type": "function"
    },
    {
      "constant": false,
      "inputs": [],
      "name": "stopEmergency",
      "outputs": [],
      "payable": false,
      "stateMutability": "nonpayable",
      "type": "function"
    },
    {
      "constant": true,
      "inputs": [],
      "name": "emergency",
      "outputs": [
        {
          "name": "",
          "type": "bool"
        }
      ],
      "payable": false,
      "stateMutability": "view",
      "type": "function"
    }
  ],
  "bytecode": "0x6060604052341561000f57600080fd5b6104638061001e6000396000f300606060405260043610610057576000357c0100000000000000000000000000000000000000000000000000000000900463ffffffff1680630fb7e6021461005c57806397db7edb14610071578063caa6fea414610086575b600080fd5b341561006757600080fd5b61006f6100b3565b005b341561007c57600080fd5b61008461026c565b005b341561009157600080fd5b610099610424565b604051808215151515815260200191505060405180910390f35b6000809054906101000a900473ffffffffffffffffffffffffffffffffffffffff1673ffffffffffffffffffffffffffffffffffffffff1663d16657216000809054906101000a900473ffffffffffffffffffffffffffffffffffffffff1673ffffffffffffffffffffffffffffffffffffffff1663e53d0546336000604051602001526040518263ffffffff167c0100000000000000000000000000000000000000000000000000000000028152600401808273ffffffffffffffffffffffffffffffffffffffff1673ffffffffffffffffffffffffffffffffffffffff168152602001915050602060405180830381600087803b15156101b457600080fd5b6102c65a03f115156101c557600080fd5b505050604051805190506000604051602001526040518263ffffffff167c010000000000000000000000000000000000000000000000000000000002815260040180828152602001915050602060405180830381600087803b151561022957600080fd5b6102c65a03f1151561023a57600080fd5b50505060405180519050151561024f57600080fd5b6001600060146101000a81548160ff021916908315150217905550565b6000809054906101000a900473ffffffffffffffffffffffffffffffffffffffff1673ffffffffffffffffffffffffffffffffffffffff1663d16657216000809054906101000a900473ffffffffffffffffffffffffffffffffffffffff1673ffffffffffffffffffffffffffffffffffffffff1663e53d0546336000604051602001526040518263ffffffff167c0100000000000000000000000000000000000000000000000000000000028152600401808273ffffffffffffffffffffffffffffffffffffffff1673ffffffffffffffffffffffffffffffffffffffff168152602001915050602060405180830381600087803b151561036d57600080fd5b6102c65a03f1151561037e57600080fd5b505050604051805190506000604051602001526040518263ffffffff167c010000000000000000000000000000000000000000000000000000000002815260040180828152602001915050602060405180830381600087803b15156103e257600080fd5b6102c65a03f115156103f357600080fd5b50505060405180519050151561040857600080fd5b60008060146101000a81548160ff021916908315150217905550565b600060149054906101000a900460ff16815600a165627a7a72305820e42b44b683d705d071cea8ca774b515471d1635f333ea30c65051c4624cb78350029",
  "source": "pragma solidity ^0.4.2;\r\n\r\nimport \"./Admin.sol\";\r\n\r\ncontract Stoppable is Admin {\r\n    bool public emergency;\r\n\r\n    modifier stopInEmergency {\r\n        if (emergency) throw;\r\n        _;\r\n    }\r\n\r\n    function startEmergency() external onlyAdmin {\r\n        emergency = true;\r\n    }\r\n\r\n    function stopEmergency() external onlyAdmin {\r\n        emergency = false;\r\n    }\r\n}",
  "sourcePath": "C:\\Users\\Elias\\Documents\\GitHub\\pae-team-repo\\contracts\\bs-token\\Stoppable.sol",
  "compiler": {
    "name": "solc",
    "version": "0.4.18+commit.9cf6e910.Emscripten.clang"
  },
  "schemaVersion": "1.0.1",
  "updatedAt": "2017-12-11T16:18:49.062Z"
}