{
  "contractName": "TicketToken",
  "abi": [
    {
      "constant": true,
      "inputs": [],
      "name": "getValue",
      "outputs": [
        {
          "name": "",
          "type": "uint16"
        }
      ],
      "payable": false,
      "stateMutability": "view",
      "type": "function"
    },
    {
      "constant": true,
      "inputs": [
        {
          "name": "_owner",
          "type": "address"
        }
      ],
      "name": "allowance",
      "outputs": [
        {
          "name": "",
          "type": "uint256"
        }
      ],
      "payable": false,
      "stateMutability": "view",
      "type": "function"
    },
    {
      "constant": false,
      "inputs": [],
      "name": "unpause",
      "outputs": [],
      "payable": false,
      "stateMutability": "nonpayable",
      "type": "function"
    },
    {
      "constant": false,
      "inputs": [
        {
          "name": "_from",
          "type": "address"
        },
        {
          "name": "_to",
          "type": "address"
        },
        {
          "name": "_value",
          "type": "uint16"
        }
      ],
      "name": "transferFrom",
      "outputs": [
        {
          "name": "success",
          "type": "bool"
        }
      ],
      "payable": false,
      "stateMutability": "nonpayable",
      "type": "function"
    },
    {
      "constant": true,
      "inputs": [],
      "name": "getCap",
      "outputs": [
        {
          "name": "",
          "type": "uint16"
        }
      ],
      "payable": false,
      "stateMutability": "view",
      "type": "function"
    },
    {
      "constant": true,
      "inputs": [],
      "name": "paused",
      "outputs": [
        {
          "name": "",
          "type": "bool"
        }
      ],
      "payable": false,
      "stateMutability": "view",
      "type": "function"
    },
    {
      "constant": true,
      "inputs": [
        {
          "name": "_owner",
          "type": "address"
        }
      ],
      "name": "balanceOf",
      "outputs": [
        {
          "name": "balance",
          "type": "uint16"
        }
      ],
      "payable": false,
      "stateMutability": "view",
      "type": "function"
    },
    {
      "constant": true,
      "inputs": [],
      "name": "data",
      "outputs": [
        {
          "name": "",
          "type": "address"
        }
      ],
      "payable": false,
      "stateMutability": "view",
      "type": "function"
    },
    {
      "constant": false,
      "inputs": [],
      "name": "pause",
      "outputs": [],
      "payable": false,
      "stateMutability": "nonpayable",
      "type": "function"
    },
    {
      "constant": false,
      "inputs": [
        {
          "name": "_to",
          "type": "address"
        },
        {
          "name": "_number",
          "type": "uint16"
        }
      ],
      "name": "assignTickets",
      "outputs": [],
      "payable": false,
      "stateMutability": "nonpayable",
      "type": "function"
    },
    {
      "constant": false,
      "inputs": [
        {
          "name": "_value",
          "type": "uint16"
        }
      ],
      "name": "approve",
      "outputs": [
        {
          "name": "",
          "type": "bool"
        }
      ],
      "payable": false,
      "stateMutability": "nonpayable",
      "type": "function"
    },
    {
      "constant": true,
      "inputs": [],
      "name": "owner",
      "outputs": [
        {
          "name": "",
          "type": "address"
        }
      ],
      "payable": false,
      "stateMutability": "view",
      "type": "function"
    },
    {
      "constant": true,
      "inputs": [],
      "name": "getTotalSupply",
      "outputs": [
        {
          "name": "",
          "type": "uint16"
        }
      ],
      "payable": false,
      "stateMutability": "view",
      "type": "function"
    },
    {
      "constant": false,
      "inputs": [
        {
          "name": "_number",
          "type": "uint16"
        }
      ],
      "name": "useTicket",
      "outputs": [],
      "payable": false,
      "stateMutability": "nonpayable",
      "type": "function"
    },
    {
      "constant": false,
      "inputs": [
        {
          "name": "_sender",
          "type": "address"
        }
      ],
      "name": "redButton",
      "outputs": [
        {
          "name": "",
          "type": "uint16"
        }
      ],
      "payable": false,
      "stateMutability": "nonpayable",
      "type": "function"
    },
    {
      "constant": true,
      "inputs": [
        {
          "name": "",
          "type": "address"
        }
      ],
      "name": "subowner",
      "outputs": [
        {
          "name": "",
          "type": "bool"
        }
      ],
      "payable": false,
      "stateMutability": "view",
      "type": "function"
    },
    {
      "constant": false,
      "inputs": [
        {
          "name": "_to",
          "type": "address"
        },
        {
          "name": "_value",
          "type": "uint16"
        }
      ],
      "name": "transfer",
      "outputs": [
        {
          "name": "",
          "type": "bool"
        }
      ],
      "payable": false,
      "stateMutability": "nonpayable",
      "type": "function"
    },
    {
      "constant": false,
      "inputs": [
        {
          "name": "_subowner",
          "type": "address"
        }
      ],
      "name": "addSubowner",
      "outputs": [],
      "payable": false,
      "stateMutability": "nonpayable",
      "type": "function"
    },
    {
      "inputs": [
        {
          "name": "_admin",
          "type": "address"
        },
        {
          "name": "_ticketTokenDataAddress",
          "type": "address"
        }
      ],
      "payable": false,
      "stateMutability": "nonpayable",
      "type": "constructor"
    },
    {
      "anonymous": false,
      "inputs": [],
      "name": "Pause",
      "type": "event"
    },
    {
      "anonymous": false,
      "inputs": [],
      "name": "Unpause",
      "type": "event"
    }
  ],
  "bytecode": "0x60606040526000600260006101000a81548160ff021916908315150217905550341561002a57600080fd5b604051604080613e51833981016040528080519060200190919080519060200190919050508133816000806101000a81548173ffffffffffffffffffffffffffffffffffffffff021916908373ffffffffffffffffffffffffffffffffffffffff16021790555060018060008373ffffffffffffffffffffffffffffffffffffffff1673ffffffffffffffffffffffffffffffffffffffff16815260200190815260200160002060006101000a81548160ff021916908315150217905550505080600260016101000a81548173ffffffffffffffffffffffffffffffffffffffff021916908373ffffffffffffffffffffffffffffffffffffffff1602179055505050613d158061013c6000396000f3006060604052600436106100fc576000357c0100000000000000000000000000000000000000000000000000000000900463ffffffff16806320965255146101015780633e5beab9146101325780633f4ba83a1461017f5780634ec3dcfe14610194578063554d578d146102115780635c975abb1461024257806370a082311461026f57806373d4a13a146102c45780638456cb591461031957806384f9b5601461032e57806389fcdbc5146103745780638da5cb5b146103b3578063c4e41b2214610408578063c76b4cef14610439578063dc6dfaaf14610460578063ed25d8b7146104b5578063eee0022414610506578063f269b7bf14610564575b600080fd5b341561010c57600080fd5b61011461059d565b604051808261ffff1661ffff16815260200191505060405180910390f35b341561013d57600080fd5b610169600480803573ffffffffffffffffffffffffffffffffffffffff1690602001909190505061064d565b6040518082815260200191505060405180910390f35b341561018a57600080fd5b61019261073a565b005b341561019f57600080fd5b6101f7600480803573ffffffffffffffffffffffffffffffffffffffff1690602001909190803573ffffffffffffffffffffffffffffffffffffffff1690602001909190803561ffff169060200190919050506107f9565b604051808215151515815260200191505060405180910390f35b341561021c57600080fd5b610224610fb8565b604051808261ffff1661ffff16815260200191505060405180910390f35b341561024d57600080fd5b610255611068565b604051808215151515815260200191505060405180910390f35b341561027a57600080fd5b6102a6600480803573ffffffffffffffffffffffffffffffffffffffff1690602001909190505061107b565b604051808261ffff1661ffff16815260200191505060405180910390f35b34156102cf57600080fd5b6102d7611164565b604051808273ffffffffffffffffffffffffffffffffffffffff1673ffffffffffffffffffffffffffffffffffffffff16815260200191505060405180910390f35b341561032457600080fd5b61032c61118a565b005b341561033957600080fd5b610372600480803573ffffffffffffffffffffffffffffffffffffffff1690602001909190803561ffff169060200190919050506112d4565b005b341561037f57600080fd5b610399600480803561ffff16906020019091905050611fe7565b604051808215151515815260200191505060405180910390f35b34156103be57600080fd5b6103c66125d9565b604051808273ffffffffffffffffffffffffffffffffffffffff1673ffffffffffffffffffffffffffffffffffffffff16815260200191505060405180910390f35b341561041357600080fd5b61041b6125fe565b604051808261ffff1661ffff16815260200191505060405180910390f35b341561044457600080fd5b61045e600480803561ffff169060200190919050506126ae565b005b341561046b57600080fd5b610497600480803573ffffffffffffffffffffffffffffffffffffffff16906020019091905050612d25565b604051808261ffff1661ffff16815260200191505060405180910390f35b34156104c057600080fd5b6104ec600480803573ffffffffffffffffffffffffffffffffffffffff16906020019091905050613382565b604051808215151515815260200191505060405180910390f35b341561051157600080fd5b61054a600480803573ffffffffffffffffffffffffffffffffffffffff1690602001909190803561ffff169060200190919050506133a2565b604051808215151515815260200191505060405180910390f35b341561056f57600080fd5b61059b600480803573ffffffffffffffffffffffffffffffffffffffff16906020019091905050613c34565b005b6000600260019054906101000a900473ffffffffffffffffffffffffffffffffffffffff1673ffffffffffffffffffffffffffffffffffffffff1663209652556000604051602001526040518163ffffffff167c0100000000000000000000000000000000000000000000000000000000028152600401602060405180830381600087803b151561062d57600080fd5b6102c65a03f1151561063e57600080fd5b50505060405180519050905090565b6000600260019054906101000a900473ffffffffffffffffffffffffffffffffffffffff1673ffffffffffffffffffffffffffffffffffffffff1663f0598407836000604051602001526040518263ffffffff167c0100000000000000000000000000000000000000000000000000000000028152600401808273ffffffffffffffffffffffffffffffffffffffff1673ffffffffffffffffffffffffffffffffffffffff168152602001915050602060405180830381600087803b151561071457600080fd5b6102c65a03f1151561072557600080fd5b5050506040518051905061ffff169050919050565b6000809054906101000a900473ffffffffffffffffffffffffffffffffffffffff1673ffffffffffffffffffffffffffffffffffffffff163373ffffffffffffffffffffffffffffffffffffffff1614151561079557600080fd5b600260009054906101000a900460ff1615156107b057600080fd5b6000600260006101000a81548160ff0219169083151502179055507f7805862f689e2f13df9f062ff482ad3ad112aca9e0847911ed832e158c525b3360405160405180910390a1565b6000600160003373ffffffffffffffffffffffffffffffffffffffff1673ffffffffffffffffffffffffffffffffffffffff16815260200190815260200160002060009054906101000a900460ff168061089f57506000809054906101000a900473ffffffffffffffffffffffffffffffffffffffff1673ffffffffffffffffffffffffffffffffffffffff163373ffffffffffffffffffffffffffffffffffffffff16145b806108d557503073ffffffffffffffffffffffffffffffffffffffff163373ffffffffffffffffffffffffffffffffffffffff16145b15156108e057600080fd5b600260009054906101000a900460ff161515156108fc57600080fd5b600073ffffffffffffffffffffffffffffffffffffffff168373ffffffffffffffffffffffffffffffffffffffff161415151561093857600080fd5b600260019054906101000a900473ffffffffffffffffffffffffffffffffffffffff1673ffffffffffffffffffffffffffffffffffffffff1663f0598407856000604051602001526040518263ffffffff167c0100000000000000000000000000000000000000000000000000000000028152600401808273ffffffffffffffffffffffffffffffffffffffff1673ffffffffffffffffffffffffffffffffffffffff168152602001915050602060405180830381600087803b15156109fd57600080fd5b6102c65a03f11515610a0e57600080fd5b5050506040518051905061ffff168261ffff1611151515610a2e57600080fd5b600260019054906101000a900473ffffffffffffffffffffffffffffffffffffffff1673ffffffffffffffffffffffffffffffffffffffff1663d0feb46085610b6385600260019054906101000a900473ffffffffffffffffffffffffffffffffffffffff1673ffffffffffffffffffffffffffffffffffffffff1663f8b2cb4f8a6000604051602001526040518263ffffffff167c0100000000000000000000000000000000000000000000000000000000028152600401808273ffffffffffffffffffffffffffffffffffffffff1673ffffffffffffffffffffffffffffffffffffffff168152602001915050602060405180830381600087803b1515610b3657600080fd5b6102c65a03f11515610b4757600080fd5b5050506040518051905061ffff16613c8e90919063ffffffff16565b6040518363ffffffff167c0100000000000000000000000000000000000000000000000000000000028152600401808373ffffffffffffffffffffffffffffffffffffffff1673ffffffffffffffffffffffffffffffffffffffff1681526020018261ffff1661ffff16815260200192505050600060405180830381600087803b1515610bef57600080fd5b6102c65a03f11515610c0057600080fd5b505050600260019054906101000a900473ffffffffffffffffffffffffffffffffffffffff1673ffffffffffffffffffffffffffffffffffffffff16631222825085610d3885600260019054906101000a900473ffffffffffffffffffffffffffffffffffffffff1673ffffffffffffffffffffffffffffffffffffffff1663f05984078a6000604051602001526040518263ffffffff167c0100000000000000000000000000000000000000000000000000000000028152600401808273ffffffffffffffffffffffffffffffffffffffff1673ffffffffffffffffffffffffffffffffffffffff168152602001915050602060405180830381600087803b1515610d0b57600080fd5b6102c65a03f11515610d1c57600080fd5b5050506040518051905061ffff16613c8e90919063ffffffff16565b6040518363ffffffff167c0100000000000000000000000000000000000000000000000000000000028152600401808373ffffffffffffffffffffffffffffffffffffffff1673ffffffffffffffffffffffffffffffffffffffff1681526020018261ffff1661ffff16815260200192505050600060405180830381600087803b1515610dc457600080fd5b6102c65a03f11515610dd557600080fd5b505050600260019054906101000a900473ffffffffffffffffffffffffffffffffffffffff1673ffffffffffffffffffffffffffffffffffffffff1663d0feb46084610f0d85600260019054906101000a900473ffffffffffffffffffffffffffffffffffffffff1673ffffffffffffffffffffffffffffffffffffffff1663f8b2cb4f896000604051602001526040518263ffffffff167c0100000000000000000000000000000000000000000000000000000000028152600401808273ffffffffffffffffffffffffffffffffffffffff1673ffffffffffffffffffffffffffffffffffffffff168152602001915050602060405180830381600087803b1515610ee057600080fd5b6102c65a03f11515610ef157600080fd5b5050506040518051905061ffff16613caf90919063ffffffff16565b6040518363ffffffff167c0100000000000000000000000000000000000000000000000000000000028152600401808373ffffffffffffffffffffffffffffffffffffffff1673ffffffffffffffffffffffffffffffffffffffff1681526020018261ffff1661ffff16815260200192505050600060405180830381600087803b1515610f9957600080fd5b6102c65a03f11515610faa57600080fd5b505050600190509392505050565b6000600260019054906101000a900473ffffffffffffffffffffffffffffffffffffffff1673ffffffffffffffffffffffffffffffffffffffff1663554d578d6000604051602001526040518163ffffffff167c0100000000000000000000000000000000000000000000000000000000028152600401602060405180830381600087803b151561104857600080fd5b6102c65a03f1151561105957600080fd5b50505060405180519050905090565b600260009054906101000a900460ff1681565b6000600260019054906101000a900473ffffffffffffffffffffffffffffffffffffffff1673ffffffffffffffffffffffffffffffffffffffff1663f8b2cb4f836000604051602001526040518263ffffffff167c0100000000000000000000000000000000000000000000000000000000028152600401808273ffffffffffffffffffffffffffffffffffffffff1673ffffffffffffffffffffffffffffffffffffffff168152602001915050602060405180830381600087803b151561114257600080fd5b6102c65a03f1151561115357600080fd5b505050604051805190509050919050565b600260019054906101000a900473ffffffffffffffffffffffffffffffffffffffff1681565b600160003373ffffffffffffffffffffffffffffffffffffffff1673ffffffffffffffffffffffffffffffffffffffff16815260200190815260200160002060009054906101000a900460ff168061122e57506000809054906101000a900473ffffffffffffffffffffffffffffffffffffffff1673ffffffffffffffffffffffffffffffffffffffff163373ffffffffffffffffffffffffffffffffffffffff16145b8061126457503073ffffffffffffffffffffffffffffffffffffffff163373ffffffffffffffffffffffffffffffffffffffff16145b151561126f57600080fd5b600260009054906101000a900460ff1615151561128b57600080fd5b6001600260006101000a81548160ff0219169083151502179055507f6985a02210a168e66602d3235cb6db0e70f92b3ba4d376a33c0f3d9434bff62560405160405180910390a1565b6000600160003373ffffffffffffffffffffffffffffffffffffffff1673ffffffffffffffffffffffffffffffffffffffff16815260200190815260200160002060009054906101000a900460ff168061137a57506000809054906101000a900473ffffffffffffffffffffffffffffffffffffffff1673ffffffffffffffffffffffffffffffffffffffff163373ffffffffffffffffffffffffffffffffffffffff16145b806113b057503073ffffffffffffffffffffffffffffffffffffffff163373ffffffffffffffffffffffffffffffffffffffff16145b15156113bb57600080fd5b600260009054906101000a900460ff161515156113d757600080fd5b8161ffff16600260019054906101000a900473ffffffffffffffffffffffffffffffffffffffff1673ffffffffffffffffffffffffffffffffffffffff1663e1cb547e6000604051602001526040518163ffffffff167c0100000000000000000000000000000000000000000000000000000000028152600401602060405180830381600087803b151561146a57600080fd5b6102c65a03f1151561147b57600080fd5b50505060405180519050600260019054906101000a900473ffffffffffffffffffffffffffffffffffffffff1673ffffffffffffffffffffffffffffffffffffffff1663c4e41b226000604051602001526040518163ffffffff167c0100000000000000000000000000000000000000000000000000000000028152600401602060405180830381600087803b151561151357600080fd5b6102c65a03f1151561152457600080fd5b50505060405180519050600260019054906101000a900473ffffffffffffffffffffffffffffffffffffffff1673ffffffffffffffffffffffffffffffffffffffff1663554d578d6000604051602001526040518163ffffffff167c0100000000000000000000000000000000000000000000000000000000028152600401602060405180830381600087803b15156115bc57600080fd5b6102c65a03f115156115cd57600080fd5b50505060405180519050030161ffff16101515156115ea57600080fd5b5b60008261ffff161115611fe257600260019054906101000a900473ffffffffffffffffffffffffffffffffffffffff1673ffffffffffffffffffffffffffffffffffffffff1663554d578d6000604051602001526040518163ffffffff167c0100000000000000000000000000000000000000000000000000000000028152600401602060405180830381600087803b151561168657600080fd5b6102c65a03f1151561169757600080fd5b5050506040518051905061ffff166001600260019054906101000a900473ffffffffffffffffffffffffffffffffffffffff1673ffffffffffffffffffffffffffffffffffffffff1663c4e41b226000604051602001526040518163ffffffff167c0100000000000000000000000000000000000000000000000000000000028152600401602060405180830381600087803b151561173557600080fd5b6102c65a03f1151561174657600080fd5b505050604051805190500161ffff16111515611a8057600260019054906101000a900473ffffffffffffffffffffffffffffffffffffffff1673ffffffffffffffffffffffffffffffffffffffff1663d0feb460846001600260019054906101000a900473ffffffffffffffffffffffffffffffffffffffff1673ffffffffffffffffffffffffffffffffffffffff1663f8b2cb4f886000604051602001526040518263ffffffff167c0100000000000000000000000000000000000000000000000000000000028152600401808273ffffffffffffffffffffffffffffffffffffffff1673ffffffffffffffffffffffffffffffffffffffff168152602001915050602060405180830381600087803b151561186257600080fd5b6102c65a03f1151561187357600080fd5b50505060405180519050016040518363ffffffff167c0100000000000000000000000000000000000000000000000000000000028152600401808373ffffffffffffffffffffffffffffffffffffffff1673ffffffffffffffffffffffffffffffffffffffff1681526020018261ffff1661ffff16815260200192505050600060405180830381600087803b151561190a57600080fd5b6102c65a03f1151561191b57600080fd5b505050600260019054906101000a900473ffffffffffffffffffffffffffffffffffffffff1673ffffffffffffffffffffffffffffffffffffffff1663562e438b6001600260019054906101000a900473ffffffffffffffffffffffffffffffffffffffff1673ffffffffffffffffffffffffffffffffffffffff1663c4e41b226000604051602001526040518163ffffffff167c0100000000000000000000000000000000000000000000000000000000028152600401602060405180830381600087803b15156119ec57600080fd5b6102c65a03f115156119fd57600080fd5b50505060405180519050016040518263ffffffff167c0100000000000000000000000000000000000000000000000000000000028152600401808261ffff1661ffff168152602001915050600060405180830381600087803b1515611a6157600080fd5b6102c65a03f11515611a7257600080fd5b505050600182039150611fdd565b600090505b600260019054906101000a900473ffffffffffffffffffffffffffffffffffffffff1673ffffffffffffffffffffffffffffffffffffffff16633aa763826000604051602001526040518163ffffffff167c0100000000000000000000000000000000000000000000000000000000028152600401602060405180830381600087803b1515611b1357600080fd5b6102c65a03f11515611b2457600080fd5b505050604051805190508161ffff161015611fdc576000600260019054906101000a900473ffffffffffffffffffffffffffffffffffffffff1673ffffffffffffffffffffffffffffffffffffffff1663f0598407600260019054906101000a900473ffffffffffffffffffffffffffffffffffffffff1673ffffffffffffffffffffffffffffffffffffffff1663b9ec93c8856000604051602001526040518263ffffffff167c0100000000000000000000000000000000000000000000000000000000028152600401808261ffff1661ffff168152602001915050602060405180830381600087803b1515611c1a57600080fd5b6102c65a03f11515611c2b57600080fd5b505050604051805190506000604051602001526040518263ffffffff167c0100000000000000000000000000000000000000000000000000000000028152600401808273ffffffffffffffffffffffffffffffffffffffff1673ffffffffffffffffffffffffffffffffffffffff168152602001915050602060405180830381600087803b1515611cbb57600080fd5b6102c65a03f11515611ccc57600080fd5b5050506040518051905061ffff161115611f2257611da7600260019054906101000a900473ffffffffffffffffffffffffffffffffffffffff1673ffffffffffffffffffffffffffffffffffffffff1663b9ec93c8836000604051602001526040518263ffffffff167c0100000000000000000000000000000000000000000000000000000000028152600401808261ffff1661ffff168152602001915050602060405180830381600087803b1515611d8457600080fd5b6102c65a03f11515611d9557600080fd5b505050604051805190508460016107f9565b50600181039050600182039150600260019054906101000a900473ffffffffffffffffffffffffffffffffffffffff1673ffffffffffffffffffffffffffffffffffffffff166369fa0f156001600260019054906101000a900473ffffffffffffffffffffffffffffffffffffffff1673ffffffffffffffffffffffffffffffffffffffff1663e1cb547e6000604051602001526040518163ffffffff167c0100000000000000000000000000000000000000000000000000000000028152600401602060405180830381600087803b1515611e8257600080fd5b6102c65a03f11515611e9357600080fd5b50505060405180519050036040518263ffffffff167c0100000000000000000000000000000000000000000000000000000000028152600401808261ffff1661ffff168152602001915050600060405180830381600087803b1515611ef757600080fd5b6102c65a03f11515611f0857600080fd5b50505060008261ffff161415611f1d57611fdc565b611fcf565b600260019054906101000a900473ffffffffffffffffffffffffffffffffffffffff1673ffffffffffffffffffffffffffffffffffffffff16638812d7ae826040518263ffffffff167c0100000000000000000000000000000000000000000000000000000000028152600401808261ffff1661ffff168152602001915050600060405180830381600087803b1515611fba57600080fd5b6102c65a03f11515611fcb57600080fd5b5050505b8080600101915050611a85565b5b6115eb565b505050565b6000600260009054906101000a900460ff1615151561200557600080fd5b600260019054906101000a900473ffffffffffffffffffffffffffffffffffffffff1673ffffffffffffffffffffffffffffffffffffffff1663f8b2cb4f336000604051602001526040518263ffffffff167c0100000000000000000000000000000000000000000000000000000000028152600401808273ffffffffffffffffffffffffffffffffffffffff1673ffffffffffffffffffffffffffffffffffffffff168152602001915050602060405180830381600087803b15156120ca57600080fd5b6102c65a03f115156120db57600080fd5b5050506040518051905061ffff168261ffff16111515156120fb57600080fd5b6000600260019054906101000a900473ffffffffffffffffffffffffffffffffffffffff1673ffffffffffffffffffffffffffffffffffffffff1663f0598407336000604051602001526040518263ffffffff167c0100000000000000000000000000000000000000000000000000000000028152600401808273ffffffffffffffffffffffffffffffffffffffff1673ffffffffffffffffffffffffffffffffffffffff168152602001915050602060405180830381600087803b15156121c257600080fd5b6102c65a03f115156121d357600080fd5b5050506040518051905061ffff1614156122b857600260019054906101000a900473ffffffffffffffffffffffffffffffffffffffff1673ffffffffffffffffffffffffffffffffffffffff16635e7f95d3336040518263ffffffff167c0100000000000000000000000000000000000000000000000000000000028152600401808273ffffffffffffffffffffffffffffffffffffffff1673ffffffffffffffffffffffffffffffffffffffff168152602001915050600060405180830381600087803b15156122a357600080fd5b6102c65a03f115156122b457600080fd5b5050505b600260019054906101000a900473ffffffffffffffffffffffffffffffffffffffff1673ffffffffffffffffffffffffffffffffffffffff1663122282503384600260019054906101000a900473ffffffffffffffffffffffffffffffffffffffff1673ffffffffffffffffffffffffffffffffffffffff1663f0598407336000604051602001526040518263ffffffff167c0100000000000000000000000000000000000000000000000000000000028152600401808273ffffffffffffffffffffffffffffffffffffffff1673ffffffffffffffffffffffffffffffffffffffff168152602001915050602060405180830381600087803b15156123bd57600080fd5b6102c65a03f115156123ce57600080fd5b50505060405180519050016040518363ffffffff167c0100000000000000000000000000000000000000000000000000000000028152600401808373ffffffffffffffffffffffffffffffffffffffff1673ffffffffffffffffffffffffffffffffffffffff1681526020018261ffff1661ffff16815260200192505050600060405180830381600087803b151561246557600080fd5b6102c65a03f1151561247657600080fd5b505050600260019054906101000a900473ffffffffffffffffffffffffffffffffffffffff1673ffffffffffffffffffffffffffffffffffffffff166369fa0f156001600260019054906101000a900473ffffffffffffffffffffffffffffffffffffffff1673ffffffffffffffffffffffffffffffffffffffff1663e1cb547e6000604051602001526040518163ffffffff167c0100000000000000000000000000000000000000000000000000000000028152600401602060405180830381600087803b151561254757600080fd5b6102c65a03f1151561255857600080fd5b50505060405180519050016040518263ffffffff167c0100000000000000000000000000000000000000000000000000000000028152600401808261ffff1661ffff168152602001915050600060405180830381600087803b15156125bc57600080fd5b6102c65a03f115156125cd57600080fd5b50505060019050919050565b6000809054906101000a900473ffffffffffffffffffffffffffffffffffffffff1681565b6000600260019054906101000a900473ffffffffffffffffffffffffffffffffffffffff1673ffffffffffffffffffffffffffffffffffffffff1663c4e41b226000604051602001526040518163ffffffff167c0100000000000000000000000000000000000000000000000000000000028152600401602060405180830381600087803b151561268e57600080fd5b6102c65a03f1151561269f57600080fd5b50505060405180519050905090565b600260009054906101000a900460ff161515156126ca57600080fd5b60006127c282600260019054906101000a900473ffffffffffffffffffffffffffffffffffffffff1673ffffffffffffffffffffffffffffffffffffffff1663f8b2cb4f336000604051602001526040518263ffffffff167c0100000000000000000000000000000000000000000000000000000000028152600401808273ffffffffffffffffffffffffffffffffffffffff1673ffffffffffffffffffffffffffffffffffffffff168152602001915050602060405180830381600087803b151561279557600080fd5b6102c65a03f115156127a657600080fd5b5050506040518051905061ffff16613c8e90919063ffffffff16565b61ffff161115156127d257600080fd5b600260019054906101000a900473ffffffffffffffffffffffffffffffffffffffff1673ffffffffffffffffffffffffffffffffffffffff1663d0feb460336001600260019054906101000a900473ffffffffffffffffffffffffffffffffffffffff1673ffffffffffffffffffffffffffffffffffffffff1663f8b2cb4f336000604051602001526040518263ffffffff167c0100000000000000000000000000000000000000000000000000000000028152600401808273ffffffffffffffffffffffffffffffffffffffff1673ffffffffffffffffffffffffffffffffffffffff168152602001915050602060405180830381600087803b15156128d857600080fd5b6102c65a03f115156128e957600080fd5b50505060405180519050036040518363ffffffff167c0100000000000000000000000000000000000000000000000000000000028152600401808373ffffffffffffffffffffffffffffffffffffffff1673ffffffffffffffffffffffffffffffffffffffff1681526020018261ffff1661ffff16815260200192505050600060405180830381600087803b151561298057600080fd5b6102c65a03f1151561299157600080fd5b505050600260019054906101000a900473ffffffffffffffffffffffffffffffffffffffff1673ffffffffffffffffffffffffffffffffffffffff1663f0598407336000604051602001526040518263ffffffff167c0100000000000000000000000000000000000000000000000000000000028152600401808273ffffffffffffffffffffffffffffffffffffffff1673ffffffffffffffffffffffffffffffffffffffff168152602001915050602060405180830381600087803b1515612a5957600080fd5b6102c65a03f11515612a6a57600080fd5b5050506040518051905061ffff16600260019054906101000a900473ffffffffffffffffffffffffffffffffffffffff1673ffffffffffffffffffffffffffffffffffffffff1663f8b2cb4f336000604051602001526040518263ffffffff167c0100000000000000000000000000000000000000000000000000000000028152600401808273ffffffffffffffffffffffffffffffffffffffff1673ffffffffffffffffffffffffffffffffffffffff168152602001915050602060405180830381600087803b1515612b3d57600080fd5b6102c65a03f11515612b4e57600080fd5b5050506040518051905061ffff161015612d2257600260019054906101000a900473ffffffffffffffffffffffffffffffffffffffff1673ffffffffffffffffffffffffffffffffffffffff16631222825033600260019054906101000a900473ffffffffffffffffffffffffffffffffffffffff1673ffffffffffffffffffffffffffffffffffffffff1663f8b2cb4f336000604051602001526040518263ffffffff167c0100000000000000000000000000000000000000000000000000000000028152600401808273ffffffffffffffffffffffffffffffffffffffff1673ffffffffffffffffffffffffffffffffffffffff168152602001915050602060405180830381600087803b1515612c6657600080fd5b6102c65a03f11515612c7757600080fd5b505050604051805190506040518363ffffffff167c0100000000000000000000000000000000000000000000000000000000028152600401808373ffffffffffffffffffffffffffffffffffffffff1673ffffffffffffffffffffffffffffffffffffffff1681526020018261ffff1661ffff16815260200192505050600060405180830381600087803b1515612d0d57600080fd5b6102c65a03f11515612d1e57600080fd5b5050505b50565b6000600160003373ffffffffffffffffffffffffffffffffffffffff1673ffffffffffffffffffffffffffffffffffffffff16815260200190815260200160002060009054906101000a900460ff1680612dcb57506000809054906101000a900473ffffffffffffffffffffffffffffffffffffffff1673ffffffffffffffffffffffffffffffffffffffff163373ffffffffffffffffffffffffffffffffffffffff16145b80612e0157503073ffffffffffffffffffffffffffffffffffffffff163373ffffffffffffffffffffffffffffffffffffffff16145b1515612e0c57600080fd5b600260009054906101000a900460ff16151515612e2857600080fd5b6000600260019054906101000a900473ffffffffffffffffffffffffffffffffffffffff1673ffffffffffffffffffffffffffffffffffffffff1663c701e305846000604051602001526040518263ffffffff167c0100000000000000000000000000000000000000000000000000000000028152600401808273ffffffffffffffffffffffffffffffffffffffff1673ffffffffffffffffffffffffffffffffffffffff168152602001915050602060405180830381600087803b1515612eef57600080fd5b6102c65a03f11515612f0057600080fd5b50505060405180519050600260019054906101000a900473ffffffffffffffffffffffffffffffffffffffff1673ffffffffffffffffffffffffffffffffffffffff1663f8b2cb4f856000604051602001526040518263ffffffff167c0100000000000000000000000000000000000000000000000000000000028152600401808273ffffffffffffffffffffffffffffffffffffffff1673ffffffffffffffffffffffffffffffffffffffff168152602001915050602060405180830381600087803b1515612fcf57600080fd5b6102c65a03f11515612fe057600080fd5b505050604051805190500161ffff16111515612ffb57600080fd5b600260019054906101000a900473ffffffffffffffffffffffffffffffffffffffff1673ffffffffffffffffffffffffffffffffffffffff1663d4b9a6c933600260019054906101000a900473ffffffffffffffffffffffffffffffffffffffff1673ffffffffffffffffffffffffffffffffffffffff1663c701e305866000604051602001526040518263ffffffff167c0100000000000000000000000000000000000000000000000000000000028152600401808273ffffffffffffffffffffffffffffffffffffffff1673ffffffffffffffffffffffffffffffffffffffff168152602001915050602060405180830381600087803b15156130ff57600080fd5b6102c65a03f1151561311057600080fd5b50505060405180519050600260019054906101000a900473ffffffffffffffffffffffffffffffffffffffff1673ffffffffffffffffffffffffffffffffffffffff1663f8b2cb4f876000604051602001526040518263ffffffff167c0100000000000000000000000000000000000000000000000000000000028152600401808273ffffffffffffffffffffffffffffffffffffffff1673ffffffffffffffffffffffffffffffffffffffff168152602001915050602060405180830381600087803b15156131df57600080fd5b6102c65a03f115156131f057600080fd5b50505060405180519050016040518363ffffffff167c0100000000000000000000000000000000000000000000000000000000028152600401808373ffffffffffffffffffffffffffffffffffffffff1673ffffffffffffffffffffffffffffffffffffffff1681526020018261ffff1661ffff16815260200192505050600060405180830381600087803b151561328757600080fd5b6102c65a03f1151561329857600080fd5b505050600260019054906101000a900473ffffffffffffffffffffffffffffffffffffffff1673ffffffffffffffffffffffffffffffffffffffff166398976d01336000604051602001526040518263ffffffff167c0100000000000000000000000000000000000000000000000000000000028152600401808273ffffffffffffffffffffffffffffffffffffffff1673ffffffffffffffffffffffffffffffffffffffff168152602001915050602060405180830381600087803b151561336057600080fd5b6102c65a03f1151561337157600080fd5b505050604051805190509050919050565b60016020528060005260406000206000915054906101000a900460ff1681565b6000600260009054906101000a900460ff161515156133c057600080fd5b600073ffffffffffffffffffffffffffffffffffffffff168373ffffffffffffffffffffffffffffffffffffffff16141515156133fc57600080fd5b600260019054906101000a900473ffffffffffffffffffffffffffffffffffffffff1673ffffffffffffffffffffffffffffffffffffffff1663f8b2cb4f336000604051602001526040518263ffffffff167c0100000000000000000000000000000000000000000000000000000000028152600401808273ffffffffffffffffffffffffffffffffffffffff1673ffffffffffffffffffffffffffffffffffffffff168152602001915050602060405180830381600087803b15156134c157600080fd5b6102c65a03f115156134d257600080fd5b5050506040518051905061ffff168261ffff16111515156134f257600080fd5b600260019054906101000a900473ffffffffffffffffffffffffffffffffffffffff1673ffffffffffffffffffffffffffffffffffffffff1663d0feb4603361362785600260019054906101000a900473ffffffffffffffffffffffffffffffffffffffff1673ffffffffffffffffffffffffffffffffffffffff1663f8b2cb4f336000604051602001526040518263ffffffff167c0100000000000000000000000000000000000000000000000000000000028152600401808273ffffffffffffffffffffffffffffffffffffffff1673ffffffffffffffffffffffffffffffffffffffff168152602001915050602060405180830381600087803b15156135fa57600080fd5b6102c65a03f1151561360b57600080fd5b5050506040518051905061ffff16613c8e90919063ffffffff16565b6040518363ffffffff167c0100000000000000000000000000000000000000000000000000000000028152600401808373ffffffffffffffffffffffffffffffffffffffff1673ffffffffffffffffffffffffffffffffffffffff1681526020018261ffff1661ffff16815260200192505050600060405180830381600087803b15156136b357600080fd5b6102c65a03f115156136c457600080fd5b505050600260019054906101000a900473ffffffffffffffffffffffffffffffffffffffff1673ffffffffffffffffffffffffffffffffffffffff1663f0598407336000604051602001526040518263ffffffff167c0100000000000000000000000000000000000000000000000000000000028152600401808273ffffffffffffffffffffffffffffffffffffffff1673ffffffffffffffffffffffffffffffffffffffff168152602001915050602060405180830381600087803b151561378c57600080fd5b6102c65a03f1151561379d57600080fd5b5050506040518051905061ffff16600260019054906101000a900473ffffffffffffffffffffffffffffffffffffffff1673ffffffffffffffffffffffffffffffffffffffff1663f8b2cb4f336000604051602001526040518263ffffffff167c0100000000000000000000000000000000000000000000000000000000028152600401808273ffffffffffffffffffffffffffffffffffffffff1673ffffffffffffffffffffffffffffffffffffffff168152602001915050602060405180830381600087803b151561387057600080fd5b6102c65a03f1151561388157600080fd5b5050506040518051905061ffff161015613a5557600260019054906101000a900473ffffffffffffffffffffffffffffffffffffffff1673ffffffffffffffffffffffffffffffffffffffff16631222825033600260019054906101000a900473ffffffffffffffffffffffffffffffffffffffff1673ffffffffffffffffffffffffffffffffffffffff1663f8b2cb4f336000604051602001526040518263ffffffff167c0100000000000000000000000000000000000000000000000000000000028152600401808273ffffffffffffffffffffffffffffffffffffffff1673ffffffffffffffffffffffffffffffffffffffff168152602001915050602060405180830381600087803b151561399957600080fd5b6102c65a03f115156139aa57600080fd5b505050604051805190506040518363ffffffff167c0100000000000000000000000000000000000000000000000000000000028152600401808373ffffffffffffffffffffffffffffffffffffffff1673ffffffffffffffffffffffffffffffffffffffff1681526020018261ffff1661ffff16815260200192505050600060405180830381600087803b1515613a4057600080fd5b6102c65a03f11515613a5157600080fd5b5050505b600260019054906101000a900473ffffffffffffffffffffffffffffffffffffffff1673ffffffffffffffffffffffffffffffffffffffff1663d0feb46084613b8a85600260019054906101000a900473ffffffffffffffffffffffffffffffffffffffff1673ffffffffffffffffffffffffffffffffffffffff1663f8b2cb4f896000604051602001526040518263ffffffff167c0100000000000000000000000000000000000000000000000000000000028152600401808273ffffffffffffffffffffffffffffffffffffffff1673ffffffffffffffffffffffffffffffffffffffff168152602001915050602060405180830381600087803b1515613b5d57600080fd5b6102c65a03f11515613b6e57600080fd5b5050506040518051905061ffff16613c8e90919063ffffffff16565b6040518363ffffffff167c0100000000000000000000000000000000000000000000000000000000028152600401808373ffffffffffffffffffffffffffffffffffffffff1673ffffffffffffffffffffffffffffffffffffffff1681526020018261ffff1661ffff16815260200192505050600060405180830381600087803b1515613c1657600080fd5b6102c65a03f11515613c2757600080fd5b5050506001905092915050565b60018060008373ffffffffffffffffffffffffffffffffffffffff1673ffffffffffffffffffffffffffffffffffffffff16815260200190815260200160002060006101000a81548160ff02191690831515021790555050565b60008261ffff168261ffff1611151515613ca457fe5b818303905092915050565b60008082840190508361ffff168161ffff1610151515613ccb57fe5b8261ffff168161ffff1610151515613cdf57fe5b80915050929150505600a165627a7a723058206d03136cae6a1c5743b42da02c23c42c851d16a5e3e1a5cb422d82a8855b74d50029",
  "source": "pragma solidity ^0.4.15;\r\n\r\nimport './../math/SafeMath.sol';\r\nimport './../lifecycle/Pausable.sol';\r\nimport './TicketTokenData.sol';\r\n\r\n/**\r\n * @title TicketToken\r\n * @dev Version of ERC20 Token, representing tickets for an event.\r\n */\r\n\r\ncontract TicketToken is Pausable {\r\n    using SafeMath for uint16;\r\n\r\n    TicketTokenData public data;\r\n\r\n    function TicketToken(address _admin, address _ticketTokenDataAddress ) MultiOwnable (_admin, msg.sender) {\r\n        data = TicketTokenData(_ticketTokenDataAddress);\r\n    }\r\n\r\n    function getTotalSupply() constant returns (uint16) {\r\n        return data.getTotalSupply();\r\n    }\r\n\r\n    function getCap() constant returns (uint16) {\r\n        return data.getCap();\r\n    }\r\n\r\n    function getValue() constant returns (uint16) {\r\n        return data.getValue();\r\n    }\r\n\r\n    /**\r\n     * @dev Gets the balance of the specified address.\r\n     * @param _owner The address to query the balance of.\r\n     * @return An uint256 representing the amount of tickets owned by the passed address.\r\n     */\r\n\r\n    function balanceOf(address _owner) constant returns (uint16 balance) {\r\n        return data.getBalance(_owner);\r\n    }\r\n\r\n    /**\r\n     * @dev transfer token for a specified address\r\n     * @param _to The address to transfer to.\r\n     * @param _value The amount to be transferred.\r\n     */\r\n\r\n     function transfer(address _to, uint16 _value) public whenNotPaused returns (bool) {\r\n       require(_to != address(0));\r\n       require(_value <= data.getBalance(msg.sender));\r\n       data.setBalance(msg.sender, data.getBalance(msg.sender).sub(_value));\r\n       if (data.getBalance(msg.sender) < data.getAllowed(msg.sender)) data.setAllowed(msg.sender, data.getBalance(msg.sender));\r\n       data.setBalance(_to, data.getBalance(_to).sub(_value));\r\n       return true;\r\n     }\r\n\r\n     /**\r\n      * @dev Transfer tokens from one address to another\r\n      * @param _from address The address which you want to send tokens from\r\n      * @param _to address The address which you want to transfer to\r\n      * @param _value uint256 the amount of tokens to be transferred\r\n      */\r\n\r\n     function transferFrom(address _from, address _to, uint16 _value) onlySubowner whenNotPaused returns (bool success) {\r\n         require(_to != address(0));\r\n         require(_value <= data.getAllowed(_from));\r\n         data.setBalance(_from, data.getBalance(_from).sub(_value));\r\n         data.setAllowed(_from, data.getAllowed(_from).sub(_value));\r\n         data.setBalance(_to, data.getBalance(_to).add(_value));\r\n         return true;\r\n     }\r\n\r\n      /**\r\n       * @dev Approve the passed address to resell the specified amount of tokens.\r\n       */\r\n\r\n       function approve(uint16 _value) public whenNotPaused returns (bool) {\r\n           require(_value <= data.getBalance(msg.sender));\r\n           if (data.getAllowed(msg.sender) == 0) data.setAllowedIndex(msg.sender);\r\n           data.setAllowed(msg.sender, data.getAllowed(msg.sender) + _value);\r\n           data.setTotalResell(data.getTotalResell() + 1);\r\n           return true;\r\n       }\r\n\r\n       /**\r\n        * @dev Function to check the amount of tokens that an owner allowed to resell.\r\n        * @param _owner address The address which owns the funds.\r\n        * @return A uint256 specifying the amount of tokens still available to resell\r\n        */\r\n\r\n       function allowance(address _owner) public view returns (uint256) {\r\n           return data.getAllowed(_owner);\r\n       }\r\n\r\n      function assignTickets(address _to, uint16 _number) public onlySubowner whenNotPaused {\r\n          require(data.getCap() - data.getTotalSupply() + data.getTotalResell() >= _number);\r\n          while (_number > 0) {\r\n            if((data.getTotalSupply() + 1) <= data.getCap()) {\r\n                data.setBalance(_to, data.getBalance(_to) + 1);\r\n                data.setTotalSupply(data.getTotalSupply() + 1);\r\n                _number -= 1;\r\n            } else {\r\n                for(uint16 i = 0; i < data.getAllowedClusterSize(); i++) {\r\n                    if(data.getAllowed(data.getAllowedIndexAt(i)) > 0) {\r\n                        transferFrom(data.getAllowedIndexAt(i), _to, 1);\r\n                        i -= 1; _number-=1; data.setTotalResell(data.getTotalResell() - 1);\r\n                        if (_number == 0) break;\r\n                    } else {\r\n                        data.deleteAllowedIndexAt(i);\r\n                    }\r\n                }\r\n            }\r\n          }\r\n      }\r\n\r\n      /**\r\n       * @dev Function to use a owned ticket.\r\n       */\r\n\r\n      function useTicket(uint16 _number) whenNotPaused {\r\n          require(data.getBalance(msg.sender).sub(_number) > 0);\r\n          data.setBalance(msg.sender, data.getBalance(msg.sender) - 1);\r\n          if (data.getBalance(msg.sender) < data.getAllowed(msg.sender)) data.setAllowed(msg.sender, data.getBalance(msg.sender));\r\n      }\r\n\r\n      /**\r\n       * @dev Function to complain via 'Red Button'\r\n       * @param _sender defines the identity complaining.\r\n       * @return uint16 the number of tickets the identity owns.\r\n       */\r\n\r\n       function redButton(address _sender) public onlySubowner whenNotPaused returns (uint16) {\r\n           require(data.getBalance(_sender) + data.getUsed(_sender) > 0);\r\n           data.setRedButton(msg.sender, data.getBalance(_sender) + data.getUsed(_sender));\r\n           return data.getRedButton(msg.sender);\r\n       }\r\n\r\n}",
  "sourcePath": "C:\\Users\\Elias\\Documents\\GitHub\\pae-team-repo\\contracts\\token\\TicketToken.sol",
  "compiler": {
    "name": "solc",
    "version": "0.4.18+commit.9cf6e910.Emscripten.clang"
  },
  "schemaVersion": "1.0.1",
  "updatedAt": "2017-12-11T16:18:49.167Z"
}