{
  "contractName": "TicketTokenData",
  "abi": [
    {
      "constant": true,
      "inputs": [],
      "name": "ticketType",
      "outputs": [
        {
          "name": "",
          "type": "uint8"
        }
      ],
      "payable": false,
      "stateMutability": "view",
      "type": "function"
    },
    {
      "constant": false,
      "inputs": [
        {
          "name": "_addr",
          "type": "address"
        },
        {
          "name": "_quantity",
          "type": "uint16"
        }
      ],
      "name": "setAllowed",
      "outputs": [],
      "payable": false,
      "stateMutability": "nonpayable",
      "type": "function"
    },
    {
      "constant": true,
      "inputs": [],
      "name": "getType",
      "outputs": [
        {
          "name": "",
          "type": "uint8"
        }
      ],
      "payable": false,
      "stateMutability": "view",
      "type": "function"
    },
    {
      "constant": true,
      "inputs": [],
      "name": "totalSupply",
      "outputs": [
        {
          "name": "",
          "type": "uint16"
        }
      ],
      "payable": false,
      "stateMutability": "view",
      "type": "function"
    },
    {
      "constant": true,
      "inputs": [],
      "name": "getValue",
      "outputs": [
        {
          "name": "",
          "type": "uint16"
        }
      ],
      "payable": false,
      "stateMutability": "view",
      "type": "function"
    },
    {
      "constant": true,
      "inputs": [],
      "name": "cap",
      "outputs": [
        {
          "name": "",
          "type": "uint16"
        }
      ],
      "payable": false,
      "stateMutability": "view",
      "type": "function"
    },
    {
      "constant": true,
      "inputs": [],
      "name": "getAllowedClusterSize",
      "outputs": [
        {
          "name": "",
          "type": "uint256"
        }
      ],
      "payable": false,
      "stateMutability": "view",
      "type": "function"
    },
    {
      "constant": true,
      "inputs": [],
      "name": "value",
      "outputs": [
        {
          "name": "",
          "type": "uint16"
        }
      ],
      "payable": false,
      "stateMutability": "view",
      "type": "function"
    },
    {
      "constant": true,
      "inputs": [],
      "name": "getCap",
      "outputs": [
        {
          "name": "",
          "type": "uint16"
        }
      ],
      "payable": false,
      "stateMutability": "view",
      "type": "function"
    },
    {
      "constant": false,
      "inputs": [
        {
          "name": "_number",
          "type": "uint16"
        }
      ],
      "name": "setTotalSupply",
      "outputs": [],
      "payable": false,
      "stateMutability": "nonpayable",
      "type": "function"
    },
    {
      "constant": true,
      "inputs": [
        {
          "name": "_addr",
          "type": "address"
        }
      ],
      "name": "setAllowedIndex",
      "outputs": [],
      "payable": false,
      "stateMutability": "view",
      "type": "function"
    },
    {
      "constant": false,
      "inputs": [
        {
          "name": "_number",
          "type": "uint16"
        }
      ],
      "name": "setTotalResell",
      "outputs": [],
      "payable": false,
      "stateMutability": "nonpayable",
      "type": "function"
    },
    {
      "constant": false,
      "inputs": [
        {
          "name": "logic",
          "type": "address"
        }
      ],
      "name": "addLogic",
      "outputs": [],
      "payable": false,
      "stateMutability": "nonpayable",
      "type": "function"
    },
    {
      "constant": false,
      "inputs": [
        {
          "name": "i",
          "type": "uint16"
        }
      ],
      "name": "deleteAllowedIndexAt",
      "outputs": [],
      "payable": false,
      "stateMutability": "nonpayable",
      "type": "function"
    },
    {
      "constant": true,
      "inputs": [],
      "name": "owner",
      "outputs": [
        {
          "name": "",
          "type": "address"
        }
      ],
      "payable": false,
      "stateMutability": "view",
      "type": "function"
    },
    {
      "constant": true,
      "inputs": [
        {
          "name": "_addr",
          "type": "address"
        }
      ],
      "name": "getRedButton",
      "outputs": [
        {
          "name": "",
          "type": "uint16"
        }
      ],
      "payable": false,
      "stateMutability": "view",
      "type": "function"
    },
    {
      "constant": true,
      "inputs": [],
      "name": "totalResell",
      "outputs": [
        {
          "name": "",
          "type": "uint16"
        }
      ],
      "payable": false,
      "stateMutability": "view",
      "type": "function"
    },
    {
      "constant": true,
      "inputs": [
        {
          "name": "i",
          "type": "uint16"
        }
      ],
      "name": "getAllowedIndexAt",
      "outputs": [
        {
          "name": "",
          "type": "address"
        }
      ],
      "payable": false,
      "stateMutability": "view",
      "type": "function"
    },
    {
      "constant": true,
      "inputs": [],
      "name": "getTotalSupply",
      "outputs": [
        {
          "name": "",
          "type": "uint16"
        }
      ],
      "payable": false,
      "stateMutability": "view",
      "type": "function"
    },
    {
      "constant": true,
      "inputs": [
        {
          "name": "_addr",
          "type": "address"
        }
      ],
      "name": "getUsed",
      "outputs": [
        {
          "name": "",
          "type": "uint16"
        }
      ],
      "payable": false,
      "stateMutability": "view",
      "type": "function"
    },
    {
      "constant": false,
      "inputs": [
        {
          "name": "_addr",
          "type": "address"
        },
        {
          "name": "_balance",
          "type": "uint16"
        }
      ],
      "name": "setBalance",
      "outputs": [],
      "payable": false,
      "stateMutability": "nonpayable",
      "type": "function"
    },
    {
      "constant": false,
      "inputs": [
        {
          "name": "addr",
          "type": "address"
        },
        {
          "name": "_quantity",
          "type": "uint16"
        }
      ],
      "name": "setRedButton",
      "outputs": [],
      "payable": false,
      "stateMutability": "nonpayable",
      "type": "function"
    },
    {
      "constant": true,
      "inputs": [],
      "name": "getTotalResell",
      "outputs": [
        {
          "name": "",
          "type": "uint16"
        }
      ],
      "payable": false,
      "stateMutability": "view",
      "type": "function"
    },
    {
      "constant": true,
      "inputs": [
        {
          "name": "_addr",
          "type": "address"
        }
      ],
      "name": "getAllowed",
      "outputs": [
        {
          "name": "",
          "type": "uint16"
        }
      ],
      "payable": false,
      "stateMutability": "view",
      "type": "function"
    },
    {
      "constant": false,
      "inputs": [
        {
          "name": "newOwner",
          "type": "address"
        }
      ],
      "name": "transferOwnership",
      "outputs": [],
      "payable": false,
      "stateMutability": "nonpayable",
      "type": "function"
    },
    {
      "constant": false,
      "inputs": [
        {
          "name": "addr",
          "type": "address"
        },
        {
          "name": "_quantity",
          "type": "uint16"
        }
      ],
      "name": "setUsed",
      "outputs": [],
      "payable": false,
      "stateMutability": "nonpayable",
      "type": "function"
    },
    {
      "constant": false,
      "inputs": [
        {
          "name": "_addr",
          "type": "address"
        }
      ],
      "name": "getBalance",
      "outputs": [
        {
          "name": "",
          "type": "uint16"
        }
      ],
      "payable": false,
      "stateMutability": "nonpayable",
      "type": "function"
    },
    {
      "inputs": [
        {
          "name": "_cap",
          "type": "uint16"
        },
        {
          "name": "_value",
          "type": "uint16"
        },
        {
          "name": "_type",
          "type": "uint8"
        }
      ],
      "payable": false,
      "stateMutability": "nonpayable",
      "type": "constructor"
    },
    {
      "anonymous": false,
      "inputs": [
        {
          "indexed": true,
          "name": "previousOwner",
          "type": "address"
        },
        {
          "indexed": true,
          "name": "newOwner",
          "type": "address"
        }
      ],
      "name": "OwnershipTransferred",
      "type": "event"
    }
  ],
  "bytecode": "0x60606040526000600260056101000a81548161ffff021916908361ffff1602179055506000600260076101000a81548161ffff021916908361ffff160217905550341561004b57600080fd5b6040516060806113338339810160405280805190602001909190805190602001909190805190602001909190505033806000806101000a81548173ffffffffffffffffffffffffffffffffffffffff021916908373ffffffffffffffffffffffffffffffffffffffff1602179055505081600260006101000a81548161ffff021916908361ffff16021790555082600260036101000a81548161ffff021916908361ffff160217905550806002806101000a81548160ff021916908360ff160217905550505050611212806101216000396000f30060606040526004361061015f576000357c0100000000000000000000000000000000000000000000000000000000900463ffffffff1680630c737add14610164578063122282501461019357806315dae03e146101d957806318160ddd146102085780632096525514610239578063355274ea1461026a5780633aa763821461029b5780633fa4f245146102c4578063554d578d146102f5578063562e438b146103265780635e7f95d31461034d57806369fa0f151461038657806379ef704e146103ad5780638812d7ae146103e65780638da5cb5b1461040d57806398976d0114610462578063b2309070146104b7578063b9ec93c8146104e8578063c4e41b221461054f578063c701e30514610580578063d0feb460146105d5578063d4b9a6c91461061b578063e1cb547e14610661578063f059840714610692578063f2fde38b146106e7578063f7719f2b14610720578063f8b2cb4f14610766575b600080fd5b341561016f57600080fd5b6101776107bb565b604051808260ff1660ff16815260200191505060405180910390f35b341561019e57600080fd5b6101d7600480803573ffffffffffffffffffffffffffffffffffffffff1690602001909190803561ffff169060200190919050506107cd565b005b34156101e457600080fd5b6101ec610883565b604051808260ff1660ff16815260200191505060405180910390f35b341561021357600080fd5b61021b610899565b604051808261ffff1661ffff16815260200191505060405180910390f35b341561024457600080fd5b61024c6108ad565b604051808261ffff1661ffff16815260200191505060405180910390f35b341561027557600080fd5b61027d6108c5565b604051808261ffff1661ffff16815260200191505060405180910390f35b34156102a657600080fd5b6102ae6108d9565b6040518082815260200191505060405180910390f35b34156102cf57600080fd5b6102d76108e6565b604051808261ffff1661ffff16815260200191505060405180910390f35b341561030057600080fd5b6103086108fa565b604051808261ffff1661ffff16815260200191505060405180910390f35b341561033157600080fd5b61034b600480803561ffff16906020019091905050610912565b005b341561035857600080fd5b610384600480803573ffffffffffffffffffffffffffffffffffffffff1690602001909190505061098a565b005b341561039157600080fd5b6103ab600480803561ffff16906020019091905050610a48565b005b34156103b857600080fd5b6103e4600480803573ffffffffffffffffffffffffffffffffffffffff16906020019091905050610ac0565b005b34156103f157600080fd5b61040b600480803561ffff16906020019091905050610b75565b005b341561041857600080fd5b610420610c11565b604051808273ffffffffffffffffffffffffffffffffffffffff1673ffffffffffffffffffffffffffffffffffffffff16815260200191505060405180910390f35b341561046d57600080fd5b610499600480803573ffffffffffffffffffffffffffffffffffffffff16906020019091905050610c36565b604051808261ffff1661ffff16815260200191505060405180910390f35b34156104c257600080fd5b6104ca610c8d565b604051808261ffff1661ffff16815260200191505060405180910390f35b34156104f357600080fd5b61050d600480803561ffff16906020019091905050610ca1565b604051808273ffffffffffffffffffffffffffffffffffffffff1673ffffffffffffffffffffffffffffffffffffffff16815260200191505060405180910390f35b341561055a57600080fd5b610562610ce9565b604051808261ffff1661ffff16815260200191505060405180910390f35b341561058b57600080fd5b6105b7600480803573ffffffffffffffffffffffffffffffffffffffff16906020019091905050610d01565b604051808261ffff1661ffff16815260200191505060405180910390f35b34156105e057600080fd5b610619600480803573ffffffffffffffffffffffffffffffffffffffff1690602001909190803561ffff16906020019091905050610d58565b005b341561062657600080fd5b61065f600480803573ffffffffffffffffffffffffffffffffffffffff1690602001909190803561ffff16906020019091905050610e0e565b005b341561066c57600080fd5b610674610ec4565b604051808261ffff1661ffff16815260200191505060405180910390f35b341561069d57600080fd5b6106c9600480803573ffffffffffffffffffffffffffffffffffffffff16906020019091905050610edc565b604051808261ffff1661ffff16815260200191505060405180910390f35b34156106f257600080fd5b61071e600480803573ffffffffffffffffffffffffffffffffffffffff16906020019091905050610f33565b005b341561072b57600080fd5b610764600480803573ffffffffffffffffffffffffffffffffffffffff1690602001909190803561ffff16906020019091905050611088565b005b341561077157600080fd5b61079d600480803573ffffffffffffffffffffffffffffffffffffffff1690602001909190505061113e565b604051808261ffff1661ffff16815260200191505060405180910390f35b6002809054906101000a900460ff1681565b600160003373ffffffffffffffffffffffffffffffffffffffff1673ffffffffffffffffffffffffffffffffffffffff16815260200190815260200160002060009054906101000a900460ff16151561082557600080fd5b80600460008473ffffffffffffffffffffffffffffffffffffffff1673ffffffffffffffffffffffffffffffffffffffff16815260200190815260200160002060006101000a81548161ffff021916908361ffff1602179055505050565b60006002809054906101000a900460ff16905090565b600260059054906101000a900461ffff1681565b6000600260009054906101000a900461ffff16905090565b600260039054906101000a900461ffff1681565b6000600780549050905090565b600260009054906101000a900461ffff1681565b6000600260039054906101000a900461ffff16905090565b600160003373ffffffffffffffffffffffffffffffffffffffff1673ffffffffffffffffffffffffffffffffffffffff16815260200190815260200160002060009054906101000a900460ff16151561096a57600080fd5b80600260056101000a81548161ffff021916908361ffff16021790555050565b600160003373ffffffffffffffffffffffffffffffffffffffff1673ffffffffffffffffffffffffffffffffffffffff16815260200190815260200160002060009054906101000a900460ff1615156109e257600080fd5b600780548060010182816109f69190611195565b9160005260206000209001600083909190916101000a81548173ffffffffffffffffffffffffffffffffffffffff021916908373ffffffffffffffffffffffffffffffffffffffff1602179055505050565b600160003373ffffffffffffffffffffffffffffffffffffffff1673ffffffffffffffffffffffffffffffffffffffff16815260200190815260200160002060009054906101000a900460ff161515610aa057600080fd5b80600260076101000a81548161ffff021916908361ffff16021790555050565b6000809054906101000a900473ffffffffffffffffffffffffffffffffffffffff1673ffffffffffffffffffffffffffffffffffffffff163373ffffffffffffffffffffffffffffffffffffffff16141515610b1b57600080fd5b60018060008373ffffffffffffffffffffffffffffffffffffffff1673ffffffffffffffffffffffffffffffffffffffff16815260200190815260200160002060006101000a81548160ff02191690831515021790555050565b600160003373ffffffffffffffffffffffffffffffffffffffff1673ffffffffffffffffffffffffffffffffffffffff16815260200190815260200160002060009054906101000a900460ff161515610bcd57600080fd5b60078161ffff16815481101515610be057fe5b906000526020600020900160006101000a81549073ffffffffffffffffffffffffffffffffffffffff021916905550565b6000809054906101000a900473ffffffffffffffffffffffffffffffffffffffff1681565b6000600560008373ffffffffffffffffffffffffffffffffffffffff1673ffffffffffffffffffffffffffffffffffffffff16815260200190815260200160002060009054906101000a900461ffff169050919050565b600260079054906101000a900461ffff1681565b600060078261ffff16815481101515610cb657fe5b906000526020600020900160009054906101000a900473ffffffffffffffffffffffffffffffffffffffff169050919050565b6000600260059054906101000a900461ffff16905090565b6000600460008373ffffffffffffffffffffffffffffffffffffffff1673ffffffffffffffffffffffffffffffffffffffff16815260200190815260200160002060009054906101000a900461ffff169050919050565b600160003373ffffffffffffffffffffffffffffffffffffffff1673ffffffffffffffffffffffffffffffffffffffff16815260200190815260200160002060009054906101000a900460ff161515610db057600080fd5b80600360008473ffffffffffffffffffffffffffffffffffffffff1673ffffffffffffffffffffffffffffffffffffffff16815260200190815260200160002060006101000a81548161ffff021916908361ffff1602179055505050565b600160003373ffffffffffffffffffffffffffffffffffffffff1673ffffffffffffffffffffffffffffffffffffffff16815260200190815260200160002060009054906101000a900460ff161515610e6657600080fd5b80600560008473ffffffffffffffffffffffffffffffffffffffff1673ffffffffffffffffffffffffffffffffffffffff16815260200190815260200160002060006101000a81548161ffff021916908361ffff1602179055505050565b6000600260079054906101000a900461ffff16905090565b6000600460008373ffffffffffffffffffffffffffffffffffffffff1673ffffffffffffffffffffffffffffffffffffffff16815260200190815260200160002060009054906101000a900461ffff169050919050565b6000809054906101000a900473ffffffffffffffffffffffffffffffffffffffff1673ffffffffffffffffffffffffffffffffffffffff163373ffffffffffffffffffffffffffffffffffffffff16141515610f8e57600080fd5b600073ffffffffffffffffffffffffffffffffffffffff168173ffffffffffffffffffffffffffffffffffffffff1614151515610fca57600080fd5b8073ffffffffffffffffffffffffffffffffffffffff166000809054906101000a900473ffffffffffffffffffffffffffffffffffffffff1673ffffffffffffffffffffffffffffffffffffffff167f8be0079c531659141344cd1fd0a4f28419497f9722a3daafe3b4186f6b6457e060405160405180910390a3806000806101000a81548173ffffffffffffffffffffffffffffffffffffffff021916908373ffffffffffffffffffffffffffffffffffffffff16021790555050565b600160003373ffffffffffffffffffffffffffffffffffffffff1673ffffffffffffffffffffffffffffffffffffffff16815260200190815260200160002060009054906101000a900460ff1615156110e057600080fd5b80600460008473ffffffffffffffffffffffffffffffffffffffff1673ffffffffffffffffffffffffffffffffffffffff16815260200190815260200160002060006101000a81548161ffff021916908361ffff1602179055505050565b6000600360008373ffffffffffffffffffffffffffffffffffffffff1673ffffffffffffffffffffffffffffffffffffffff16815260200190815260200160002060009054906101000a900461ffff169050919050565b8154818355818115116111bc578183600052602060002091820191016111bb91906111c1565b5b505050565b6111e391905b808211156111df5760008160009055506001016111c7565b5090565b905600a165627a7a72305820da32d133dacb703ff919c9a322db28e1d759eec32e45e3bde51a1d503109104c0029",
  "source": "pragma solidity ^0.4.2;\r\n\r\nimport \"./../ownership/Ownable.sol\";\r\n\r\ncontract TicketTokenData is Ownable {\r\n\r\n     /* Only logic contracts can interactuate with the token data */\r\n     mapping(address => bool) logics;\r\n\r\n     /* TicketToken basic information (constant) */\r\n     uint16 public value;                   /* value: the price of each ticket. */\r\n     uint8 public ticketType;               /* ticketType: the type of ticket. */\r\n     uint16 public cap;                     /* cap: maximum number of tickets. */\r\n\r\n     /* State variables (variable) */\r\n     uint16 public totalSupply = 0;             /* totalSupply: number of tickets sold. */\r\n     uint16 public totalResell = 0;             /* totalResell: number of tickets to resell. */\r\n\r\n     mapping(address => uint16) balances;                   /* balances: (who, available tickets) */\r\n     mapping (address => uint16) internal used;             /* used: (who, used tickets) */\r\n     mapping (address => uint16) internal redButton;        /* used: (who, used tickets) */\r\n     mapping (address => uint16) internal allowed;          /* allowed: (who, resalable tickets) */\r\n\r\n     address[] internal clusterAllowedIndex;                /* Auxiliar to store the \"Resellers\" */\r\n\r\n\r\n     function TicketTokenData(uint16 _cap, uint16 _value, uint8 _type) Ownable (msg.sender) {\r\n        value = _value;\r\n        cap = _cap;\r\n        ticketType = _type;\r\n     }\r\n\r\n     modifier onlyLogic () {\r\n        require(logics[msg.sender]);\r\n        _;\r\n     }\r\n\r\n    function getCap() constant returns (uint16) {\r\n        return cap;\r\n    }\r\n\r\n    function getType() constant returns (uint8) {\r\n         return ticketType;\r\n     }\r\n\r\n     function getValue() constant returns (uint16) {\r\n         return value;\r\n     }\r\n\r\n     function getTotalSupply() constant returns (uint16) {\r\n         return totalSupply;\r\n     }\r\n\r\n     function setTotalSupply(uint16 _number) onlyLogic {\r\n         totalSupply=_number;\r\n     }\r\n\r\n     function getTotalResell() constant returns (uint16) {\r\n         return totalResell;\r\n     }\r\n\r\n     function setTotalResell(uint16 _number) onlyLogic {\r\n         totalResell=_number;\r\n     }\r\n\r\n     function getBalance(address _addr) returns (uint16) {\r\n        return balances[_addr];\r\n     }\r\n\r\n     function setBalance(address _addr, uint16 _balance) onlyLogic {\r\n        balances[_addr] = _balance;\r\n     }\r\n\r\n     function getUsed(address _addr) constant returns (uint16) {\r\n        return used[_addr];\r\n     }\r\n\r\n     function setUsed(address addr, uint16 _quantity) onlyLogic {\r\n        used[addr] = _quantity;\r\n     }\r\n\r\n     function getRedButton(address _addr) constant returns (uint16) {\r\n        return redButton[_addr];\r\n     }\r\n\r\n     function setRedButton(address addr, uint16 _quantity) onlyLogic {\r\n        redButton[addr] = _quantity;\r\n     }\r\n\r\n     function getAllowed(address _addr) constant returns (uint16) {\r\n        return used[_addr];\r\n     }\r\n\r\n     function setAllowed(address _addr, uint16 _quantity) onlyLogic {\r\n        used[_addr] = _quantity;\r\n     }\r\n\r\n     function getAllowedClusterSize() constant returns (uint) {\r\n        return clusterAllowedIndex.length;\r\n     }\r\n\r\n     function getAllowedIndexAt (uint16 i) constant returns (address){\r\n        return clusterAllowedIndex[i];\r\n     }\r\n\r\n     function setAllowedIndex (address _addr) constant onlyLogic {\r\n        clusterAllowedIndex.push(_addr);\r\n     }\r\n\r\n     function deleteAllowedIndexAt (uint16 i) onlyLogic {\r\n         delete clusterAllowedIndex[i];\r\n     }\r\n\r\n     function addLogic(address logic) onlyOwner {\r\n             logics[logic] = true;\r\n     }\r\n\r\n}\r\n",
  "sourcePath": "C:\\Users\\Elias\\Documents\\GitHub\\pae-team-repo\\contracts\\token\\TicketTokenData.sol",
  "compiler": {
    "name": "solc",
    "version": "0.4.18+commit.9cf6e910.Emscripten.clang"
  },
  "schemaVersion": "1.0.1",
  "updatedAt": "2017-12-11T16:18:49.146Z"
}