{
  "contractName": "UserFactory",
  "abi": [
    {
      "constant": false,
      "inputs": [
        {
          "name": "id",
          "type": "bytes32"
        }
      ],
      "name": "createOrganizer",
      "outputs": [],
      "payable": false,
      "stateMutability": "nonpayable",
      "type": "function"
    },
    {
      "constant": true,
      "inputs": [
        {
          "name": "",
          "type": "bytes32"
        }
      ],
      "name": "idMapUser",
      "outputs": [
        {
          "name": "",
          "type": "address"
        }
      ],
      "payable": false,
      "stateMutability": "view",
      "type": "function"
    },
    {
      "constant": false,
      "inputs": [
        {
          "name": "owner",
          "type": "address"
        },
        {
          "name": "id",
          "type": "bytes32"
        }
      ],
      "name": "createBasicUser",
      "outputs": [],
      "payable": false,
      "stateMutability": "nonpayable",
      "type": "function"
    },
    {
      "constant": true,
      "inputs": [],
      "name": "owner",
      "outputs": [
        {
          "name": "",
          "type": "address"
        }
      ],
      "payable": false,
      "stateMutability": "view",
      "type": "function"
    },
    {
      "constant": false,
      "inputs": [
        {
          "name": "newOwner",
          "type": "address"
        }
      ],
      "name": "transferOwnership",
      "outputs": [],
      "payable": false,
      "stateMutability": "nonpayable",
      "type": "function"
    },
    {
      "inputs": [],
      "payable": false,
      "stateMutability": "nonpayable",
      "type": "constructor"
    },
    {
      "anonymous": false,
      "inputs": [
        {
          "indexed": false,
          "name": "buAddress",
          "type": "address"
        },
        {
          "indexed": false,
          "name": "owner",
          "type": "address"
        }
      ],
      "name": "BasicUserCreated",
      "type": "event"
    },
    {
      "anonymous": false,
      "inputs": [
        {
          "indexed": false,
          "name": "organizerAddress",
          "type": "address"
        },
        {
          "indexed": false,
          "name": "owner",
          "type": "address"
        }
      ],
      "name": "OrganizerCreated",
      "type": "event"
    },
    {
      "anonymous": false,
      "inputs": [
        {
          "indexed": true,
          "name": "previousOwner",
          "type": "address"
        },
        {
          "indexed": true,
          "name": "newOwner",
          "type": "address"
        }
      ],
      "name": "OwnershipTransferred",
      "type": "event"
    }
  ],
  "bytecode": "0x6060604052341561000f57600080fd5b33806000806101000a81548173ffffffffffffffffffffffffffffffffffffffff021916908373ffffffffffffffffffffffffffffffffffffffff16021790555050611d68806100606000396000f30060606040526004361061006d576000357c0100000000000000000000000000000000000000000000000000000000900463ffffffff16806315a4e7161461007257806324a5bad2146100995780633ca84ce5146101005780638da5cb5b14610146578063f2fde38b1461019b575b600080fd5b341561007d57600080fd5b6100976004808035600019169060200190919050506101d4565b005b34156100a457600080fd5b6100be600480803560001916906020019091905050610332565b604051808273ffffffffffffffffffffffffffffffffffffffff1673ffffffffffffffffffffffffffffffffffffffff16815260200191505060405180910390f35b341561010b57600080fd5b610144600480803573ffffffffffffffffffffffffffffffffffffffff1690602001909190803560001916906020019091905050610365565b005b341561015157600080fd5b6101596104c4565b604051808273ffffffffffffffffffffffffffffffffffffffff1673ffffffffffffffffffffffffffffffffffffffff16815260200191505060405180910390f35b34156101a657600080fd5b6101d2600480803573ffffffffffffffffffffffffffffffffffffffff169060200190919050506104e9565b005b600033826101e061063e565b808373ffffffffffffffffffffffffffffffffffffffff1673ffffffffffffffffffffffffffffffffffffffff168152602001826000191660001916815260200192505050604051809103906000f080151561023b57600080fd5b90508060016000846000191660001916815260200190815260200160002060006101000a81548173ffffffffffffffffffffffffffffffffffffffff021916908373ffffffffffffffffffffffffffffffffffffffff1602179055507f825e8d76b51d1a3c38c9d33c65813caa3a5da66ab45c3811ca5e9b6bacd016b18133604051808373ffffffffffffffffffffffffffffffffffffffff1673ffffffffffffffffffffffffffffffffffffffff1681526020018273ffffffffffffffffffffffffffffffffffffffff1673ffffffffffffffffffffffffffffffffffffffff1681526020019250505060405180910390a15050565b60016020528060005260406000206000915054906101000a900473ffffffffffffffffffffffffffffffffffffffff1681565b6000828261037161064e565b808373ffffffffffffffffffffffffffffffffffffffff1673ffffffffffffffffffffffffffffffffffffffff168152602001826000191660001916815260200192505050604051809103906000f08015156103cc57600080fd5b90508060016000846000191660001916815260200190815260200160002060006101000a81548173ffffffffffffffffffffffffffffffffffffffff021916908373ffffffffffffffffffffffffffffffffffffffff1602179055507fd0c3148d10a081eb7c9b99d69038db0cd73a7ad4457cc8014019fb519c40f3818184604051808373ffffffffffffffffffffffffffffffffffffffff1673ffffffffffffffffffffffffffffffffffffffff1681526020018273ffffffffffffffffffffffffffffffffffffffff1673ffffffffffffffffffffffffffffffffffffffff1681526020019250505060405180910390a1505050565b6000809054906101000a900473ffffffffffffffffffffffffffffffffffffffff1681565b6000809054906101000a900473ffffffffffffffffffffffffffffffffffffffff1673ffffffffffffffffffffffffffffffffffffffff163373ffffffffffffffffffffffffffffffffffffffff1614151561054457600080fd5b600073ffffffffffffffffffffffffffffffffffffffff168173ffffffffffffffffffffffffffffffffffffffff161415151561058057600080fd5b8073ffffffffffffffffffffffffffffffffffffffff166000809054906101000a900473ffffffffffffffffffffffffffffffffffffffff1673ffffffffffffffffffffffffffffffffffffffff167f8be0079c531659141344cd1fd0a4f28419497f9722a3daafe3b4186f6b6457e060405160405180910390a3806000806101000a81548173ffffffffffffffffffffffffffffffffffffffff021916908373ffffffffffffffffffffffffffffffffffffffff16021790555050565b604051610e6c8061065f83390190565b604051610872806114cb8339019056006060604052341561000f57600080fd5b604051604080610e6c83398101604052808051906020019091908051906020019091905050818181806000806101000a81548173ffffffffffffffffffffffffffffffffffffffff021916908373ffffffffffffffffffffffffffffffffffffffff16021790555050816000806101000a81548173ffffffffffffffffffffffffffffffffffffffff021916908373ffffffffffffffffffffffffffffffffffffffff160217905550806001816000191690555050505050610d96806100d66000396000f3006060604052600436106100c5576000357c0100000000000000000000000000000000000000000000000000000000900463ffffffff1680630a4b75c2146100ca5780630b791430146101295780631f5d4c821461018c5780635d1ca631146101c55780636863cc44146101f6578063710500d31461022f57806374832445146102685780638da5cb5b146102b3578063b33eb0a014610308578063c222a3471461031d578063d43cbb1514610361578063f20b188e1461039a578063f2fde38b146103ff575b600080fd5b34156100d557600080fd5b610127600480803573ffffffffffffffffffffffffffffffffffffffff1690602001909190803560ff1690602001909190803561ffff1690602001909190803561ffff16906020019091905050610438565b005b341561013457600080fd5b61014a6004808035906020019091905050610547565b604051808273ffffffffffffffffffffffffffffffffffffffff1673ffffffffffffffffffffffffffffffffffffffff16815260200191505060405180910390f35b341561019757600080fd5b6101c3600480803573ffffffffffffffffffffffffffffffffffffffff16906020019091905050610586565b005b34156101d057600080fd5b6101d8610661565b60405180826000191660001916815260200191505060405180910390f35b341561020157600080fd5b61022d600480803573ffffffffffffffffffffffffffffffffffffffff1690602001909190505061066b565b005b341561023a57600080fd5b610266600480803573ffffffffffffffffffffffffffffffffffffffff169060200190919050506106c9565b005b341561027357600080fd5b6102b1600480803573ffffffffffffffffffffffffffffffffffffffff169060200190919080359060200190919080359060200190919050506107a4565b005b34156102be57600080fd5b6102c6610894565b604051808273ffffffffffffffffffffffffffffffffffffffff1673ffffffffffffffffffffffffffffffffffffffff16815260200191505060405180910390f35b341561031357600080fd5b61031b6108b9565b005b341561032857600080fd5b61035f600480803573ffffffffffffffffffffffffffffffffffffffff1690602001909190803515159060200190919050506109cc565b005b341561036c57600080fd5b610398600480803573ffffffffffffffffffffffffffffffffffffffff16906020019091905050610a5c565b005b34156103a557600080fd5b6103fd600480803573ffffffffffffffffffffffffffffffffffffffff1690602001909190803573ffffffffffffffffffffffffffffffffffffffff1690602001909190803561ffff16906020019091905050610aa0565b005b341561040a57600080fd5b610436600480803573ffffffffffffffffffffffffffffffffffffffff16906020019091905050610bc4565b005b60008060009054906101000a900473ffffffffffffffffffffffffffffffffffffffff1673ffffffffffffffffffffffffffffffffffffffff163373ffffffffffffffffffffffffffffffffffffffff1614151561049557600080fd5b8490508073ffffffffffffffffffffffffffffffffffffffff166308dae3fe8585856040518463ffffffff167c0100000000000000000000000000000000000000000000000000000000028152600401808460ff1660ff1681526020018361ffff1661ffff1681526020018261ffff1661ffff1681526020019350505050600060405180830381600087803b151561052c57600080fd5b6102c65a03f1151561053d57600080fd5b5050505050505050565b60028181548110151561055657fe5b90600052602060002090016000915054906101000a900473ffffffffffffffffffffffffffffffffffffffff1681565b60008060009054906101000a900473ffffffffffffffffffffffffffffffffffffffff1673ffffffffffffffffffffffffffffffffffffffff163373ffffffffffffffffffffffffffffffffffffffff161415156105e357600080fd5b8190508073ffffffffffffffffffffffffffffffffffffffff16632852b71c6040518163ffffffff167c0100000000000000000000000000000000000000000000000000000000028152600401600060405180830381600087803b151561064957600080fd5b6102c65a03f1151561065a57600080fd5b5050505050565b6000600154905090565b6000809054906101000a900473ffffffffffffffffffffffffffffffffffffffff1673ffffffffffffffffffffffffffffffffffffffff163373ffffffffffffffffffffffffffffffffffffffff161415156106c657600080fd5b50565b60008060009054906101000a900473ffffffffffffffffffffffffffffffffffffffff1673ffffffffffffffffffffffffffffffffffffffff163373ffffffffffffffffffffffffffffffffffffffff1614151561072657600080fd5b8190508073ffffffffffffffffffffffffffffffffffffffff1663ea8a1af06040518163ffffffff167c0100000000000000000000000000000000000000000000000000000000028152600401600060405180830381600087803b151561078c57600080fd5b6102c65a03f1151561079d57600080fd5b5050505050565b60008060009054906101000a900473ffffffffffffffffffffffffffffffffffffffff1673ffffffffffffffffffffffffffffffffffffffff163373ffffffffffffffffffffffffffffffffffffffff1614151561080157600080fd5b8390508073ffffffffffffffffffffffffffffffffffffffff1663acc3566784846040518363ffffffff167c01000000000000000000000000000000000000000000000000000000000281526004018083815260200182815260200192505050600060405180830381600087803b151561087a57600080fd5b6102c65a03f1151561088b57600080fd5b50505050505050565b6000809054906101000a900473ffffffffffffffffffffffffffffffffffffffff1681565b6000600360009054906101000a900473ffffffffffffffffffffffffffffffffffffffff1673ffffffffffffffffffffffffffffffffffffffff1663b33eb0a06000604051602001526040518163ffffffff167c0100000000000000000000000000000000000000000000000000000000028152600401602060405180830381600087803b151561094957600080fd5b6102c65a03f1151561095a57600080fd5b5050506040518051905090506002805480600101828161097a9190610d19565b9160005260206000209001600083909190916101000a81548173ffffffffffffffffffffffffffffffffffffffff021916908373ffffffffffffffffffffffffffffffffffffffff1602179055505050565b60008290508073ffffffffffffffffffffffffffffffffffffffff1663474e7563836040518263ffffffff167c01000000000000000000000000000000000000000000000000000000000281526004018082151515158152602001915050600060405180830381600087803b1515610a4357600080fd5b6102c65a03f11515610a5457600080fd5b505050505050565b80600360006101000a81548173ffffffffffffffffffffffffffffffffffffffff021916908373ffffffffffffffffffffffffffffffffffffffff16021790555050565b60008060009054906101000a900473ffffffffffffffffffffffffffffffffffffffff1673ffffffffffffffffffffffffffffffffffffffff163373ffffffffffffffffffffffffffffffffffffffff16141515610afd57600080fd5b8390508073ffffffffffffffffffffffffffffffffffffffff16633bbb385684846040518363ffffffff167c0100000000000000000000000000000000000000000000000000000000028152600401808373ffffffffffffffffffffffffffffffffffffffff1673ffffffffffffffffffffffffffffffffffffffff1681526020018261ffff1661ffff16815260200192505050600060405180830381600087803b1515610baa57600080fd5b6102c65a03f11515610bbb57600080fd5b50505050505050565b6000809054906101000a900473ffffffffffffffffffffffffffffffffffffffff1673ffffffffffffffffffffffffffffffffffffffff163373ffffffffffffffffffffffffffffffffffffffff16141515610c1f57600080fd5b600073ffffffffffffffffffffffffffffffffffffffff168173ffffffffffffffffffffffffffffffffffffffff1614151515610c5b57600080fd5b8073ffffffffffffffffffffffffffffffffffffffff166000809054906101000a900473ffffffffffffffffffffffffffffffffffffffff1673ffffffffffffffffffffffffffffffffffffffff167f8be0079c531659141344cd1fd0a4f28419497f9722a3daafe3b4186f6b6457e060405160405180910390a3806000806101000a81548173ffffffffffffffffffffffffffffffffffffffff021916908373ffffffffffffffffffffffffffffffffffffffff16021790555050565b815481835581811511610d4057818360005260206000209182019101610d3f9190610d45565b5b505050565b610d6791905b80821115610d63576000816000905550600101610d4b565b5090565b905600a165627a7a72305820863e39781f4580ba1e9b1410234bddf97cd4e134a7f7c019fb5aad026ca0db8900296060604052341561000f57600080fd5b60405160408061087283398101604052808051906020019091908051906020019091905050818181806000806101000a81548173ffffffffffffffffffffffffffffffffffffffff021916908373ffffffffffffffffffffffffffffffffffffffff16021790555050816000806101000a81548173ffffffffffffffffffffffffffffffffffffffff021916908373ffffffffffffffffffffffffffffffffffffffff16021790555080600181600019169055505050505061079c806100d66000396000f30060606040526004361061008e576000357c0100000000000000000000000000000000000000000000000000000000900463ffffffff16806334527097146100935780634dffdab7146100d95780634ed02622146101125780635d1ca6311461017c5780638da5cb5b146101ad5780639bdd779c14610202578063dc6dfaaf14610253578063f2fde38b1461028c575b600080fd5b341561009e57600080fd5b6100d7600480803573ffffffffffffffffffffffffffffffffffffffff1690602001909190803561ffff169060200190919050506102c5565b005b34156100e457600080fd5b610110600480803573ffffffffffffffffffffffffffffffffffffffff169060200190919050506103c5565b005b341561011d57600080fd5b6101256103c8565b6040518080602001828103825283818151815260200191508051906020019060200280838360005b8381101561016857808201518184015260208101905061014d565b505050509050019250505060405180910390f35b341561018757600080fd5b61018f61045c565b60405180826000191660001916815260200191505060405180910390f35b34156101b857600080fd5b6101c0610466565b604051808273ffffffffffffffffffffffffffffffffffffffff1673ffffffffffffffffffffffffffffffffffffffff16815260200191505060405180910390f35b341561020d57600080fd5b610251600480803573ffffffffffffffffffffffffffffffffffffffff1690602001909190803560ff1690602001909190803560ff1690602001909190505061048b565b005b341561025e57600080fd5b61028a600480803573ffffffffffffffffffffffffffffffffffffffff16906020019091905050610587565b005b341561029757600080fd5b6102c3600480803573ffffffffffffffffffffffffffffffffffffffff16906020019091905050610607565b005b60008060009054906101000a900473ffffffffffffffffffffffffffffffffffffffff1673ffffffffffffffffffffffffffffffffffffffff163373ffffffffffffffffffffffffffffffffffffffff1614151561032257600080fd5b8290508073ffffffffffffffffffffffffffffffffffffffff166389fcdbc5836000604051602001526040518263ffffffff167c0100000000000000000000000000000000000000000000000000000000028152600401808261ffff1661ffff168152602001915050602060405180830381600087803b15156103a457600080fd5b6102c65a03f115156103b557600080fd5b5050506040518051905050505050565b50565b6103d061075c565b600280548060200260200160405190810160405280929190818152602001828054801561045257602002820191906000526020600020905b8160009054906101000a900473ffffffffffffffffffffffffffffffffffffffff1673ffffffffffffffffffffffffffffffffffffffff1681526020019060010190808311610408575b5050505050905090565b6000600154905090565b6000809054906101000a900473ffffffffffffffffffffffffffffffffffffffff1681565b60008060009054906101000a900473ffffffffffffffffffffffffffffffffffffffff1673ffffffffffffffffffffffffffffffffffffffff163373ffffffffffffffffffffffffffffffffffffffff161415156104e857600080fd5b8390508073ffffffffffffffffffffffffffffffffffffffff16635fd8401284846040518363ffffffff167c0100000000000000000000000000000000000000000000000000000000028152600401808360ff1660ff1681526020018260ff1660ff16815260200192505050600060405180830381600087803b151561056d57600080fd5b6102c65a03f1151561057e57600080fd5b50505050505050565b60008190508073ffffffffffffffffffffffffffffffffffffffff16639d3e58786040518163ffffffff167c0100000000000000000000000000000000000000000000000000000000028152600401600060405180830381600087803b15156105ef57600080fd5b6102c65a03f1151561060057600080fd5b5050505050565b6000809054906101000a900473ffffffffffffffffffffffffffffffffffffffff1673ffffffffffffffffffffffffffffffffffffffff163373ffffffffffffffffffffffffffffffffffffffff1614151561066257600080fd5b600073ffffffffffffffffffffffffffffffffffffffff168173ffffffffffffffffffffffffffffffffffffffff161415151561069e57600080fd5b8073ffffffffffffffffffffffffffffffffffffffff166000809054906101000a900473ffffffffffffffffffffffffffffffffffffffff1673ffffffffffffffffffffffffffffffffffffffff167f8be0079c531659141344cd1fd0a4f28419497f9722a3daafe3b4186f6b6457e060405160405180910390a3806000806101000a81548173ffffffffffffffffffffffffffffffffffffffff021916908373ffffffffffffffffffffffffffffffffffffffff16021790555050565b6020604051908101604052806000815250905600a165627a7a72305820570236d51368ccd23fd9ec209fcf4c4ecfa75bb1fbe432ca996e9911325fcf880029a165627a7a723058203a80c918635aec904d5645f7036e204122af004efd30bb7d2868f07db85cd4990029",
  "source": "import \"./../user/BasicUser.sol\";\r\nimport \"./../user/Organizer.sol\";\r\nimport \"./../ownership/Ownable.sol\";\r\n\r\ncontract UserFactory is Ownable {\r\n    \r\n    mapping(bytes32 => address) public idMapUser;\r\n\r\n    \r\n    event BasicUserCreated(address buAddress, address owner);\r\n    event OrganizerCreated(address organizerAddress, address owner);\r\n\r\n    function UserFactory() Ownable(msg.sender) {\r\n        \r\n    }\r\n    \r\n    function createBasicUser(address owner, bytes32 id) {\r\n        BasicUser bu = new BasicUser(owner, id);\r\n        idMapUser[id] = bu;\r\n\r\n        BasicUserCreated(bu, owner);\r\n    }\r\n    \r\n    function createOrganizer(bytes32 id) {\r\n        Organizer org = new Organizer(msg.sender, id);\r\n        idMapUser[id] = org;\r\n\r\n        OrganizerCreated(org, msg.sender);\r\n    }\r\n    \r\n}",
  "sourcePath": "C:\\Users\\Elias\\Documents\\GitHub\\pae-team-repo\\contracts\\factory\\UserFactory.sol",
  "compiler": {
    "name": "solc",
    "version": "0.4.18+commit.9cf6e910.Emscripten.clang"
  },
  "schemaVersion": "1.0.1",
  "updatedAt": "2017-12-11T16:18:49.098Z"
}